{
  "contractName": "Compensate",
  "abi": [
    {
      "inputs": [
        {
          "internalType": "address",
          "name": "_target",
          "type": "address"
        }
      ],
      "name": "getRate",
      "outputs": [
        {
          "internalType": "uint16",
          "name": "",
          "type": "uint16"
        }
      ],
      "stateMutability": "view",
      "type": "function"
    },
    {
      "inputs": [
        {
          "internalType": "bytes32",
          "name": "_defendeeName",
          "type": "bytes32"
        }
      ],
      "name": "getRateDefendee",
      "outputs": [
        {
          "internalType": "uint16",
          "name": "",
          "type": "uint16"
        }
      ],
      "stateMutability": "view",
      "type": "function"
    },
    {
      "inputs": [
        {
          "internalType": "contract DetokToken",
          "name": "_token",
          "type": "address"
        }
      ],
      "name": "holdToken",
      "outputs": [],
      "stateMutability": "nonpayable",
      "type": "function"
    },
    {
      "inputs": [],
      "name": "token",
      "outputs": [
        {
          "internalType": "contract DetokToken",
          "name": "",
          "type": "address"
        }
      ],
      "stateMutability": "view",
      "type": "function"
    }
  ],
  "bytecode": "0x608060405234801561001057600080fd5b506102ae806100206000396000f3fe608060405234801561001057600080fd5b506004361061004c5760003560e01c806303b6576a1461005157806337cef79114610085578063dd7e6f90146100ab578063fc0c546a146100d3575b600080fd5b61006e6004803603602081101561006757600080fd5b50356100f7565b6040805161ffff9092168252519081900360200190f35b61006e6004803603602081101561009b57600080fd5b50356001600160a01b0316610175565b6100d1600480360360208110156100c157600080fd5b50356001600160a01b03166101c6565b005b6100db610231565b604080516001600160a01b039092168252519081900360200190f35b60035460408051631360636960e11b81526004810184905290516000926001600160a01b0316916326c0c6d2916024808301926020929190829003018186803b15801561014357600080fd5b505afa158015610157573d6000803e3d6000fd5b505050506040513d602081101561016d57600080fd5b505192915050565b600254604080516337cef79160e01b81526001600160a01b038481166004830152915160009392909216916337cef79191602480820192602092909190829003018186803b15801561014357600080fd5b6001546001600160a01b0316331461020f5760405162461bcd60e51b81526004018080602001828103825260388152602001806102416038913960400191505060405180910390fd5b600080546001600160a01b0319166001600160a01b0392909216919091179055565b6000546001600160a01b03168156fe546869732066756e6374696f6e2063616e206265206f6e6c7920657865637574656420627920636f6e747261637420646576656c6f706572a2646970667358221220ccc0d8007900dcb570938b6ff936560d5ec8b98377960f888256bc21b295660a64736f6c634300060a0033",
  "immutableReferences": {},
  "source": "// SPDX-License-Identifier: MIT\r\npragma solidity >=0.4.21 <0.7.0;\r\nimport '../TokenTaker.sol';\r\nimport '../rate/RateInspector.sol';\r\nimport '../rate/RateDefendee.sol';\r\nimport '../storeContract/ReportData.sol';\r\nimport \"../../node_modules/openzeppelin-solidity/contracts/math/SafeMath.sol\";\r\n/**\r\n *@title Compensate\r\n *@author Wanggyu, Suh\r\n *@notice Reward and compensate fee\r\n */\r\ncontract Compensate is TokenTaker, RateInspector, RateDefendee{\r\n    using Report for bytes32;\r\n    using SafeERC20 for DetokToken;\r\n    using SafeMath for uint256;\r\n    ReportData reportStorage;\r\n\r\n    function compensateReport(bytes32 meta, bytes32 _defendeeName) internal {\r\n        uint256 rewardAmount = defendeeStorage.getRewardAmount(_defendeeName);\r\n        require(reportStorage.getReportJudge(meta) == true, \"Try it only right judge!\");\r\n        require(token.balanceOf(msg.sender) >= rewardAmount, \"You need to charge\");\r\n\r\n        uint256 reporterReward = rewardAmount.div(2);\r\n        uint256 inspectorTotalReward = rewardAmount.sub(reporterReward);\r\n        uint256 totalRate = 0;\r\n        uint8 number = reportStorage.getNumberOfInspector(meta);\r\n        for (uint8 i = 0; i < number; i++) {\r\n            address target = reportStorage.getInspectorAddress(meta, i);\r\n            if(reportStorage.getInspectDecision(meta,target))\r\n                totalRate += getRate(target);\r\n        }\r\n        defendeeStorage.deposit(rewardAmount, msg.sender);\r\n        require(reportStorage.getReporterAddress(meta) != address(0),\"here!!!!!!\");\r\n        defendeeStorage.tokenTransfer(msg.sender, reportStorage.getReporterAddress(meta), reporterReward);\r\n        for (uint8 i = 0; i < number; i++) {\r\n            address target = reportStorage.getInspectorAddress(meta, i);\r\n            require(target != address(0),\"here!!!!!!\");\r\n            if (reportStorage.getInspectDecision(meta,target)) {\r\n                uint256 reward = inspectorTotalReward/totalRate * getRate(target);\r\n                defendeeStorage.tokenTransfer(msg.sender, target, reward);\r\n                increaseRate(target);\r\n            }\r\n        }\r\n        incrementRateDefendee(_defendeeName);\r\n    }\r\n\r\n    function compensateFee() internal {\r\n        require(!defendeeStorage.getCompensationIsEmpty(),\"No target of compensation\");\r\n        require(defendeeStorage.getAbleCopyrighters(msg.sender), \"Please Register your address first\");\r\n\r\n        /* Dequeue first for prevent redundant withdraw by Checks-Effects-Interactions*/\r\n        bytes32 meta = defendeeStorage.compenSationQueueDequeue();\r\n        uint8 i = 0;\r\n        uint8 number = reportStorage.getNumberOfInspector(meta);\r\n        uint256 reportfee = reportStorage.getReporterFee(meta);\r\n        if (address(this).balance > reportfee && reportStorage.getReportJudge(meta))\r\n            reportStorage.getReporterAddress(meta).transfer(reportfee);\r\n        for (i = 0; i < number; i++) {\r\n            if (!reportStorage.getInspect(meta)) {\r\n                address payable target = reportStorage.getInspectorAddress(meta, i);\r\n                uint256 usedGas = reportStorage.getInspectUsedFee(meta, i);\r\n                if (address(this).balance < usedGas) break;\r\n                if (reportStorage.getInspectDecision(meta, target) == false)\r\n                    target.transfer(usedGas);\r\n            } else {\r\n                address payable target = reportStorage.getInspectorAddress(meta, i);\r\n                uint256 usedGas = reportStorage.getInspectUsedFee(meta, i);\r\n                if (address(this).balance < usedGas) break;\r\n                if (reportStorage.getInspectDecision(meta, target) == reportStorage.getReportJudge(meta))\r\n                    target.transfer(usedGas);\r\n            }\r\n        }\r\n    }\r\n}",
  "sourcePath": "C:\\Users\\tjdhk\\OneDrive\\원격\\gitConnectProject\\tmpdetok\\core\\decentralized\\contracts\\compensate\\Compensate.sol",
  "compiler": {
    "name": "solc",
    "version": "0.6.10+commit.00c0fcaf.Emscripten.clang"
  },
  "schemaVersion": "3.2.1",
  "updatedAt": "2021-01-08T09:16:45.842Z",
  "devdoc": {
    "author": "Wanggyu, Suh",
    "methods": {},
    "title": "Compensate"
  },
  "userdoc": {
    "methods": {},
    "notice": "Reward and compensate fee"
  }
}