{
  "contractName": "DetokToken",
  "abi": [
    {
      "inputs": [],
      "stateMutability": "nonpayable",
      "type": "constructor"
    },
    {
      "anonymous": false,
      "inputs": [
        {
          "indexed": true,
          "internalType": "address",
          "name": "owner",
          "type": "address"
        },
        {
          "indexed": true,
          "internalType": "address",
          "name": "spender",
          "type": "address"
        },
        {
          "indexed": false,
          "internalType": "uint256",
          "name": "value",
          "type": "uint256"
        }
      ],
      "name": "Approval",
      "type": "event"
    },
    {
      "anonymous": false,
      "inputs": [
        {
          "indexed": false,
          "internalType": "address",
          "name": "account",
          "type": "address"
        }
      ],
      "name": "Paused",
      "type": "event"
    },
    {
      "anonymous": false,
      "inputs": [
        {
          "indexed": true,
          "internalType": "bytes32",
          "name": "role",
          "type": "bytes32"
        },
        {
          "indexed": true,
          "internalType": "bytes32",
          "name": "previousAdminRole",
          "type": "bytes32"
        },
        {
          "indexed": true,
          "internalType": "bytes32",
          "name": "newAdminRole",
          "type": "bytes32"
        }
      ],
      "name": "RoleAdminChanged",
      "type": "event"
    },
    {
      "anonymous": false,
      "inputs": [
        {
          "indexed": true,
          "internalType": "bytes32",
          "name": "role",
          "type": "bytes32"
        },
        {
          "indexed": true,
          "internalType": "address",
          "name": "account",
          "type": "address"
        },
        {
          "indexed": true,
          "internalType": "address",
          "name": "sender",
          "type": "address"
        }
      ],
      "name": "RoleGranted",
      "type": "event"
    },
    {
      "anonymous": false,
      "inputs": [
        {
          "indexed": true,
          "internalType": "bytes32",
          "name": "role",
          "type": "bytes32"
        },
        {
          "indexed": true,
          "internalType": "address",
          "name": "account",
          "type": "address"
        },
        {
          "indexed": true,
          "internalType": "address",
          "name": "sender",
          "type": "address"
        }
      ],
      "name": "RoleRevoked",
      "type": "event"
    },
    {
      "anonymous": false,
      "inputs": [
        {
          "indexed": true,
          "internalType": "address",
          "name": "from",
          "type": "address"
        },
        {
          "indexed": true,
          "internalType": "address",
          "name": "to",
          "type": "address"
        },
        {
          "indexed": false,
          "internalType": "uint256",
          "name": "value",
          "type": "uint256"
        }
      ],
      "name": "Transfer",
      "type": "event"
    },
    {
      "anonymous": false,
      "inputs": [
        {
          "indexed": false,
          "internalType": "address",
          "name": "account",
          "type": "address"
        }
      ],
      "name": "Unpaused",
      "type": "event"
    },
    {
      "inputs": [],
      "name": "DEFAULT_ADMIN_ROLE",
      "outputs": [
        {
          "internalType": "bytes32",
          "name": "",
          "type": "bytes32"
        }
      ],
      "stateMutability": "view",
      "type": "function",
      "constant": true
    },
    {
      "inputs": [],
      "name": "MINTER_ROLE",
      "outputs": [
        {
          "internalType": "bytes32",
          "name": "",
          "type": "bytes32"
        }
      ],
      "stateMutability": "view",
      "type": "function",
      "constant": true
    },
    {
      "inputs": [],
      "name": "PAUSER_ROLE",
      "outputs": [
        {
          "internalType": "bytes32",
          "name": "",
          "type": "bytes32"
        }
      ],
      "stateMutability": "view",
      "type": "function",
      "constant": true
    },
    {
      "inputs": [
        {
          "internalType": "address",
          "name": "owner",
          "type": "address"
        },
        {
          "internalType": "address",
          "name": "spender",
          "type": "address"
        }
      ],
      "name": "allowance",
      "outputs": [
        {
          "internalType": "uint256",
          "name": "",
          "type": "uint256"
        }
      ],
      "stateMutability": "view",
      "type": "function",
      "constant": true
    },
    {
      "inputs": [
        {
          "internalType": "address",
          "name": "spender",
          "type": "address"
        },
        {
          "internalType": "uint256",
          "name": "amount",
          "type": "uint256"
        }
      ],
      "name": "approve",
      "outputs": [
        {
          "internalType": "bool",
          "name": "",
          "type": "bool"
        }
      ],
      "stateMutability": "nonpayable",
      "type": "function"
    },
    {
      "inputs": [
        {
          "internalType": "address",
          "name": "account",
          "type": "address"
        }
      ],
      "name": "balanceOf",
      "outputs": [
        {
          "internalType": "uint256",
          "name": "",
          "type": "uint256"
        }
      ],
      "stateMutability": "view",
      "type": "function",
      "constant": true
    },
    {
      "inputs": [
        {
          "internalType": "uint256",
          "name": "amount",
          "type": "uint256"
        }
      ],
      "name": "burn",
      "outputs": [],
      "stateMutability": "nonpayable",
      "type": "function"
    },
    {
      "inputs": [
        {
          "internalType": "address",
          "name": "account",
          "type": "address"
        },
        {
          "internalType": "uint256",
          "name": "amount",
          "type": "uint256"
        }
      ],
      "name": "burnFrom",
      "outputs": [],
      "stateMutability": "nonpayable",
      "type": "function"
    },
    {
      "inputs": [],
      "name": "decimals",
      "outputs": [
        {
          "internalType": "uint8",
          "name": "",
          "type": "uint8"
        }
      ],
      "stateMutability": "view",
      "type": "function",
      "constant": true
    },
    {
      "inputs": [
        {
          "internalType": "address",
          "name": "spender",
          "type": "address"
        },
        {
          "internalType": "uint256",
          "name": "subtractedValue",
          "type": "uint256"
        }
      ],
      "name": "decreaseAllowance",
      "outputs": [
        {
          "internalType": "bool",
          "name": "",
          "type": "bool"
        }
      ],
      "stateMutability": "nonpayable",
      "type": "function"
    },
    {
      "inputs": [
        {
          "internalType": "bytes32",
          "name": "role",
          "type": "bytes32"
        }
      ],
      "name": "getRoleAdmin",
      "outputs": [
        {
          "internalType": "bytes32",
          "name": "",
          "type": "bytes32"
        }
      ],
      "stateMutability": "view",
      "type": "function",
      "constant": true
    },
    {
      "inputs": [
        {
          "internalType": "bytes32",
          "name": "role",
          "type": "bytes32"
        },
        {
          "internalType": "uint256",
          "name": "index",
          "type": "uint256"
        }
      ],
      "name": "getRoleMember",
      "outputs": [
        {
          "internalType": "address",
          "name": "",
          "type": "address"
        }
      ],
      "stateMutability": "view",
      "type": "function",
      "constant": true
    },
    {
      "inputs": [
        {
          "internalType": "bytes32",
          "name": "role",
          "type": "bytes32"
        }
      ],
      "name": "getRoleMemberCount",
      "outputs": [
        {
          "internalType": "uint256",
          "name": "",
          "type": "uint256"
        }
      ],
      "stateMutability": "view",
      "type": "function",
      "constant": true
    },
    {
      "inputs": [
        {
          "internalType": "bytes32",
          "name": "role",
          "type": "bytes32"
        },
        {
          "internalType": "address",
          "name": "account",
          "type": "address"
        }
      ],
      "name": "grantRole",
      "outputs": [],
      "stateMutability": "nonpayable",
      "type": "function"
    },
    {
      "inputs": [
        {
          "internalType": "bytes32",
          "name": "role",
          "type": "bytes32"
        },
        {
          "internalType": "address",
          "name": "account",
          "type": "address"
        }
      ],
      "name": "hasRole",
      "outputs": [
        {
          "internalType": "bool",
          "name": "",
          "type": "bool"
        }
      ],
      "stateMutability": "view",
      "type": "function",
      "constant": true
    },
    {
      "inputs": [
        {
          "internalType": "address",
          "name": "spender",
          "type": "address"
        },
        {
          "internalType": "uint256",
          "name": "addedValue",
          "type": "uint256"
        }
      ],
      "name": "increaseAllowance",
      "outputs": [
        {
          "internalType": "bool",
          "name": "",
          "type": "bool"
        }
      ],
      "stateMutability": "nonpayable",
      "type": "function"
    },
    {
      "inputs": [
        {
          "internalType": "address",
          "name": "to",
          "type": "address"
        },
        {
          "internalType": "uint256",
          "name": "amount",
          "type": "uint256"
        }
      ],
      "name": "mint",
      "outputs": [],
      "stateMutability": "nonpayable",
      "type": "function"
    },
    {
      "inputs": [],
      "name": "name",
      "outputs": [
        {
          "internalType": "string",
          "name": "",
          "type": "string"
        }
      ],
      "stateMutability": "view",
      "type": "function",
      "constant": true
    },
    {
      "inputs": [],
      "name": "pause",
      "outputs": [],
      "stateMutability": "nonpayable",
      "type": "function"
    },
    {
      "inputs": [],
      "name": "paused",
      "outputs": [
        {
          "internalType": "bool",
          "name": "",
          "type": "bool"
        }
      ],
      "stateMutability": "view",
      "type": "function",
      "constant": true
    },
    {
      "inputs": [
        {
          "internalType": "bytes32",
          "name": "role",
          "type": "bytes32"
        },
        {
          "internalType": "address",
          "name": "account",
          "type": "address"
        }
      ],
      "name": "renounceRole",
      "outputs": [],
      "stateMutability": "nonpayable",
      "type": "function"
    },
    {
      "inputs": [
        {
          "internalType": "bytes32",
          "name": "role",
          "type": "bytes32"
        },
        {
          "internalType": "address",
          "name": "account",
          "type": "address"
        }
      ],
      "name": "revokeRole",
      "outputs": [],
      "stateMutability": "nonpayable",
      "type": "function"
    },
    {
      "inputs": [],
      "name": "symbol",
      "outputs": [
        {
          "internalType": "string",
          "name": "",
          "type": "string"
        }
      ],
      "stateMutability": "view",
      "type": "function",
      "constant": true
    },
    {
      "inputs": [],
      "name": "totalSupply",
      "outputs": [
        {
          "internalType": "uint256",
          "name": "",
          "type": "uint256"
        }
      ],
      "stateMutability": "view",
      "type": "function",
      "constant": true
    },
    {
      "inputs": [
        {
          "internalType": "address",
          "name": "recipient",
          "type": "address"
        },
        {
          "internalType": "uint256",
          "name": "amount",
          "type": "uint256"
        }
      ],
      "name": "transfer",
      "outputs": [
        {
          "internalType": "bool",
          "name": "",
          "type": "bool"
        }
      ],
      "stateMutability": "nonpayable",
      "type": "function"
    },
    {
      "inputs": [
        {
          "internalType": "address",
          "name": "sender",
          "type": "address"
        },
        {
          "internalType": "address",
          "name": "recipient",
          "type": "address"
        },
        {
          "internalType": "uint256",
          "name": "amount",
          "type": "uint256"
        }
      ],
      "name": "transferFrom",
      "outputs": [
        {
          "internalType": "bool",
          "name": "",
          "type": "bool"
        }
      ],
      "stateMutability": "nonpayable",
      "type": "function"
    },
    {
      "inputs": [],
      "name": "unpause",
      "outputs": [],
      "stateMutability": "nonpayable",
      "type": "function"
    }
  ],
  "bytecode": "0x60806040523480156200001157600080fd5b5060408051808201825260058152644465746f6b60d81b60208083019182528351808501909452600384526244544b60e81b908401528151919291839183916200005e9160049162000491565b5080516200007490600590602084019062000491565b50506006805461ff001960ff1990911660121716905550620000b36000620000a46001600160e01b036200014d16565b6001600160e01b036200015216565b604080516a4d494e5445525f524f4c4560a81b8152905190819003600b019020620000eb90620000a46001600160e01b036200014d16565b604080516a5041555345525f524f4c4560a81b8152905190819003600b0190206200012390620000a46001600160e01b036200014d16565b50620001479050336b204fce5e3e250261100000006001600160e01b036200016b16565b62000533565b335b90565b6200016782826001600160e01b036200028716565b5050565b6001600160a01b038216620001c7576040805162461bcd60e51b815260206004820152601f60248201527f45524332303a206d696e7420746f20746865207a65726f206164647265737300604482015290519081900360640190fd5b620001de600083836001600160e01b036200030916565b620001fa816003546200032660201b62000c091790919060201c565b6003556001600160a01b0382166000908152600160209081526040909120546200022f91839062000c0962000326821b17901c565b6001600160a01b03831660008181526001602090815260408083209490945583518581529351929391927fddf252ad1be2c89b69c2b068fc378daa952ba7f163c4a11628f55a4df523b3ef9281900390910190a35050565b600082815260208181526040909120620002ac91839062000c636200038a821b17901c565b156200016757620002c56001600160e01b036200014d16565b6001600160a01b0316816001600160a01b0316837f2f8788117e7eff1d82e926ec794901d17c78024a50270940304540a733656f0d60405160405180910390a45050565b62000321838383620003aa60201b62000c781760201c565b505050565b60008282018381101562000381576040805162461bcd60e51b815260206004820152601b60248201527f536166654d6174683a206164646974696f6e206f766572666c6f770000000000604482015290519081900360640190fd5b90505b92915050565b600062000381836001600160a01b0384166001600160e01b036200041316565b620003c28383836200032160201b620009891760201c565b620003d56001600160e01b036200046b16565b15620003215760405162461bcd60e51b815260040180806020018281038252602a81526020018062001e46602a913960400191505060405180910390fd5b60006200042a83836001600160e01b036200047916565b620004625750815460018181018455600084815260208082209093018490558454848252828601909352604090209190915562000384565b50600062000384565b600654610100900460ff1690565b60009081526001919091016020526040902054151590565b828054600181600116156101000203166002900490600052602060002090601f016020900481019282601f10620004d457805160ff191683800117855562000504565b8280016001018555821562000504579182015b8281111562000504578251825591602001919060010190620004e7565b506200051292915062000516565b5090565b6200014f91905b808211156200051257600081556001016200051d565b61190380620005436000396000f3fe608060405234801561001057600080fd5b50600436106101a95760003560e01c806370a08231116100f9578063a457c2d711610097578063d539139311610071578063d53913931461051f578063d547741f14610527578063dd62ed3e14610553578063e63ab1e914610581576101a9565b8063a457c2d7146104aa578063a9059cbb146104d6578063ca15c87314610502576101a9565b80639010d07c116100d35780639010d07c1461042f57806391d148541461046e57806395d89b411461049a578063a217fddf146104a2576101a9565b806370a08231146103d557806379cc6790146103fb5780638456cb5914610427576101a9565b8063313ce567116101665780633f4ba83a116101405780633f4ba83a1461037c57806340c10f191461038457806342966c68146103b05780635c975abb146103cd576101a9565b8063313ce5671461030657806336568abe146103245780633950935114610350576101a9565b806306fdde03146101ae578063095ea7b31461022b57806318160ddd1461026b57806323b872dd14610285578063248a9ca3146102bb5780632f2ff15d146102d8575b600080fd5b6101b6610589565b6040805160208082528351818301528351919283929083019185019080838360005b838110156101f05781810151838201526020016101d8565b50505050905090810190601f16801561021d5780820380516001836020036101000a031916815260200191505b509250505060405180910390f35b6102576004803603604081101561024157600080fd5b506001600160a01b03813516906020013561061f565b604080519115158252519081900360200190f35b61027361063d565b60408051918252519081900360200190f35b6102576004803603606081101561029b57600080fd5b506001600160a01b03813581169160208101359091169060400135610643565b610273600480360360208110156102d157600080fd5b50356106d0565b610304600480360360408110156102ee57600080fd5b50803590602001356001600160a01b03166106e5565b005b61030e610751565b6040805160ff9092168252519081900360200190f35b6103046004803603604081101561033a57600080fd5b50803590602001356001600160a01b031661075a565b6102576004803603604081101561036657600080fd5b506001600160a01b0381351690602001356107bb565b61030461080f565b6103046004803603604081101561039a57600080fd5b506001600160a01b038135169060200135610880565b610304600480360360208110156103c657600080fd5b50356108f1565b610257610905565b610273600480360360208110156103eb57600080fd5b50356001600160a01b0316610913565b6103046004803603604081101561041157600080fd5b506001600160a01b03813516906020013561092e565b61030461098e565b6104526004803603604081101561044557600080fd5b50803590602001356109fd565b604080516001600160a01b039092168252519081900360200190f35b6102576004803603604081101561048457600080fd5b50803590602001356001600160a01b0316610a22565b6101b6610a40565b610273610aa1565b610257600480360360408110156104c057600080fd5b506001600160a01b038135169060200135610aa6565b610257600480360360408110156104ec57600080fd5b506001600160a01b038135169060200135610b14565b6102736004803603602081101561051857600080fd5b5035610b28565b610273610b3f565b6103046004803603604081101561053d57600080fd5b50803590602001356001600160a01b0316610b62565b6102736004803603604081101561056957600080fd5b506001600160a01b0381358116916020013516610bbb565b610273610be6565b60048054604080516020601f60026000196101006001881615020190951694909404938401819004810282018101909252828152606093909290918301828280156106155780601f106105ea57610100808354040283529160200191610615565b820191906000526020600020905b8154815290600101906020018083116105f857829003601f168201915b5050505050905090565b600061063361062c610cc7565b8484610ccb565b5060015b92915050565b60035490565b6000610650848484610db7565b6106c68461065c610cc7565b6106c18560405180606001604052806028815260200161172d602891396001600160a01b038a1660009081526002602052604081209061069a610cc7565b6001600160a01b03168152602081019190915260400160002054919063ffffffff610f2016565b610ccb565b5060019392505050565b60009081526020819052604090206002015490565b60008281526020819052604090206002015461070890610703610cc7565b610a22565b6107435760405162461bcd60e51b815260040180806020018281038252602f81526020018061162b602f913960400191505060405180910390fd5b61074d8282610fb7565b5050565b60065460ff1690565b610762610cc7565b6001600160a01b0316816001600160a01b0316146107b15760405162461bcd60e51b815260040180806020018281038252602f815260200180611875602f913960400191505060405180910390fd5b61074d8282611026565b60006106336107c8610cc7565b846106c185600260006107d9610cc7565b6001600160a01b03908116825260208083019390935260409182016000908120918c16815292529020549063ffffffff610c0916565b604080516a5041555345525f524f4c4560a81b8152905190819003600b01902061083b90610703610cc7565b6108765760405162461bcd60e51b815260040180806020018281038252603981526020018061167c6039913960400191505060405180910390fd5b61087e611095565b565b604080516a4d494e5445525f524f4c4560a81b8152905190819003600b0190206108ac90610703610cc7565b6108e75760405162461bcd60e51b81526004018080602001828103825260368152602001806117556036913960400191505060405180910390fd5b61074d8282611139565b6109026108fc610cc7565b82611237565b50565b600654610100900460ff1690565b6001600160a01b031660009081526001602052604090205490565b600061096b8260405180606001604052806024815260200161178b6024913961095e86610959610cc7565b610bbb565b919063ffffffff610f2016565b905061097f83610979610cc7565b83610ccb565b6109898383611237565b505050565b604080516a5041555345525f524f4c4560a81b8152905190819003600b0190206109ba90610703610cc7565b6109f55760405162461bcd60e51b81526004018080602001828103825260378152602001806118196037913960400191505060405180910390fd5b61087e61133f565b6000828152602081905260408120610a1b908363ffffffff6113c716565b9392505050565b6000828152602081905260408120610a1b908363ffffffff6113d316565b60058054604080516020601f60026000196101006001881615020190951694909404938401819004810282018101909252828152606093909290918301828280156106155780601f106105ea57610100808354040283529160200191610615565b600081565b6000610633610ab3610cc7565b846106c1856040518060600160405280602581526020016118506025913960026000610add610cc7565b6001600160a01b03908116825260208083019390935260409182016000908120918d1681529252902054919063ffffffff610f2016565b6000610633610b21610cc7565b8484610db7565b6000818152602081905260408120610637906113e8565b604080516a4d494e5445525f524f4c4560a81b8152905190819003600b01902081565b600082815260208190526040902060020154610b8090610703610cc7565b6107b15760405162461bcd60e51b81526004018080602001828103825260308152602001806116fd6030913960400191505060405180910390fd5b6001600160a01b03918216600090815260026020908152604080832093909416825291909152205490565b604080516a5041555345525f524f4c4560a81b8152905190819003600b01902081565b600082820183811015610a1b576040805162461bcd60e51b815260206004820152601b60248201527f536166654d6174683a206164646974696f6e206f766572666c6f770000000000604482015290519081900360640190fd5b6000610a1b836001600160a01b0384166113f3565b610c83838383610989565b610c8b610905565b156109895760405162461bcd60e51b815260040180806020018281038252602a8152602001806118a4602a913960400191505060405180910390fd5b3390565b6001600160a01b038316610d105760405162461bcd60e51b81526004018080602001828103825260248152602001806117f56024913960400191505060405180910390fd5b6001600160a01b038216610d555760405162461bcd60e51b81526004018080602001828103825260228152602001806116b56022913960400191505060405180910390fd5b6001600160a01b03808416600081815260026020908152604080832094871680845294825291829020859055815185815291517f8c5be1e5ebec7d5bd14f71427d1e84f3dd0314c0f7b2291e5b200ac8c7c3b9259281900390910190a3505050565b6001600160a01b038316610dfc5760405162461bcd60e51b81526004018080602001828103825260258152602001806117d06025913960400191505060405180910390fd5b6001600160a01b038216610e415760405162461bcd60e51b81526004018080602001828103825260238152602001806116086023913960400191505060405180910390fd5b610e4c83838361143d565b610e8f816040518060600160405280602681526020016116d7602691396001600160a01b038616600090815260016020526040902054919063ffffffff610f2016565b6001600160a01b038085166000908152600160205260408082209390935590841681522054610ec4908263ffffffff610c0916565b6001600160a01b0380841660008181526001602090815260409182902094909455805185815290519193928716927fddf252ad1be2c89b69c2b068fc378daa952ba7f163c4a11628f55a4df523b3ef92918290030190a3505050565b60008184841115610faf5760405162461bcd60e51b81526004018080602001828103825283818151815260200191508051906020019080838360005b83811015610f74578181015183820152602001610f5c565b50505050905090810190601f168015610fa15780820380516001836020036101000a031916815260200191505b509250505060405180910390fd5b505050900390565b6000828152602081905260409020610fd5908263ffffffff610c6316565b1561074d57610fe2610cc7565b6001600160a01b0316816001600160a01b0316837f2f8788117e7eff1d82e926ec794901d17c78024a50270940304540a733656f0d60405160405180910390a45050565b6000828152602081905260409020611044908263ffffffff61144816565b1561074d57611051610cc7565b6001600160a01b0316816001600160a01b0316837ff6391f5c32d9c69d2a47ea670b442974b53935d1edc7fd64eb21e047a839171b60405160405180910390a45050565b600654610100900460ff166110e8576040805162461bcd60e51b815260206004820152601460248201527314185d5cd8589b194e881b9bdd081c185d5cd95960621b604482015290519081900360640190fd5b6006805461ff00191690557f5db9ee0a495bf2e6ff9c91a7834c1ba4fdd244a5e8aa4e537bd38aeae4b073aa61111c610cc7565b604080516001600160a01b039092168252519081900360200190a1565b6001600160a01b038216611194576040805162461bcd60e51b815260206004820152601f60248201527f45524332303a206d696e7420746f20746865207a65726f206164647265737300604482015290519081900360640190fd5b6111a06000838361143d565b6003546111b3908263ffffffff610c0916565b6003556001600160a01b0382166000908152600160205260409020546111df908263ffffffff610c0916565b6001600160a01b03831660008181526001602090815260408083209490945583518581529351929391927fddf252ad1be2c89b69c2b068fc378daa952ba7f163c4a11628f55a4df523b3ef9281900390910190a35050565b6001600160a01b03821661127c5760405162461bcd60e51b81526004018080602001828103825260218152602001806117af6021913960400191505060405180910390fd5b6112888260008361143d565b6112cb8160405180606001604052806022815260200161165a602291396001600160a01b038516600090815260016020526040902054919063ffffffff610f2016565b6001600160a01b0383166000908152600160205260409020556003546112f7908263ffffffff61145d16565b6003556040805182815290516000916001600160a01b038516917fddf252ad1be2c89b69c2b068fc378daa952ba7f163c4a11628f55a4df523b3ef9181900360200190a35050565b600654610100900460ff161561138f576040805162461bcd60e51b815260206004820152601060248201526f14185d5cd8589b194e881c185d5cd95960821b604482015290519081900360640190fd5b6006805461ff0019166101001790557f62e78cea01bee320cd4e420270b5ea74000d11b0c9f74754ebdbfc544b05a25861111c610cc7565b6000610a1b838361149f565b6000610a1b836001600160a01b038416611503565b60006106378261151b565b60006113ff8383611503565b61143557508154600181810184556000848152602080822090930184905584548482528286019093526040902091909155610637565b506000610637565b610989838383610c78565b6000610a1b836001600160a01b03841661151f565b6000610a1b83836040518060400160405280601e81526020017f536166654d6174683a207375627472616374696f6e206f766572666c6f770000815250610f20565b815460009082106114e15760405162461bcd60e51b81526004018080602001828103825260228152602001806115e66022913960400191505060405180910390fd5b8260000182815481106114f057fe5b9060005260206000200154905092915050565b60009081526001919091016020526040902054151590565b5490565b600081815260018301602052604081205480156115db578354600019808301919081019060009087908390811061155257fe5b906000526020600020015490508087600001848154811061156f57fe5b60009182526020808320909101929092558281526001898101909252604090209084019055865487908061159f57fe5b60019003818190600052602060002001600090559055866001016000878152602001908152602001600020600090556001945050505050610637565b600091505061063756fe456e756d657261626c655365743a20696e646578206f7574206f6620626f756e647345524332303a207472616e7366657220746f20746865207a65726f2061646472657373416363657373436f6e74726f6c3a2073656e646572206d75737420626520616e2061646d696e20746f206772616e7445524332303a206275726e20616d6f756e7420657863656564732062616c616e636545524332305072657365744d696e7465725061757365723a206d75737420686176652070617573657220726f6c6520746f20756e706175736545524332303a20617070726f766520746f20746865207a65726f206164647265737345524332303a207472616e7366657220616d6f756e7420657863656564732062616c616e6365416363657373436f6e74726f6c3a2073656e646572206d75737420626520616e2061646d696e20746f207265766f6b6545524332303a207472616e7366657220616d6f756e74206578636565647320616c6c6f77616e636545524332305072657365744d696e7465725061757365723a206d7573742068617665206d696e74657220726f6c6520746f206d696e7445524332303a206275726e20616d6f756e74206578636565647320616c6c6f77616e636545524332303a206275726e2066726f6d20746865207a65726f206164647265737345524332303a207472616e736665722066726f6d20746865207a65726f206164647265737345524332303a20617070726f76652066726f6d20746865207a65726f206164647265737345524332305072657365744d696e7465725061757365723a206d75737420686176652070617573657220726f6c6520746f20706175736545524332303a2064656372656173656420616c6c6f77616e63652062656c6f77207a65726f416363657373436f6e74726f6c3a2063616e206f6e6c792072656e6f756e636520726f6c657320666f722073656c6645524332305061757361626c653a20746f6b656e207472616e73666572207768696c6520706175736564a264697066735822122094c03eb1ae94ea91d5a5a9cd2f18847257c6179f2add199885e14ddf11bbd0bb64736f6c634300060a003345524332305061757361626c653a20746f6b656e207472616e73666572207768696c6520706175736564",
  "immutableReferences": {},
  "source": "// SPDX-License-Identifier: MIT\npragma solidity >=0.4.21 <0.7.0;\n\nimport '../../node_modules/openzeppelin-solidity/contracts/presets/ERC20PresetMinterPauser.sol';\nimport '../../node_modules/openzeppelin-solidity/contracts/token/ERC20/ERC20.sol';\n\ncontract DetokToken is ERC20PresetMinterPauser{\n\n    constructor() public ERC20PresetMinterPauser(\"Detok\", \"DTK\") {\n        _mint(msg.sender, 10**28);\n    }\n}",
  "sourcePath": "/home/ubuntu/workspace/Detok/core/decentralized/contracts/token/DetokToken.sol",
  "compiler": {
    "name": "solc",
    "version": "0.6.10+commit.00c0fcaf.Emscripten.clang"
  },
  "schemaVersion": "3.3.4",
  "updatedAt": "2021-03-14T03:46:49.875Z",
  "networkType": "ethereum",
  "devdoc": {
    "methods": {
      "allowance(address,address)": {
        "details": "See {IERC20-allowance}."
      },
      "approve(address,uint256)": {
        "details": "See {IERC20-approve}. Requirements: - `spender` cannot be the zero address."
      },
      "balanceOf(address)": {
        "details": "See {IERC20-balanceOf}."
      },
      "burn(uint256)": {
        "details": "Destroys `amount` tokens from the caller. See {ERC20-_burn}."
      },
      "burnFrom(address,uint256)": {
        "details": "Destroys `amount` tokens from `account`, deducting from the caller's allowance. See {ERC20-_burn} and {ERC20-allowance}. Requirements: - the caller must have allowance for ``accounts``'s tokens of at least `amount`."
      },
      "decimals()": {
        "details": "Returns the number of decimals used to get its user representation. For example, if `decimals` equals `2`, a balance of `505` tokens should be displayed to a user as `5,05` (`505 / 10 ** 2`). Tokens usually opt for a value of 18, imitating the relationship between Ether and Wei. This is the value {ERC20} uses, unless {_setupDecimals} is called. NOTE: This information is only used for _display_ purposes: it in no way affects any of the arithmetic of the contract, including {IERC20-balanceOf} and {IERC20-transfer}."
      },
      "decreaseAllowance(address,uint256)": {
        "details": "Atomically decreases the allowance granted to `spender` by the caller. This is an alternative to {approve} that can be used as a mitigation for problems described in {IERC20-approve}. Emits an {Approval} event indicating the updated allowance. Requirements: - `spender` cannot be the zero address. - `spender` must have allowance for the caller of at least `subtractedValue`."
      },
      "getRoleAdmin(bytes32)": {
        "details": "Returns the admin role that controls `role`. See {grantRole} and {revokeRole}. To change a role's admin, use {_setRoleAdmin}."
      },
      "getRoleMember(bytes32,uint256)": {
        "details": "Returns one of the accounts that have `role`. `index` must be a value between 0 and {getRoleMemberCount}, non-inclusive. Role bearers are not sorted in any particular way, and their ordering may change at any point. WARNING: When using {getRoleMember} and {getRoleMemberCount}, make sure you perform all queries on the same block. See the following https://forum.openzeppelin.com/t/iterating-over-elements-on-enumerableset-in-openzeppelin-contracts/2296[forum post] for more information."
      },
      "getRoleMemberCount(bytes32)": {
        "details": "Returns the number of accounts that have `role`. Can be used together with {getRoleMember} to enumerate all bearers of a role."
      },
      "grantRole(bytes32,address)": {
        "details": "Grants `role` to `account`. If `account` had not been already granted `role`, emits a {RoleGranted} event. Requirements: - the caller must have ``role``'s admin role."
      },
      "hasRole(bytes32,address)": {
        "details": "Returns `true` if `account` has been granted `role`."
      },
      "increaseAllowance(address,uint256)": {
        "details": "Atomically increases the allowance granted to `spender` by the caller. This is an alternative to {approve} that can be used as a mitigation for problems described in {IERC20-approve}. Emits an {Approval} event indicating the updated allowance. Requirements: - `spender` cannot be the zero address."
      },
      "mint(address,uint256)": {
        "details": "Creates `amount` new tokens for `to`. See {ERC20-_mint}. Requirements: - the caller must have the `MINTER_ROLE`."
      },
      "name()": {
        "details": "Returns the name of the token."
      },
      "pause()": {
        "details": "Pauses all token transfers. See {ERC20Pausable} and {Pausable-_pause}. Requirements: - the caller must have the `PAUSER_ROLE`."
      },
      "paused()": {
        "details": "Returns true if the contract is paused, and false otherwise."
      },
      "renounceRole(bytes32,address)": {
        "details": "Revokes `role` from the calling account. Roles are often managed via {grantRole} and {revokeRole}: this function's purpose is to provide a mechanism for accounts to lose their privileges if they are compromised (such as when a trusted device is misplaced). If the calling account had been granted `role`, emits a {RoleRevoked} event. Requirements: - the caller must be `account`."
      },
      "revokeRole(bytes32,address)": {
        "details": "Revokes `role` from `account`. If `account` had been granted `role`, emits a {RoleRevoked} event. Requirements: - the caller must have ``role``'s admin role."
      },
      "symbol()": {
        "details": "Returns the symbol of the token, usually a shorter version of the name."
      },
      "totalSupply()": {
        "details": "See {IERC20-totalSupply}."
      },
      "transfer(address,uint256)": {
        "details": "See {IERC20-transfer}. Requirements: - `recipient` cannot be the zero address. - the caller must have a balance of at least `amount`."
      },
      "transferFrom(address,address,uint256)": {
        "details": "See {IERC20-transferFrom}. Emits an {Approval} event indicating the updated allowance. This is not required by the EIP. See the note at the beginning of {ERC20}; Requirements: - `sender` and `recipient` cannot be the zero address. - `sender` must have a balance of at least `amount`. - the caller must have allowance for ``sender``'s tokens of at least `amount`."
      },
      "unpause()": {
        "details": "Unpauses all token transfers. See {ERC20Pausable} and {Pausable-_unpause}. Requirements: - the caller must have the `PAUSER_ROLE`."
      }
    }
  },
  "userdoc": {
    "methods": {}
  }
}