{
  "contractName": "Queue",
  "abi": [
    {
      "inputs": [
        {
          "internalType": "address",
          "name": "data",
          "type": "address"
        }
      ],
      "stateMutability": "nonpayable",
      "type": "constructor"
    },
    {
      "inputs": [
        {
          "internalType": "bytes32",
          "name": "data",
          "type": "bytes32"
        }
      ],
      "name": "enqueue",
      "outputs": [],
      "stateMutability": "nonpayable",
      "type": "function"
    },
    {
      "inputs": [],
      "name": "dequeue",
      "outputs": [
        {
          "internalType": "bytes32",
          "name": "data",
          "type": "bytes32"
        }
      ],
      "stateMutability": "nonpayable",
      "type": "function"
    },
    {
      "inputs": [],
      "name": "isEmpty",
      "outputs": [
        {
          "internalType": "bool",
          "name": "",
          "type": "bool"
        }
      ],
      "stateMutability": "view",
      "type": "function"
    },
    {
      "inputs": [
        {
          "internalType": "uint256",
          "name": "n",
          "type": "uint256"
        }
      ],
      "name": "getNth",
      "outputs": [
        {
          "internalType": "bytes32",
          "name": "data",
          "type": "bytes32"
        }
      ],
      "stateMutability": "view",
      "type": "function"
    },
    {
      "inputs": [],
      "name": "length",
      "outputs": [
        {
          "internalType": "uint256",
          "name": "",
          "type": "uint256"
        }
      ],
      "stateMutability": "view",
      "type": "function"
    }
  ],
  "bytecode": "0x608060405260018055600060025534801561001957600080fd5b506040516103273803806103278339818101604052602081101561003c57600080fd5b50516001600160a01b03166000908152600360205260409020805460ff191660011790556102b88061006f6000396000f3fe608060405234801561001057600080fd5b50600436106100575760003560e01c80631f7b6d321461005c5780635c1b9e2c14610076578063681fe70c14610093578063957908d1146100af578063b4de3e23146100b7575b600080fd5b6100646100d6565b60408051918252519081900360200190f35b6100646004803603602081101561008c57600080fd5b50356100e3565b61009b610155565b604080519115158252519081900360200190f35b610064610174565b6100d4600480360360208110156100cd57600080fd5b5035610242565b005b6001805460025403015b90565b60008060018360015401039050600254811115610140576040805162461bcd60e51b8152602060048201526016602482015275139bdd08195b9bdd59da081d1a185d081d185c99d95d60521b604482015290519081900360640190fd5b60009081526020819052604090205492915050565b6000600154600254600101141561016e575060016100e0565b50600090565b3360009081526003602052604081205460ff1615156001146101dd576040805162461bcd60e51b815260206004820181905260248201527f4f6e6c7920616c6c6f77656420636f6e74726163742063616e20616363657373604482015290519081900360640190fd5b60015460025410156102205760405162461bcd60e51b815260040180806020018281038252602481526020018061025f6024913960400191505060405180910390fd5b5060018054600090815260208190526040812080549190558154820190915590565b600280546001019081905560009081526020819052604090205556fe446f6e27742074727920746f2064656c6574652066726f6d20656d707479207175657565a26469706673582212207a7f482fca5e916eb71b754689edaa4c304f6c1677bf4834e62db11f3cf7ea8264736f6c634300060a0033",
  "immutableReferences": {},
  "source": "// SPDX-License-Identifier: MIT\r\npragma solidity >=0.4.21 <0.7.0;\r\n\r\n/**\r\n *@title ObjStruct\r\n *@author Wanggyu, Suh\r\n *@notice For using compensate queue\r\n */\r\ncontract Queue {\r\n    mapping(uint256 => bytes32) queue;\r\n    uint256 first = 1;\r\n    uint256 last = 0;\r\n    mapping(address => bool) allowedAddress;\r\n\r\n    constructor(\r\n        address data\r\n    )\r\n        public\r\n    {\r\n        allowedAddress[data] = true;\r\n    }\r\n\r\n    modifier onlyAllowed(){\r\n        require(allowedAddress[msg.sender] == true,\"Only allowed contract can access\");\r\n        _;\r\n    }\r\n\r\n    function enqueue(bytes32 data) public {\r\n        last += 1;\r\n        queue[last] = data;\r\n    }\r\n\r\n    function dequeue() public onlyAllowed returns (bytes32 data){\r\n        require(last >= first, \"Don't try to delete from empty queue\");\r\n        data = queue[first];\r\n\r\n        delete queue[first];\r\n        first += 1;\r\n\r\n    }\r\n\r\n    function isEmpty() public view returns (bool){\r\n        if(last + 1 == first) return true;\r\n        return false;\r\n    }\r\n    \r\n    function getNth(uint256 n) public view returns (bytes32 data){\r\n        uint256 target = first + n - 1;\r\n        require(target <= last,\"Not enough that target\");\r\n        data = queue[target];\r\n    }\r\n\r\n    function length() public view returns (uint256){\r\n        return ((last+1) - first);\r\n    }\r\n}",
  "sourcePath": "C:\\Users\\tjdhk\\OneDrive\\원격\\gitConnectProject\\tmpdetok\\core\\decentralized\\contracts\\library\\Queue.sol",
  "compiler": {
    "name": "solc",
    "version": "0.6.10+commit.00c0fcaf.Emscripten.clang"
  },
  "schemaVersion": "3.2.1",
  "updatedAt": "2021-01-08T09:16:45.880Z",
  "devdoc": {
    "author": "Wanggyu, Suh",
    "methods": {},
    "title": "ObjStruct"
  },
  "userdoc": {
    "methods": {},
    "notice": "For using compensate queue"
  }
}