{
  "contractName": "RateDefendee",
  "abi": [
    {
      "inputs": [
        {
          "internalType": "bytes32",
          "name": "_defendeeName",
          "type": "bytes32"
        }
      ],
      "name": "getRateDefendee",
      "outputs": [
        {
          "internalType": "uint16",
          "name": "",
          "type": "uint16"
        }
      ],
      "stateMutability": "view",
      "type": "function"
    }
  ],
  "bytecode": "0x608060405234801561001057600080fd5b50610110806100206000396000f3fe6080604052348015600f57600080fd5b506004361060285760003560e01c806303b6576a14602d575b600080fd5b604760048036036020811015604157600080fd5b5035605e565b6040805161ffff9092168252519081900360200190f35b6000805460408051631360636960e11b81526004810185905290516001600160a01b03909216916326c0c6d291602480820192602092909190829003018186803b15801560aa57600080fd5b505afa15801560bd573d6000803e3d6000fd5b505050506040513d602081101560d257600080fd5b50519291505056fea26469706673582212203f55240548786d48b48b80543db86433bca4fa130a90f0f9785a44f0359250cb64736f6c634300060a0033",
  "immutableReferences": {},
  "source": "// SPDX-License-Identifier: MIT\npragma solidity >=0.4.21 <0.7.0;\nimport '../math/SafeMathuint.sol';\nimport '../storeContract/DefendeeData.sol';\n/**\n *@title RateDefendee\n *@author  Wanggyu, Suh\n *@notice Connector with rate database contract\n */\ncontract RateDefendee {\n    using SafeMathuint for uint16;\n    DefendeeData defendeeStorage;\n   \n    function getRateDefendee(bytes32 _defendeeName) public view returns (uint16) {\n        return defendeeStorage.getDefendeeRate(_defendeeName);\n    }\n\n    function incrementRateDefendee(bytes32 _defendeeName) internal {\n        defendeeStorage.setDefendeeRate(_defendeeName, true, msg.sender);\n    }\n\n    function decreaseRateDefendee(bytes32 _defendeeName) internal {\n        defendeeStorage.setDefendeeRate(_defendeeName, false, msg.sender);\n    }\n}",
  "sourcePath": "/home/ubuntu/detok/Detok/core/decentralized/contracts/rate/RateDefendee.sol",
  "compiler": {
    "name": "solc",
    "version": "0.6.10+commit.00c0fcaf.Emscripten.clang"
  },
  "schemaVersion": "3.3.4",
  "updatedAt": "2021-03-07T12:14:13.338Z",
  "devdoc": {
    "author": "Wanggyu, Suh",
    "methods": {},
    "title": "RateDefendee"
  },
  "userdoc": {
    "methods": {},
    "notice": "Connector with rate database contract"
  }
}