{
  "contractName": "RatePlatform",
  "abi": [
    {
      "inputs": [],
      "name": "MAX_RATE_INSPECT",
      "outputs": [
        {
          "internalType": "uint16",
          "name": "",
          "type": "uint16"
        }
      ],
      "stateMutability": "view",
      "type": "function"
    },
    {
      "inputs": [],
      "name": "MAX_RATE_PLATFORM",
      "outputs": [
        {
          "internalType": "uint16",
          "name": "",
          "type": "uint16"
        }
      ],
      "stateMutability": "view",
      "type": "function"
    },
    {
      "inputs": [],
      "name": "MIN_RATE_INSPECT",
      "outputs": [
        {
          "internalType": "uint16",
          "name": "",
          "type": "uint16"
        }
      ],
      "stateMutability": "view",
      "type": "function"
    },
    {
      "inputs": [],
      "name": "MIN_RATE_PLATFORM",
      "outputs": [
        {
          "internalType": "uint16",
          "name": "",
          "type": "uint16"
        }
      ],
      "stateMutability": "view",
      "type": "function"
    },
    {
      "inputs": [],
      "name": "token",
      "outputs": [
        {
          "internalType": "contract DefenderToken",
          "name": "",
          "type": "address"
        }
      ],
      "stateMutability": "view",
      "type": "function"
    },
    {
      "inputs": [],
      "name": "getRatePlat",
      "outputs": [
        {
          "internalType": "uint16",
          "name": "",
          "type": "uint16"
        }
      ],
      "stateMutability": "view",
      "type": "function"
    }
  ],
  "bytecode": "0x608060405234801561001057600080fd5b5061023a806100206000396000f3fe608060405234801561001057600080fd5b50600436106100625760003560e01c80630e0c67c014610067578063361a568f1461008d5780636376586f146100b35780637f187dc3146100d9578063aa53163e146100ff578063fc0c546a14610125575b600080fd5b61006f61016f565b604051808261ffff1661ffff16815260200191505060405180910390f35b6100956101c7565b604051808261ffff1661ffff16815260200191505060405180910390f35b6100bb6101cd565b604051808261ffff1661ffff16815260200191505060405180910390f35b6100e16101d3565b604051808261ffff1661ffff16815260200191505060405180910390f35b6101076101d9565b604051808261ffff1661ffff16815260200191505060405180910390f35b61012d6101df565b604051808273ffffffffffffffffffffffffffffffffffffffff1673ffffffffffffffffffffffffffffffffffffffff16815260200191505060405180910390f35b6000600260003373ffffffffffffffffffffffffffffffffffffffff1673ffffffffffffffffffffffffffffffffffffffff16815260200190815260200160002060020160009054906101000a900461ffff16905090565b61271081565b61ffff81565b61271081565b61ffff81565b6000809054906101000a900473ffffffffffffffffffffffffffffffffffffffff168156fea2646970667358221220ff4c88019426a41ca645b7ad92f6293869c2d4ec213283b799c840a91a1b887964736f6c634300060a0033",
  "immutableReferences": {},
  "source": "// SPDX-License-Identifier: MIT\r\npragma solidity >=0.4.21 <0.7.0;\r\nimport '../storeContract/DataStorage.sol';\r\nimport '../math/SafeMathuint.sol';\r\n\r\ncontract RatePlatform is DataStorage{\r\n    using SafeMathuint for uint16;\r\n\r\n    uint16 constant RATE_INTERVAL_PLATFORM = 100;\r\n    /* need to make overflow about rate */\r\n    function getRatePlat() public view returns (uint16) {\r\n        return platforms[msg.sender].rate;\r\n    }\r\n\r\n    function incrementRatePlat(address targetAddress) internal {\r\n        uint16 rate = platforms[targetAddress].rate;\r\n        uint16 c = rate + RATE_INTERVAL_PLATFORM;\r\n        if (c < rate)\r\n            platforms[targetAddress].rate = c;\r\n        else\r\n            platforms[targetAddress].rate = MAX_RATE_PLATFORM;\r\n    }\r\n\r\n    function decreaseRatePlat(address targetAddress) internal {\r\n        uint16 rate = inspectors[targetAddress].rate;\r\n        uint16 c = rate - RATE_INTERVAL_PLATFORM;\r\n\r\n        if (rate > c)\r\n            platforms[targetAddress].rate = c;\r\n        else\r\n            platforms[targetAddress].rate = 0;\r\n    }\r\n\r\n    function decideKeepRolePlat(address _target) internal returns (bool){\r\n        require(platforms[msg.sender].ablePlatform == true, \"Not registered Inspector\");\r\n        if (platforms[_target].rate <= MIN_RATE_PLATFORM) {\r\n            platforms[_target].ablePlatform = false;\r\n            return false;\r\n        }\r\n        return true;\r\n    }\r\n}",
  "sourcePath": "C:\\Users\\tjdhk\\OneDrive\\project\\CrowdReport\\contracts\\rate\\RatePlatform.sol",
  "compiler": {
    "name": "solc",
    "version": "0.6.10+commit.00c0fcaf.Emscripten.clang"
  },
  "schemaVersion": "3.2.1",
  "updatedAt": "2020-07-14T03:28:30.629Z",
  "devdoc": {
    "methods": {}
  },
  "userdoc": {
    "methods": {}
  }
}