{
  "contractName": "RateInspector",
  "abi": [
    {
      "inputs": [
        {
          "internalType": "address",
          "name": "_target",
          "type": "address"
        }
      ],
      "name": "getRate",
      "outputs": [
        {
          "internalType": "uint16",
          "name": "",
          "type": "uint16"
        }
      ],
      "stateMutability": "view",
      "type": "function"
    }
  ],
  "bytecode": "0x608060405234801561001057600080fd5b5061011a806100206000396000f3fe6080604052348015600f57600080fd5b506004361060285760003560e01c806337cef79114602d575b600080fd5b605060048036036020811015604157600080fd5b50356001600160a01b03166067565b6040805161ffff9092168252519081900360200190f35b60008054604080516337cef79160e01b81526001600160a01b038581166004830152915191909216916337cef791916024808301926020929190829003018186803b15801560b457600080fd5b505afa15801560c7573d6000803e3d6000fd5b505050506040513d602081101560dc57600080fd5b50519291505056fea2646970667358221220aaa3e22122374cbab01a5b5043a8e1242175432ed7e9c011b24938f727e9796f64736f6c634300060a0033",
  "immutableReferences": {},
  "source": "// SPDX-License-Identifier: MIT\n\npragma solidity >=0.4.21 <0.7.0;\n\nimport '../storeContract/InspectData.sol';\n/**\n *@title RateInspector\n *@author  Wanggyu, Suh\n *@notice Connector with rating database contract\n */\ncontract RateInspector {\n    InspectData inspertorStorage;\n    \n    function getRate(address _target) public view returns (uint16) {\n        return inspertorStorage.getRate(_target);\n    }\n\n    function increaseRate(address _targetAddress) internal {\n        inspertorStorage.setWinning(_targetAddress, true, false);\n    }\n\n    function decreaseRate(address _targetAddress) internal returns (bool) {\n        inspertorStorage.setWinning(_targetAddress, false, false);\n    }\n\n    function increaseRateForDenySecond(address _targetAddress) internal {\n        inspertorStorage.setWinning(_targetAddress, true, true);\n    }\n\n    function decreaseRateForDenySecond(address _targetAddress) internal {\n        inspertorStorage.setWinning(_targetAddress, false, true);\n    }\n}",
  "sourcePath": "/home/ubuntu/detok/Detok/core/decentralized/contracts/rate/RateInspector.sol",
  "compiler": {
    "name": "solc",
    "version": "0.6.10+commit.00c0fcaf.Emscripten.clang"
  },
  "schemaVersion": "3.3.4",
  "updatedAt": "2021-03-07T12:14:13.340Z",
  "devdoc": {
    "author": "Wanggyu, Suh",
    "methods": {},
    "title": "RateInspector"
  },
  "userdoc": {
    "methods": {},
    "notice": "Connector with rating database contract"
  }
}