{
  "contractName": "ReportData",
  "abi": [
    {
      "inputs": [
        {
          "internalType": "address",
          "name": "_noticeAddress",
          "type": "address"
        },
        {
          "internalType": "address",
          "name": "_inspectAddress",
          "type": "address"
        },
        {
          "internalType": "address",
          "name": "_judgeAddress",
          "type": "address"
        }
      ],
      "stateMutability": "nonpayable",
      "type": "constructor"
    },
    {
      "inputs": [
        {
          "internalType": "bytes32",
          "name": "",
          "type": "bytes32"
        }
      ],
      "name": "reports",
      "outputs": [
        {
          "internalType": "bytes",
          "name": "domain",
          "type": "bytes"
        },
        {
          "internalType": "bytes32",
          "name": "defendeeName",
          "type": "bytes32"
        },
        {
          "internalType": "uint16",
          "name": "inspectApprove",
          "type": "uint16"
        },
        {
          "internalType": "uint16",
          "name": "inspectDeny",
          "type": "uint16"
        },
        {
          "internalType": "bool",
          "name": "judge",
          "type": "bool"
        },
        {
          "internalType": "bool",
          "name": "inspect",
          "type": "bool"
        },
        {
          "internalType": "bool",
          "name": "disabled",
          "type": "bool"
        },
        {
          "internalType": "uint8",
          "name": "step",
          "type": "uint8"
        },
        {
          "internalType": "bytes32",
          "name": "ip",
          "type": "bytes32"
        },
        {
          "internalType": "address payable",
          "name": "reporterAddress",
          "type": "address"
        },
        {
          "internalType": "uint8",
          "name": "numberOfInspectors",
          "type": "uint8"
        },
        {
          "internalType": "uint256",
          "name": "reporterFee",
          "type": "uint256"
        }
      ],
      "stateMutability": "view",
      "type": "function",
      "constant": true
    },
    {
      "inputs": [
        {
          "internalType": "bytes",
          "name": "_domain",
          "type": "bytes"
        },
        {
          "internalType": "bytes32",
          "name": "_defendeeName",
          "type": "bytes32"
        }
      ],
      "name": "getMeta",
      "outputs": [
        {
          "internalType": "bytes32",
          "name": "",
          "type": "bytes32"
        }
      ],
      "stateMutability": "pure",
      "type": "function",
      "constant": true
    },
    {
      "inputs": [
        {
          "internalType": "bytes32",
          "name": "_meta",
          "type": "bytes32"
        }
      ],
      "name": "getIp",
      "outputs": [
        {
          "internalType": "bytes32",
          "name": "",
          "type": "bytes32"
        }
      ],
      "stateMutability": "view",
      "type": "function",
      "constant": true
    },
    {
      "inputs": [
        {
          "internalType": "bytes32",
          "name": "_meta",
          "type": "bytes32"
        }
      ],
      "name": "getReportDomain",
      "outputs": [
        {
          "internalType": "bytes",
          "name": "",
          "type": "bytes"
        }
      ],
      "stateMutability": "view",
      "type": "function",
      "constant": true
    },
    {
      "inputs": [
        {
          "internalType": "bytes32",
          "name": "_meta",
          "type": "bytes32"
        },
        {
          "internalType": "address",
          "name": "_target",
          "type": "address"
        }
      ],
      "name": "getInspectDecision",
      "outputs": [
        {
          "internalType": "bool",
          "name": "",
          "type": "bool"
        }
      ],
      "stateMutability": "view",
      "type": "function",
      "constant": true
    },
    {
      "inputs": [
        {
          "internalType": "bytes32",
          "name": "_meta",
          "type": "bytes32"
        },
        {
          "internalType": "uint8",
          "name": "_num",
          "type": "uint8"
        }
      ],
      "name": "getInspectorAddress",
      "outputs": [
        {
          "internalType": "address payable",
          "name": "",
          "type": "address"
        }
      ],
      "stateMutability": "view",
      "type": "function",
      "constant": true
    },
    {
      "inputs": [
        {
          "internalType": "bytes32",
          "name": "_meta",
          "type": "bytes32"
        }
      ],
      "name": "getNumberOfInspector",
      "outputs": [
        {
          "internalType": "uint8",
          "name": "",
          "type": "uint8"
        }
      ],
      "stateMutability": "view",
      "type": "function",
      "constant": true
    },
    {
      "inputs": [
        {
          "internalType": "bytes32",
          "name": "_meta",
          "type": "bytes32"
        }
      ],
      "name": "getReportJudge",
      "outputs": [
        {
          "internalType": "bool",
          "name": "",
          "type": "bool"
        }
      ],
      "stateMutability": "view",
      "type": "function",
      "constant": true
    },
    {
      "inputs": [
        {
          "internalType": "bytes32",
          "name": "_meta",
          "type": "bytes32"
        },
        {
          "internalType": "address",
          "name": "_target",
          "type": "address"
        }
      ],
      "name": "getReportCheckInspect",
      "outputs": [
        {
          "internalType": "bool",
          "name": "",
          "type": "bool"
        }
      ],
      "stateMutability": "view",
      "type": "function",
      "constant": true
    },
    {
      "inputs": [
        {
          "internalType": "bytes32",
          "name": "_meta",
          "type": "bytes32"
        }
      ],
      "name": "getReportDisabled",
      "outputs": [
        {
          "internalType": "bool",
          "name": "",
          "type": "bool"
        }
      ],
      "stateMutability": "view",
      "type": "function",
      "constant": true
    },
    {
      "inputs": [
        {
          "internalType": "bytes32",
          "name": "_meta",
          "type": "bytes32"
        }
      ],
      "name": "getReporterAddress",
      "outputs": [
        {
          "internalType": "address payable",
          "name": "",
          "type": "address"
        }
      ],
      "stateMutability": "view",
      "type": "function",
      "constant": true
    },
    {
      "inputs": [
        {
          "internalType": "bytes32",
          "name": "_meta",
          "type": "bytes32"
        },
        {
          "internalType": "uint8",
          "name": "_num",
          "type": "uint8"
        }
      ],
      "name": "getInspectUsedFee",
      "outputs": [
        {
          "internalType": "uint256",
          "name": "",
          "type": "uint256"
        }
      ],
      "stateMutability": "view",
      "type": "function",
      "constant": true
    },
    {
      "inputs": [
        {
          "internalType": "bytes32",
          "name": "_meta",
          "type": "bytes32"
        }
      ],
      "name": "getInspect",
      "outputs": [
        {
          "internalType": "bool",
          "name": "",
          "type": "bool"
        }
      ],
      "stateMutability": "view",
      "type": "function",
      "constant": true
    },
    {
      "inputs": [
        {
          "internalType": "bytes32",
          "name": "_meta",
          "type": "bytes32"
        }
      ],
      "name": "getStep",
      "outputs": [
        {
          "internalType": "uint8",
          "name": "",
          "type": "uint8"
        }
      ],
      "stateMutability": "view",
      "type": "function",
      "constant": true
    },
    {
      "inputs": [
        {
          "internalType": "bytes32",
          "name": "_meta",
          "type": "bytes32"
        }
      ],
      "name": "getReporterFee",
      "outputs": [
        {
          "internalType": "uint256",
          "name": "",
          "type": "uint256"
        }
      ],
      "stateMutability": "view",
      "type": "function",
      "constant": true
    },
    {
      "inputs": [
        {
          "internalType": "bytes32",
          "name": "_meta",
          "type": "bytes32"
        },
        {
          "internalType": "address",
          "name": "_target",
          "type": "address"
        }
      ],
      "name": "metaDataForOnce",
      "outputs": [
        {
          "internalType": "address",
          "name": "",
          "type": "address"
        },
        {
          "internalType": "bool",
          "name": "",
          "type": "bool"
        },
        {
          "internalType": "uint8",
          "name": "",
          "type": "uint8"
        }
      ],
      "stateMutability": "view",
      "type": "function",
      "constant": true
    },
    {
      "inputs": [
        {
          "internalType": "bytes",
          "name": "_domain",
          "type": "bytes"
        },
        {
          "internalType": "bytes32",
          "name": "_defendeeName",
          "type": "bytes32"
        },
        {
          "internalType": "address payable",
          "name": "_msgSender",
          "type": "address"
        },
        {
          "internalType": "bytes32",
          "name": "_ip",
          "type": "bytes32"
        }
      ],
      "name": "setReport",
      "outputs": [
        {
          "internalType": "bool",
          "name": "",
          "type": "bool"
        }
      ],
      "stateMutability": "nonpayable",
      "type": "function"
    },
    {
      "inputs": [
        {
          "internalType": "bytes32",
          "name": "_meta",
          "type": "bytes32"
        },
        {
          "internalType": "bool",
          "name": "_decision",
          "type": "bool"
        },
        {
          "internalType": "address payable",
          "name": "_msgSender",
          "type": "address"
        }
      ],
      "name": "setReportInspectCount",
      "outputs": [
        {
          "internalType": "uint16",
          "name": "",
          "type": "uint16"
        },
        {
          "internalType": "uint16",
          "name": "",
          "type": "uint16"
        }
      ],
      "stateMutability": "nonpayable",
      "type": "function"
    },
    {
      "inputs": [
        {
          "internalType": "bytes32",
          "name": "_meta",
          "type": "bytes32"
        },
        {
          "internalType": "uint256",
          "name": "_usedFee",
          "type": "uint256"
        }
      ],
      "name": "setReportInspectGas",
      "outputs": [],
      "stateMutability": "nonpayable",
      "type": "function"
    },
    {
      "inputs": [
        {
          "internalType": "bytes32",
          "name": "_meta",
          "type": "bytes32"
        },
        {
          "internalType": "bool",
          "name": "_decision",
          "type": "bool"
        }
      ],
      "name": "setReportJudge",
      "outputs": [],
      "stateMutability": "nonpayable",
      "type": "function"
    },
    {
      "inputs": [
        {
          "internalType": "bytes32",
          "name": "_meta",
          "type": "bytes32"
        },
        {
          "internalType": "bool",
          "name": "_decision",
          "type": "bool"
        }
      ],
      "name": "setInspect",
      "outputs": [],
      "stateMutability": "nonpayable",
      "type": "function"
    },
    {
      "inputs": [
        {
          "internalType": "bytes32",
          "name": "_meta",
          "type": "bytes32"
        },
        {
          "internalType": "uint256",
          "name": "_fee",
          "type": "uint256"
        }
      ],
      "name": "setReportFee",
      "outputs": [],
      "stateMutability": "nonpayable",
      "type": "function"
    }
  ],
  "bytecode": "0x608060405234801561001057600080fd5b506040516111f13803806111f183398101604081905261002f9161007e565b6001600160a01b039283166000908152600160208190526040808320805460ff1990811684179091559486168352808320805486168317905592909416815220805490911690911790556100e2565b600080600060608486031215610092578283fd5b835161009d816100ca565b60208501519093506100ae816100ca565b60408501519092506100bf816100ca565b809150509250925092565b6001600160a01b03811681146100df57600080fd5b50565b611100806100f16000396000f3fe608060405234801561001057600080fd5b50600436106101425760003560e01c80636fe2d361116100b8578063b874d09e1161007c578063b874d09e146102e9578063c1ffa891146102fc578063d624c1461461030f578063e987f01d14610331578063f90f833414610344578063fb381b251461035757610142565b80636fe2d361146102645780637ddf2f481461027757806394daf81f1461028a57806398125dfe1461029d578063b39c4897146102be57610142565b806335375a411161010a57806335375a41146101e557806335af5f8b146101f8578063392e9dad1461020b5780634a465c411461021e5780634f389fc4146102315780636c9bf1301461024457610142565b806305d7c2b8146101475780631b9d76581461015c5780631e0a7a271461018557806321deab24146101a557806334c89a66146101c5575b600080fd5b61015a610155366004610de2565b61036a565b005b61016f61016a366004610ed4565b6103db565b60405161017c9190610fca565b60405180910390f35b610198610193366004610e68565b610546565b60405161017c9190610f92565b6101b86101b3366004610d9b565b610573565b60405161017c9190610fde565b6101d86101d3366004610e68565b610612565b60405161017c9190610fd5565b61016f6101f3366004610db3565b610636565b61016f610206366004610db3565b610663565b6101d8610219366004610d9b565b610695565b6101d861022c366004610d9b565b6106aa565b61015a61023f366004610e47565b6106bf565b610257610252366004610d9b565b6106f1565b60405161017c9190611096565b61015a610272366004610de2565b610709565b61015a610285366004610e47565b6107a6565b6101d8610298366004610e91565b6107eb565b6102b06102ab366004610e06565b610804565b60405161017c929190611081565b6102d16102cc366004610d9b565b610944565b60405161017c9c9b9a99989796959493929190610ff1565b61016f6102f7366004610d9b565b610a51565b61016f61030a366004610d9b565b610a70565b61032261031d366004610db3565b610a8f565b60405161017c93929190610fa6565b61019861033f366004610d9b565b610ae2565b610257610352366004610d9b565b610b00565b61016f610365366004610d9b565b610b1f565b336000908152600160208190526040909120805460ff19169091179055600091825260208290526040909120600201805467030000000000000060ff60381b1960ff60301b199415156401000000000264ff00000000199093169290921793909316600160301b1716919091179055565b3360009081526001602081905260408220805460ff191690911790556000610409858763ffffffff610b3f16565b905061041786868686610bae565b60008281526020818152604090912082518051919261043b92849290910190610c1e565b506020820151600182015560408201516002820180546060850151608086015160a087015160c088015160e089015161ffff1990951661ffff9788161763ffff000019166201000097909416969096029290921764ff000000001916640100000000911515919091021765ff00000000001916600160281b911515919091021760ff60301b1916600160301b931515939093029290921760ff60381b1916600160381b60ff9384160217905561010083015160038301556101208301516004830180546001600160a01b0319166001600160a01b0390921691909117905561014083015160078301805460ff1916919092161790556101609091015160099091015550949350505050565b60008281526020818152604080832060ff851684526006019091529020546001600160a01b031692915050565b6000818152602081815260409182902080548351601f60026000196101006001861615020190931692909204918201849004840281018401909452808452606093928301828280156106065780601f106105db57610100808354040283529160200191610606565b820191906000526020600020905b8154815290600101906020018083116105e957829003601f168201915b50505050509050919050565b60008281526020818152604080832060ff8516845260080190915290205492915050565b6000828152602081815260408083206001600160a01b038516845260050190915290205460ff1692915050565b6000918252602082815260408084206001600160a01b0393909316845260059092019052902054610100900460ff1690565b60009081526020819052604090206009015490565b60009081526020819052604090206003015490565b336000908152600160208190526040909120805460ff1916909117905560009182526020829052604090912060090155565b60009081526020819052604090206007015460ff1690565b336000908152600160208190526040909120805460ff191690911790556000828152602081905260409020600201805465ff00000000001916600160281b83158015919091029190911760ff60301b1916600160301b820217909155610770576002610773565b60045b600092835260208390526040909220600201805460ff93909316600160381b0260ff60381b199093169290921790915550565b336000908152600160208181526040808420805460ff1916909317909255938252818452808220600781015460ff908116600019011683526008019093529190912055565b60006107fd828463ffffffff610b3f16565b9392505050565b336000908152600160208181526040808420805460ff19908116851790915587855284835281852060078101805460ff908116885260068301865284882080546001600160a01b0319166001600160a01b038b16908117909155855180870187528b15801582528189018a8152928b52600590950188529589209551865491519186169015151761ff001916610100911515919091021790945589875293869052835491821691831690940190911617905581906108e8576000858152602081905260409020600201805461ffff8082166001011661ffff1990911617905561091c565b60008581526020819052604090206002018054600161ffff62010000808404821692909201160263ffff0000199091161790555b5050506000918252506020819052604090206002015461ffff80821692620100009092041690565b6000602081815291815260409081902080548251601f6002600019610100600186161502019093169290920491820185900485028101850190935280835290928391908301828280156109d85780601f106109ad576101008083540402835291602001916109d8565b820191906000526020600020905b8154815290600101906020018083116109bb57829003601f168201915b505050600184015460028501546003860154600487015460078801546009909801549697939661ffff808516975062010000850416955060ff6401000000008504811695600160281b8604821695600160301b8104831695600160381b90910483169490936001600160a01b039091169291909116908c565b600090815260208190526040902060020154600160281b900460ff1690565b600090815260208190526040902060020154600160301b900460ff1690565b60008281526020818152604080832060048101546001600160a01b03868116865260058301855292852054878652949093526002015491169160ff610100909104811691600160381b9004169250925092565b6000908152602081905260409020600401546001600160a01b031690565b600090815260208190526040902060020154600160381b900460ff1690565b600090815260208190526040902060020154640100000000900460ff1690565b80516020820120604080518181526060818101835260009392909190602082018180368337505060408051602080825281830190925292935060609291508082018180368337505050602081810197885290519096209582019586525060408101919091525190922092915050565b610bb6610c9c565b50604080516101808101825294855260208501939093526000928401839052606084018390526080840183905260a0840183905260c08401839052600160e08501526101008401526001600160a01b0316610120830152610140820181905261016082015290565b828054600181600116156101000203166002900490600052602060002090601f016020900481019282601f10610c5f57805160ff1916838001178555610c8c565b82800160010185558215610c8c579182015b82811115610c8c578251825591602001919060010190610c71565b50610c98929150610d00565b5090565b6040805161018081018252606080825260006020830181905292820183905281018290526080810182905260a0810182905260c0810182905260e0810182905261010081018290526101208101829052610140810182905261016081019190915290565b610d1a91905b80821115610c985760008155600101610d06565b90565b600082601f830112610d2d578081fd5b813567ffffffffffffffff80821115610d44578283fd5b604051601f8301601f191681016020018281118282101715610d64578485fd5b604052828152925082848301602001861015610d7f57600080fd5b8260208601602083013760006020848301015250505092915050565b600060208284031215610dac578081fd5b5035919050565b60008060408385031215610dc5578081fd5b823591506020830135610dd7816110a4565b809150509250929050565b60008060408385031215610df4578182fd5b823591506020830135610dd7816110bc565b600080600060608486031215610e1a578081fd5b833592506020840135610e2c816110bc565b91506040840135610e3c816110a4565b809150509250925092565b60008060408385031215610e59578182fd5b50508035926020909101359150565b60008060408385031215610e7a578182fd5b82359150602083013560ff81168114610dd7578182fd5b60008060408385031215610ea3578182fd5b823567ffffffffffffffff811115610eb9578283fd5b610ec585828601610d1d565b95602094909401359450505050565b60008060008060808587031215610ee9578081fd5b843567ffffffffffffffff811115610eff578182fd5b610f0b87828801610d1d565b945050602085013592506040850135610f23816110a4565b9396929550929360600135925050565b6001600160a01b03169052565b60008151808452815b81811015610f6557602081850181015186830182015201610f49565b81811115610f765782602083870101525b50601f01601f19169290920160200192915050565b60ff169052565b6001600160a01b0391909116815260200190565b6001600160a01b03939093168352901515602083015260ff16604082015260600190565b901515815260200190565b90815260200190565b6000602082526107fd6020830184610f40565b6000610180825261100661018083018f610f40565b602083018e905261ffff8d811660408501528c1660608401528a1515608084015289151560a084015288151560c0840152905061104660e0830188610f8b565b8561010083015261105b610120830186610f33565b611069610140830185610f8b565b826101608301529d9c50505050505050505050505050565b61ffff92831681529116602082015260400190565b60ff91909116815260200190565b6001600160a01b03811681146110b957600080fd5b50565b80151581146110b957600080fdfea2646970667358221220f70b498512b9ff724a8b868055abd1bc7207299ad1a866cc7390605afa660e2464736f6c634300060a0033",
  "immutableReferences": {},
  "source": "// SPDX-License-Identifier: MIT\npragma solidity >=0.4.21 <0.7.0;\npragma experimental ABIEncoderV2;\n\nimport '../library/Report.sol';\nimport '../library/Queue.sol';\nimport '../library/ObjStruct.sol';\n/**\n *@title InspectData\n *@author  Wanggyu, Suh\n *@notice Save data about report\n */\ncontract ReportData{\n    using Report for bytes32;\n\n    mapping(bytes32 => Report.Link) public reports;\n    mapping(address => bool) allowedAddress;\n    constructor(address _noticeAddress, address _inspectAddress, address _judgeAddress) public{\n\n        allowedAddress[_noticeAddress] = true;\n        allowedAddress[_inspectAddress] = true;\n        allowedAddress[_judgeAddress] = true;\n    }\n\n    modifier onlyAllowed(){\n        require(allowedAddress[msg.sender] = true,\"Only allowed contract can access\");\n        _;\n    }\n\n    function getMeta(bytes memory _domain, bytes32 _defendeeName) public pure returns (bytes32){\n        return _defendeeName.makeMetaDataForLink(_domain);\n    }\n    /* Getter function */\n    function getIp(bytes32 _meta) public view returns (bytes32){\n        return reports[_meta].ip;\n    }\n    function getReportDomain(bytes32 _meta) public view returns (bytes memory){\n        return reports[_meta].domain;\n    }\n\n    function getInspectDecision(bytes32 _meta, address _target) public view returns (bool){\n        return reports[_meta].inspectDecisions[_target].decision;\n    }\n\n    function getInspectorAddress(bytes32 _meta, uint8 _num) public view returns (address payable){\n        return reports[_meta].listOfInspectors[_num];\n    }\n\n    function getNumberOfInspector(bytes32 _meta) public view returns (uint8){\n        return reports[_meta].numberOfInspectors;\n    }\n\n    function getReportJudge(bytes32 _meta) public view returns (bool) {\n        return reports[_meta].judge;\n    }\n\n    function getReportCheckInspect(bytes32 _meta, address _target) public view returns (bool) {\n        return reports[_meta].inspectDecisions[_target].checkInspect;\n    }\n\n    function getReportDisabled(bytes32 _meta) public view returns (bool) {\n        return reports[_meta].disabled;\n    }\n\n    function getReporterAddress(bytes32 _meta) public view returns (address payable) {\n        return reports[_meta].reporterAddress;\n    }\n\n    function getInspectUsedFee(bytes32 _meta, uint8 _num) public view returns (uint256) {\n        return reports[_meta].usedFee[_num];\n    }\n\n    function getInspect(bytes32 _meta) public view returns (bool) {\n        return reports[_meta].inspect;\n    }\n\n    function getStep(bytes32 _meta) public view returns (uint8) {\n        return reports[_meta].step;\n    }\n\n    function getReporterFee(bytes32 _meta) public view returns (uint256) {\n        return reports[_meta].reporterFee;\n    }\n\n    function metaDataForOnce(bytes32 _meta, address _target) public view returns (address ,bool, uint8){\n        return (reports[_meta].reporterAddress, reports[_meta].inspectDecisions[_target].checkInspect, reports[_meta].step);\n    }\n    /* Setter function */\n    function setReport(\n        bytes memory _domain,\n        bytes32 _defendeeName,\n        address payable _msgSender,\n        bytes32 _ip\n    )\n        public onlyAllowed\n        returns (bool)\n    {\n        bytes32 meta = _defendeeName.makeMetaDataForLink(_domain);\n        reports[meta] = Report.makeNewLink(_domain, _defendeeName, _msgSender, _ip);\n    }\n\n    function setReportInspectCount(bytes32 _meta, bool _decision, address payable _msgSender) public onlyAllowed returns (uint16, uint16){\n        reports[_meta].listOfInspectors[reports[_meta].numberOfInspectors] = _msgSender;\n        reports[_meta].inspectDecisions[_msgSender] = Report.InspectorsDecision(_decision, true);\n        reports[_meta].numberOfInspectors++;\n        if (_decision)\n            reports[_meta].inspectApprove++;\n        else\n            reports[_meta].inspectDeny++;\n\n        return (reports[_meta].inspectApprove, reports[_meta].inspectDeny);\n    }\n\n    function setReportInspectGas(bytes32 _meta, uint256 _usedFee) public onlyAllowed {\n        reports[_meta].usedFee[reports[_meta].numberOfInspectors - 1] = _usedFee;\n    }\n\n    function setReportJudge(bytes32 _meta, bool _decision) public onlyAllowed {\n        reports[_meta].judge = _decision;\n        reports[_meta].disabled = true;\n        reports[_meta].step = 3;\n    }\n\n    function setInspect(bytes32 _meta, bool _decision) public onlyAllowed {\n        reports[_meta].inspect = _decision;\n        reports[_meta].disabled = (!_decision);\n        reports[_meta].step = (!_decision? 4:2);\n    }\n\n    function setReportFee(bytes32 _meta, uint256 _fee) public onlyAllowed {\n        reports[_meta].reporterFee = _fee;\n    }\n}",
  "sourcePath": "/home/ubuntu/workspace/Detok/core/decentralized/contracts/storeContract/ReportData.sol",
  "compiler": {
    "name": "solc",
    "version": "0.6.10+commit.00c0fcaf.Emscripten.clang"
  },
  "schemaVersion": "3.3.4",
  "updatedAt": "2021-04-15T04:48:05.829Z",
  "networkType": "ethereum",
  "devdoc": {
    "author": "Wanggyu, Suh",
    "methods": {},
    "title": "InspectData"
  },
  "userdoc": {
    "methods": {},
    "notice": "Save data about report"
  }
}