{
  "contractName": "Test",
  "abi": [
    {
      "inputs": [],
      "stateMutability": "nonpayable",
      "type": "constructor"
    },
    {
      "anonymous": false,
      "inputs": [
        {
          "indexed": false,
          "internalType": "address",
          "name": "owner",
          "type": "address"
        },
        {
          "indexed": false,
          "internalType": "uint256",
          "name": "amount",
          "type": "uint256"
        }
      ],
      "name": "log",
      "type": "event"
    },
    {
      "inputs": [],
      "name": "abcbc",
      "outputs": [
        {
          "internalType": "uint32",
          "name": "",
          "type": "uint32"
        }
      ],
      "stateMutability": "view",
      "type": "function"
    },
    {
      "inputs": [],
      "name": "emitevent",
      "outputs": [],
      "stateMutability": "nonpayable",
      "type": "function"
    },
    {
      "inputs": [
        {
          "internalType": "uint256",
          "name": "amount",
          "type": "uint256"
        }
      ],
      "name": "deposit",
      "outputs": [],
      "stateMutability": "payable",
      "type": "function"
    },
    {
      "inputs": [],
      "name": "getevent",
      "outputs": [],
      "stateMutability": "payable",
      "type": "function"
    },
    {
      "inputs": [],
      "name": "getBalance",
      "outputs": [
        {
          "internalType": "uint256",
          "name": "",
          "type": "uint256"
        }
      ],
      "stateMutability": "nonpayable",
      "type": "function"
    }
  ],
  "bytecode": "0x608060405234801561001057600080fd5b5060156000806101000a81548163ffffffff021916908363ffffffff160217905550610282806100416000396000f3fe60806040526004361061004a5760003560e01c80630bb733e21461004f57806312065fe01461005957806327ae734c14610084578063a471a210146100bb578063b6b55f25146100d2575b600080fd5b610057610100565b005b34801561006557600080fd5b5061006e610149565b6040518082815260200191505060405180910390f35b34801561009057600080fd5b50610099610151565b604051808263ffffffff1663ffffffff16815260200191505060405180910390f35b3480156100c757600080fd5b506100d0610166565b005b6100fe600480360360208110156100e857600080fd5b81019080803590602001909291905050506101d4565b005b3373ffffffffffffffffffffffffffffffffffffffff166108fc479081150290604051600060405180830381858888f19350505050158015610146573d6000803e3d6000fd5b50565b600047905090565b6000809054906101000a900463ffffffff1681565b7f8309e8a8b132619bdb25dffa9d595ba1ecb7835540fd62622dad33018c4a0d3e33600a604051808373ffffffffffffffffffffffffffffffffffffffff1673ffffffffffffffffffffffffffffffffffffffff1681526020018281526020019250505060405180910390a1565b803414610249576040517f08c379a000000000000000000000000000000000000000000000000000000000815260040180806020018281038252600d8152602001807f77726f6e67206465706f7369740000000000000000000000000000000000000081525060200191505060405180910390fd5b5056fea264697066735822122047db69b143ffc6faff85aea73a52c2866692ee1ae32cbc678ac52098915999ab64736f6c634300060a0033",
  "immutableReferences": {},
  "source": "// SPDX-License-Identifier: MIT\r\npragma solidity >=0.4.21 <0.7.0;\r\n\r\ncontract Test{\r\n    uint32 public abcbc;\r\n\r\n    constructor() public{\r\n        abcbc = 21;\r\n    }\r\n\r\n    event log(\r\n        address owner,\r\n        uint amount\r\n    );\r\n\r\n    function emitevent() public{\r\n        emit log(msg.sender, 10);\r\n    }\r\n\r\n    function deposit(uint256 amount) payable public {\r\n        require(msg.value == amount, \"wrong deposit\");\r\n        // nothing else to do!\r\n    }\r\n\r\n    function getevent() public payable{\r\n        msg.sender.transfer(address(this).balance);\r\n    }\r\n\r\n    function getBalance() public returns (uint256){\r\n        return address(this).balance;\r\n    }\r\n}",
  "sourcePath": "C:/Users/mize159/Desktop/gitConnectProject/Defender/defender/contracts/Test.sol",
  "compiler": {
    "name": "solc",
    "version": "0.6.10+commit.00c0fcaf.Emscripten.clang"
  },
  "schemaVersion": "3.2.2",
  "updatedAt": "2020-07-26T13:39:46.587Z",
  "networkType": "ethereum",
  "devdoc": {
    "methods": {}
  },
  "userdoc": {
    "methods": {}
  }
}