{
  "contractName": "TokenTaker",
  "abi": [
    {
      "inputs": [],
      "name": "token",
      "outputs": [
        {
          "internalType": "contract DetokToken",
          "name": "",
          "type": "address"
        }
      ],
      "stateMutability": "view",
      "type": "function"
    },
    {
      "inputs": [
        {
          "internalType": "contract DetokToken",
          "name": "_token",
          "type": "address"
        }
      ],
      "name": "holdToken",
      "outputs": [],
      "stateMutability": "nonpayable",
      "type": "function"
    }
  ],
  "bytecode": "0x608060405234801561001057600080fd5b5061016f806100206000396000f3fe608060405234801561001057600080fd5b50600436106100365760003560e01c8063dd7e6f901461003b578063fc0c546a14610063575b600080fd5b6100616004803603602081101561005157600080fd5b50356001600160a01b0316610087565b005b61006b6100f2565b604080516001600160a01b039092168252519081900360200190f35b6001546001600160a01b031633146100d05760405162461bcd60e51b81526004018080602001828103825260388152602001806101026038913960400191505060405180910390fd5b600080546001600160a01b0319166001600160a01b0392909216919091179055565b6000546001600160a01b03168156fe546869732066756e6374696f6e2063616e206265206f6e6c7920657865637574656420627920636f6e747261637420646576656c6f706572a26469706673582212208e35382adde9b5535a5c6150712e50650cdbf9a6f5d3b6bbc3b1b752750db74964736f6c634300060a0033",
  "immutableReferences": {},
  "source": "// SPDX-License-Identifier: MIT\r\npragma solidity >=0.4.21 <0.7.0;\r\nimport \"../node_modules/openzeppelin-solidity/contracts/token/ERC20/SafeERC20.sol\";\r\nimport \"./token/DetokToken.sol\";\r\n/* \r\n    This is for the Contract that wants to be role of Ethereum wallet.\r\n\r\n */\r\ncontract TokenTaker {\r\n    using SafeERC20 for DetokToken;\r\n    DetokToken public token;\r\n    address developerAddress;\r\n    \r\n    /* TODO : It will be change by token holder voting */\r\n    modifier onlyDeveloper() {\r\n        require(developerAddress == msg.sender, \"This function can be only executed by contract developer\");\r\n        _;\r\n    }\r\n\r\n    function holdToken(DetokToken _token) public onlyDeveloper {\r\n        token = _token;\r\n    }\r\n}",
  "sourcePath": "C:\\Users\\tjdhk\\OneDrive\\원격\\gitConnectProject\\tmpdetok\\core\\decentralized\\contracts\\TokenTaker.sol",
  "compiler": {
    "name": "solc",
    "version": "0.6.10+commit.00c0fcaf.Emscripten.clang"
  },
  "schemaVersion": "3.2.1",
  "updatedAt": "2021-01-08T09:16:45.836Z",
  "devdoc": {
    "methods": {}
  },
  "userdoc": {
    "methods": {}
  }
}