{
  "contractName": "Wallet",
  "abi": [
    {
      "inputs": [
        {
          "internalType": "uint256",
          "name": "_amount",
          "type": "uint256"
        },
        {
          "internalType": "address",
          "name": "_target",
          "type": "address"
        }
      ],
      "name": "deposit",
      "outputs": [],
      "stateMutability": "nonpayable",
      "type": "function"
    },
    {
      "inputs": [
        {
          "internalType": "uint256",
          "name": "_amount",
          "type": "uint256"
        },
        {
          "internalType": "address",
          "name": "_target",
          "type": "address"
        }
      ],
      "name": "withdraw",
      "outputs": [],
      "stateMutability": "nonpayable",
      "type": "function"
    },
    {
      "inputs": [
        {
          "internalType": "address",
          "name": "_to",
          "type": "address"
        },
        {
          "internalType": "address",
          "name": "_target",
          "type": "address"
        },
        {
          "internalType": "uint256",
          "name": "_amount",
          "type": "uint256"
        }
      ],
      "name": "tokenTransfer",
      "outputs": [],
      "stateMutability": "nonpayable",
      "type": "function"
    },
    {
      "inputs": [
        {
          "internalType": "address",
          "name": "_target",
          "type": "address"
        }
      ],
      "name": "balanceOf",
      "outputs": [
        {
          "internalType": "uint256",
          "name": "",
          "type": "uint256"
        }
      ],
      "stateMutability": "view",
      "type": "function"
    }
  ],
  "bytecode": "0x608060405234801561001057600080fd5b50610844806100206000396000f3fe608060405234801561001057600080fd5b506004361061004b5760003560e01c8062f714ce1461005057806315eaef6b1461007e5780636e553f65146100b457806370a08231146100e0575b600080fd5b61007c6004803603604081101561006657600080fd5b50803590602001356001600160a01b0316610118565b005b61007c6004803603606081101561009457600080fd5b506001600160a01b038135811691602081013590911690604001356101ad565b61007c600480360360408110156100ca57600080fd5b50803590602001356001600160a01b0316610243565b610106600480360360208110156100f657600080fd5b50356001600160a01b031661033f565b60408051918252519081900360200190f35b3360009081526001602081905260409091205460ff16151514610182576040805162461bcd60e51b815260206004820181905260248201527f4f6e6c7920616c6c6f77656420636f6e74726163742063616e20616363657373604482015290519081900360640190fd5b61018c818361035e565b6000546101a9906001600160a01b0316828463ffffffff61046016565b5050565b3360009081526001602081905260409091205460ff16151514610217576040805162461bcd60e51b815260206004820181905260248201527f4f6e6c7920616c6c6f77656420636f6e74726163742063616e20616363657373604482015290519081900360640190fd5b610221838261035e565b60005461023e906001600160a01b0316838363ffffffff61046016565b505050565b3360009081526001602081905260409091205460ff161515146102ad576040805162461bcd60e51b815260206004820181905260248201527f4f6e6c7920616c6c6f77656420636f6e74726163742063616e20616363657373604482015290519081900360640190fd5b6001600160a01b03811660009081526002602052604090206001015460ff16610317576040805162461bcd60e51b81526020600482015260176024820152762cb7ba9030b932903737ba1021b7b83cb934b3b43a32b960491b604482015290519081900360640190fd5b600054610335906001600160a01b031682308563ffffffff6104b216565b6101a98183610512565b6001600160a01b03166000908152600260208190526040909120015490565b6001600160a01b03821660009081526002602052604090206001015460ff166103c8576040805162461bcd60e51b81526020600482015260176024820152762cb7ba9030b932903737ba1021b7b83cb934b3b43a32b960491b604482015290519081900360640190fd5b6001600160a01b03821660009081526002602081905260409091200154811115610439576040805162461bcd60e51b815260206004820152601c60248201527f596f752063616e277420776974686472617720746865206d6f6e657900000000604482015290519081900360640190fd5b6001600160a01b039091166000908152600260208190526040909120018054919091039055565b604080516001600160a01b038416602482015260448082018490528251808303909101815260649091019091526020810180516001600160e01b031663a9059cbb60e01b17905261023e908490610538565b604080516001600160a01b0380861660248301528416604482015260648082018490528251808303909101815260849091019091526020810180516001600160e01b03166323b872dd60e01b17905261050c908590610538565b50505050565b6001600160a01b0390911660009081526002602081905260409091200180549091019055565b606061058d826040518060400160405280602081526020017f5361666545524332303a206c6f772d6c6576656c2063616c6c206661696c6564815250856001600160a01b03166105e99092919063ffffffff16565b80519091501561023e578080602001905160208110156105ac57600080fd5b505161023e5760405162461bcd60e51b815260040180806020018281038252602a8152602001806107e5602a913960400191505060405180910390fd5b60606105f88484600085610600565b949350505050565b606061060b856107ab565b61065c576040805162461bcd60e51b815260206004820152601d60248201527f416464726573733a2063616c6c20746f206e6f6e2d636f6e7472616374000000604482015290519081900360640190fd5b60006060866001600160a01b031685876040518082805190602001908083835b6020831061069b5780518252601f19909201916020918201910161067c565b6001836020036101000a03801982511681845116808217855250505050505090500191505060006040518083038185875af1925050503d80600081146106fd576040519150601f19603f3d011682016040523d82523d6000602084013e610702565b606091505b509150915081156107165791506105f89050565b8051156107265780518082602001fd5b8360405162461bcd60e51b81526004018080602001828103825283818151815260200191508051906020019080838360005b83811015610770578181015183820152602001610758565b50505050905090810190601f16801561079d5780820380516001836020036101000a031916815260200191505b509250505060405180910390fd5b6000813f7fc5d2460186f7233c927e7db2dcc703c0e500b653ca82273b7bfad8045d85a4708181148015906105f857505015159291505056fe5361666545524332303a204552433230206f7065726174696f6e20646964206e6f742073756363656564a264697066735822122028d981bb843304fb68e293462377dee7fd68ebfe856c780fe8854e2a5e1f4dd164736f6c634300060a0033",
  "immutableReferences": {},
  "source": "// SPDX-License-Identifier: MIT\npragma solidity >=0.4.21 <0.7.0;\nimport '../token/DetokToken.sol';\nimport '../library/ObjStruct.sol';\nimport \"../../node_modules/openzeppelin-solidity/contracts/token/ERC20/SafeERC20.sol\";\n\n/* @title Wallet\n * @author Wanggyu, suh\n * Contract wallet\n */\ncontract Wallet {\n    DetokToken token;\n    mapping(address => bool) allowedAddress;\n    mapping(address => ObjStruct.Copyrighter) copyrighters;\n    using SafeERC20 for DetokToken;\n    modifier onlyAllowed(){\n        require(allowedAddress[msg.sender] == true,\"Only allowed contract can access\");\n        _;\n    }\n    /* TODO : ether 등록비를 이쪽으로 받을것 */\n    /*\n    fallback() external payable {\n\n    }\n\n    function payEther(address[10] memory _target, uint256 amount) public {\n\n    }\n    */\n    function deposit(uint256 _amount, address _target) public onlyAllowed {\n        require(copyrighters[_target].ableCopyrighter, \"You are not Copyrighter\");\n        token.safeTransferFrom(_target, address(this), _amount);\n        increaseBalance(_target, _amount);\n    }\n\n    function withdraw(uint256 _amount, address _target) public onlyAllowed {\n        decreaseBalance(_target, _amount);\n        token.safeTransfer(_target, _amount);\n    }\n\n    function tokenTransfer(address _to, address _target, uint256 _amount) public onlyAllowed {\n        decreaseBalance(_to, _amount);\n        token.safeTransfer(_target, _amount);\n    }\n\n    function increaseBalance(address _target, uint256 _amount) private {\n        copyrighters[_target].balance += _amount;\n    }\n\n    function decreaseBalance(address _target, uint256 _amount) private {\n        require(copyrighters[_target].ableCopyrighter, \"You are not Copyrighter\");\n        require(copyrighters[_target].balance >= _amount, \"You can't withdraw the money\");\n        copyrighters[_target].balance -= _amount;\n    }\n\n    function balanceOf(address _target) public view returns (uint256) {\n        return copyrighters[_target].balance;\n    }\n}",
  "sourcePath": "/home/ubuntu/workspace/Detok/core/decentralized/contracts/wallet/Wallet.sol",
  "compiler": {
    "name": "solc",
    "version": "0.6.10+commit.00c0fcaf.Emscripten.clang"
  },
  "schemaVersion": "3.3.4",
  "updatedAt": "2021-04-15T05:40:21.355Z",
  "devdoc": {
    "methods": {}
  },
  "userdoc": {
    "methods": {}
  }
}