{
  "contractName": "DefendeeData",
  "abi": [
    {
      "inputs": [
        {
          "internalType": "address",
          "name": "_noticeAddress",
          "type": "address"
        },
        {
          "internalType": "address",
          "name": "_inspectAddress",
          "type": "address"
        },
        {
          "internalType": "address",
          "name": "_judgeAddress",
          "type": "address"
        },
        {
          "internalType": "contract DetokToken",
          "name": "_token",
          "type": "address"
        }
      ],
      "stateMutability": "nonpayable",
      "type": "constructor"
    },
    {
      "inputs": [],
      "name": "MAX_RATE_DEFENDEE",
      "outputs": [
        {
          "internalType": "uint16",
          "name": "",
          "type": "uint16"
        }
      ],
      "stateMutability": "view",
      "type": "function",
      "constant": true
    },
    {
      "inputs": [],
      "name": "MIN_RATE_DEFENDEE",
      "outputs": [
        {
          "internalType": "uint16",
          "name": "",
          "type": "uint16"
        }
      ],
      "stateMutability": "view",
      "type": "function",
      "constant": true
    },
    {
      "inputs": [],
      "name": "START_RATE_DEFENDEE",
      "outputs": [
        {
          "internalType": "uint16",
          "name": "",
          "type": "uint16"
        }
      ],
      "stateMutability": "view",
      "type": "function",
      "constant": true
    },
    {
      "inputs": [
        {
          "internalType": "address",
          "name": "_target",
          "type": "address"
        }
      ],
      "name": "balanceOf",
      "outputs": [
        {
          "internalType": "uint256",
          "name": "",
          "type": "uint256"
        }
      ],
      "stateMutability": "view",
      "type": "function",
      "constant": true
    },
    {
      "inputs": [
        {
          "internalType": "bytes32",
          "name": "",
          "type": "bytes32"
        }
      ],
      "name": "defendees",
      "outputs": [
        {
          "internalType": "address payable",
          "name": "rightOwnerAddress",
          "type": "address"
        },
        {
          "internalType": "bytes32",
          "name": "name",
          "type": "bytes32"
        },
        {
          "internalType": "bool",
          "name": "ableNotify",
          "type": "bool"
        },
        {
          "internalType": "uint256",
          "name": "pendingEth",
          "type": "uint256"
        },
        {
          "internalType": "uint256",
          "name": "rewardAmount",
          "type": "uint256"
        },
        {
          "internalType": "uint8",
          "name": "inspectCount",
          "type": "uint8"
        },
        {
          "internalType": "uint8",
          "name": "mode",
          "type": "uint8"
        },
        {
          "internalType": "uint16",
          "name": "rate",
          "type": "uint16"
        },
        {
          "internalType": "uint16",
          "name": "unJudged",
          "type": "uint16"
        }
      ],
      "stateMutability": "view",
      "type": "function",
      "constant": true
    },
    {
      "inputs": [
        {
          "internalType": "uint256",
          "name": "_amount",
          "type": "uint256"
        },
        {
          "internalType": "address",
          "name": "_target",
          "type": "address"
        }
      ],
      "name": "deposit",
      "outputs": [],
      "stateMutability": "nonpayable",
      "type": "function"
    },
    {
      "inputs": [
        {
          "internalType": "address",
          "name": "_to",
          "type": "address"
        },
        {
          "internalType": "address",
          "name": "_target",
          "type": "address"
        },
        {
          "internalType": "uint256",
          "name": "_amount",
          "type": "uint256"
        }
      ],
      "name": "tokenTransfer",
      "outputs": [],
      "stateMutability": "nonpayable",
      "type": "function"
    },
    {
      "inputs": [
        {
          "internalType": "uint256",
          "name": "_amount",
          "type": "uint256"
        },
        {
          "internalType": "address",
          "name": "_target",
          "type": "address"
        }
      ],
      "name": "withdraw",
      "outputs": [],
      "stateMutability": "nonpayable",
      "type": "function"
    },
    {
      "inputs": [
        {
          "internalType": "address",
          "name": "_target",
          "type": "address"
        }
      ],
      "name": "getAbleCopyrighters",
      "outputs": [
        {
          "internalType": "bool",
          "name": "",
          "type": "bool"
        }
      ],
      "stateMutability": "view",
      "type": "function",
      "constant": true
    },
    {
      "inputs": [],
      "name": "getCompensationIsEmpty",
      "outputs": [
        {
          "internalType": "bool",
          "name": "",
          "type": "bool"
        }
      ],
      "stateMutability": "view",
      "type": "function",
      "constant": true
    },
    {
      "inputs": [
        {
          "internalType": "bytes32",
          "name": "_defendeeName",
          "type": "bytes32"
        }
      ],
      "name": "getDefendeeAble",
      "outputs": [
        {
          "internalType": "bool",
          "name": "",
          "type": "bool"
        }
      ],
      "stateMutability": "view",
      "type": "function",
      "constant": true
    },
    {
      "inputs": [
        {
          "internalType": "bytes32",
          "name": "_defendeeName",
          "type": "bytes32"
        }
      ],
      "name": "getDefendeeOwnerAddress",
      "outputs": [
        {
          "internalType": "address",
          "name": "",
          "type": "address"
        }
      ],
      "stateMutability": "view",
      "type": "function",
      "constant": true
    },
    {
      "inputs": [
        {
          "internalType": "bytes32",
          "name": "_defendeeName",
          "type": "bytes32"
        }
      ],
      "name": "getRewardAmount",
      "outputs": [
        {
          "internalType": "uint256",
          "name": "",
          "type": "uint256"
        }
      ],
      "stateMutability": "view",
      "type": "function",
      "constant": true
    },
    {
      "inputs": [
        {
          "internalType": "bytes32",
          "name": "_defendeeName",
          "type": "bytes32"
        }
      ],
      "name": "getMode",
      "outputs": [
        {
          "internalType": "uint8",
          "name": "",
          "type": "uint8"
        }
      ],
      "stateMutability": "view",
      "type": "function",
      "constant": true
    },
    {
      "inputs": [
        {
          "internalType": "bytes32",
          "name": "_defendeeName",
          "type": "bytes32"
        },
        {
          "internalType": "bytes32",
          "name": "_ip",
          "type": "bytes32"
        }
      ],
      "name": "checkWhiteList",
      "outputs": [
        {
          "internalType": "bool",
          "name": "",
          "type": "bool"
        }
      ],
      "stateMutability": "view",
      "type": "function",
      "constant": true
    },
    {
      "inputs": [
        {
          "internalType": "bytes32",
          "name": "_defendeeName",
          "type": "bytes32"
        }
      ],
      "name": "getInspectCount",
      "outputs": [
        {
          "internalType": "uint8",
          "name": "",
          "type": "uint8"
        }
      ],
      "stateMutability": "view",
      "type": "function",
      "constant": true
    },
    {
      "inputs": [
        {
          "internalType": "bytes32",
          "name": "_defendeeName",
          "type": "bytes32"
        }
      ],
      "name": "getDefendeeRate",
      "outputs": [
        {
          "internalType": "uint16",
          "name": "",
          "type": "uint16"
        }
      ],
      "stateMutability": "view",
      "type": "function",
      "constant": true
    },
    {
      "inputs": [
        {
          "internalType": "bytes32",
          "name": "_defendeeName",
          "type": "bytes32"
        }
      ],
      "name": "getUnjudged",
      "outputs": [
        {
          "internalType": "uint16",
          "name": "",
          "type": "uint16"
        }
      ],
      "stateMutability": "view",
      "type": "function",
      "constant": true
    },
    {
      "inputs": [
        {
          "internalType": "bytes32",
          "name": "_meta",
          "type": "bytes32"
        }
      ],
      "name": "compenSationQueueEnqueue",
      "outputs": [],
      "stateMutability": "nonpayable",
      "type": "function"
    },
    {
      "inputs": [],
      "name": "compenSationQueueDequeue",
      "outputs": [
        {
          "internalType": "bytes32",
          "name": "",
          "type": "bytes32"
        }
      ],
      "stateMutability": "nonpayable",
      "type": "function"
    },
    {
      "inputs": [
        {
          "internalType": "bytes32",
          "name": "_defendeeName",
          "type": "bytes32"
        },
        {
          "internalType": "address",
          "name": "_target",
          "type": "address"
        },
        {
          "internalType": "uint8",
          "name": "_mode",
          "type": "uint8"
        }
      ],
      "name": "changeMode",
      "outputs": [],
      "stateMutability": "nonpayable",
      "type": "function"
    },
    {
      "inputs": [
        {
          "internalType": "address",
          "name": "_target",
          "type": "address"
        },
        {
          "internalType": "bytes32",
          "name": "_name",
          "type": "bytes32"
        }
      ],
      "name": "setCopyrighter",
      "outputs": [],
      "stateMutability": "nonpayable",
      "type": "function"
    },
    {
      "inputs": [
        {
          "internalType": "address payable",
          "name": "_rightOwnerAddress",
          "type": "address"
        },
        {
          "internalType": "bytes32",
          "name": "_name",
          "type": "bytes32"
        },
        {
          "internalType": "uint256",
          "name": "_pendingEth",
          "type": "uint256"
        },
        {
          "internalType": "uint256",
          "name": "_rewardAmount",
          "type": "uint256"
        },
        {
          "internalType": "uint8",
          "name": "_inspectCount",
          "type": "uint8"
        }
      ],
      "name": "setDefendee",
      "outputs": [],
      "stateMutability": "nonpayable",
      "type": "function"
    },
    {
      "inputs": [
        {
          "internalType": "bytes32",
          "name": "_defendeeName",
          "type": "bytes32"
        },
        {
          "internalType": "address",
          "name": "_target",
          "type": "address"
        }
      ],
      "name": "deleteDefendee",
      "outputs": [
        {
          "internalType": "bool",
          "name": "",
          "type": "bool"
        }
      ],
      "stateMutability": "nonpayable",
      "type": "function"
    },
    {
      "inputs": [
        {
          "internalType": "bytes32",
          "name": "_ip",
          "type": "bytes32"
        },
        {
          "internalType": "bytes32",
          "name": "_defendeeName",
          "type": "bytes32"
        }
      ],
      "name": "addIPToBlackList",
      "outputs": [],
      "stateMutability": "nonpayable",
      "type": "function"
    },
    {
      "inputs": [
        {
          "internalType": "bytes32",
          "name": "_ip",
          "type": "bytes32"
        },
        {
          "internalType": "bytes32",
          "name": "_defendeeName",
          "type": "bytes32"
        },
        {
          "internalType": "address",
          "name": "_target",
          "type": "address"
        }
      ],
      "name": "addIPtoWhiteList",
      "outputs": [],
      "stateMutability": "nonpayable",
      "type": "function"
    },
    {
      "inputs": [
        {
          "internalType": "bytes32",
          "name": "_ip",
          "type": "bytes32"
        },
        {
          "internalType": "bytes32",
          "name": "_defendeeName",
          "type": "bytes32"
        }
      ],
      "name": "checkBlackList",
      "outputs": [
        {
          "internalType": "bool",
          "name": "",
          "type": "bool"
        }
      ],
      "stateMutability": "view",
      "type": "function",
      "constant": true
    },
    {
      "inputs": [
        {
          "internalType": "bytes32",
          "name": "_ip",
          "type": "bytes32"
        },
        {
          "internalType": "bytes32",
          "name": "_defendeeName",
          "type": "bytes32"
        }
      ],
      "name": "checkIPWhiteList",
      "outputs": [
        {
          "internalType": "bool",
          "name": "",
          "type": "bool"
        }
      ],
      "stateMutability": "view",
      "type": "function",
      "constant": true
    },
    {
      "inputs": [
        {
          "internalType": "bytes32",
          "name": "_defendeeName",
          "type": "bytes32"
        },
        {
          "internalType": "bool",
          "name": "winning",
          "type": "bool"
        },
        {
          "internalType": "address",
          "name": "_target",
          "type": "address"
        }
      ],
      "name": "setDefendeeRate",
      "outputs": [],
      "stateMutability": "nonpayable",
      "type": "function"
    },
    {
      "inputs": [
        {
          "internalType": "bytes32",
          "name": "_defendeeName",
          "type": "bytes32"
        },
        {
          "internalType": "bool",
          "name": "_direct",
          "type": "bool"
        },
        {
          "internalType": "address",
          "name": "_target",
          "type": "address"
        }
      ],
      "name": "setUnjudged",
      "outputs": [],
      "stateMutability": "nonpayable",
      "type": "function"
    }
  ],
  "bytecode": "0x608060405234801561001057600080fd5b50604051620022eb380380620022eb8339818101604052608081101561003557600080fd5b5080516020820151604080840151606090940151905192939192309061005a906100fb565b6001600160a01b03909116815260405190819003602001906000f080158015610087573d6000803e3d6000fd5b50600480546001600160a01b039283166001600160a01b0319918216179091559481166000908152600160208190526040808320805460ff19908116841790915596841683528083208054881683179055948316825293812080549095169093179093558154921691909216179055610109565b6103278062001fc483390190565b611eab80620001196000396000f3fe608060405234801561001057600080fd5b50600436106101d95760003560e01c806370a0823111610104578063be5ed910116100a2578063e57d44cb11610071578063e57d44cb14610608578063ee324da91461062b578063f45005c214610651578063fb98529414610685576101d9565b8063be5ed910146105d3578063c5164a08146105db578063c91aeecc146105e3578063d39b66dd14610600576101d9565b80639f8d4550116100de5780639f8d4550146104dd578063abf57dcf1461050f578063bb9bbd911461053b578063bc2f928b14610558576101d9565b806370a08231146104a75780638a59bddd146104cd5780638fdcb0ff146104d5576101d9565b806326c0c6d21161017c5780634d68d89d1161014b5780634d68d89d146103f557806360bc0563146104125780636312d5d7146104475780636e553f651461047b576101d9565b806326c0c6d214610339578063281050531461036d57806346ba8cdc14610399578063477ddd8e146103d2576101d9565b806315eaef6b116101b857806315eaef6b146102805780631af57b96146102b65780631b86cad0146102e55780631e3b06c71461031c576101d9565b8062f714ce146101de578063039854261461020c5780630ccaaa461461023f575b600080fd5b61020a600480360360408110156101f457600080fd5b50803590602001356001600160a01b03166106a8565b005b6102296004803603602081101561022257600080fd5b503561072b565b6040805160ff9092168252519081900360200190f35b61020a600480360360a081101561025557600080fd5b5080356001600160a01b0316906020810135906040810135906060810135906080013560ff16610748565b61020a6004803603606081101561029657600080fd5b506001600160a01b03813581169160208101359091169060400135610a64565b6102d3600480360360208110156102cc57600080fd5b5035610ae8565b60408051918252519081900360200190f35b610308600480360360408110156102fb57600080fd5b5080359060200135610afd565b604080519115158252519081900360200190f35b6103086004803603602081101561033257600080fd5b5035610b20565b6103566004803603602081101561034f57600080fd5b5035610b38565b6040805161ffff9092168252519081900360200190f35b61020a6004803603604081101561038357600080fd5b506001600160a01b038135169060200135610b57565b6103b6600480360360208110156103af57600080fd5b5035610c54565b604080516001600160a01b039092168252519081900360200190f35b61020a600480360360408110156103e857600080fd5b5080359060200135610c6f565b6102296004803603602081101561040b57600080fd5b5035610d5b565b61020a6004803603606081101561042857600080fd5b5080359060208101356001600160a01b0316906040013560ff16610d73565b61020a6004803603606081101561045d57600080fd5b508035906020810135151590604001356001600160a01b0316610f17565b61020a6004803603604081101561049157600080fd5b50803590602001356001600160a01b031661110f565b6102d3600480360360208110156104bd57600080fd5b50356001600160a01b03166111f9565b610308611218565b6102d3611299565b61020a600480360360608110156104f357600080fd5b50803590602081013590604001356001600160a01b0316611348565b6103086004803603604081101561052557600080fd5b50803590602001356001600160a01b03166114f5565b6103566004803603602081101561055157600080fd5b503561168c565b6105756004803603602081101561056e57600080fd5b50356116ad565b604080516001600160a01b03909a168a5260208a0198909852951515888801526060880194909452608087019290925260ff90811660a08701521660c085015261ffff90811660e08501521661010083015251908190036101200190f35b610356611714565b61035661171a565b61020a600480360360208110156105f957600080fd5b5035611720565b6103566117d7565b6103086004803603604081101561061e57600080fd5b50803590602001356117dd565b6103086004803603602081101561064157600080fd5b50356001600160a01b0316611801565b61020a6004803603606081101561066757600080fd5b508035906020810135151590604001356001600160a01b0316611822565b6103086004803603604081101561069b57600080fd5b5080359060200135611923565b3360009081526001602081905260409091205460ff16151514610700576040805162461bcd60e51b81526020600482018190526024820152600080516020611dcd833981519152604482015290519081900360640190fd5b61070a8183611946565b600054610727906001600160a01b0316828463ffffffff611a4816565b5050565b600090815260036020526040902060070154610100900460ff1690565b3360009081526001602081905260409091205460ff161515146107a0576040805162461bcd60e51b81526020600482018190526024820152600080516020611dcd833981519152604482015290519081900360640190fd5b6001600160a01b038516600090815260026020526040902060019081015460ff16151514610815576040805162461bcd60e51b815260206004820152601a60248201527f526567697374657220796f75722077616c6c6574206669727374000000000000604482015290519081900360640190fd5b60008481526003602052604090206004015460ff161580610846575060008481526003602052604090206005015483115b6108815760405162461bcd60e51b815260040180806020018281038252603a815260200180611e17603a913960400191505060405180910390fd5b678ac7230489e800008210156108c85760405162461bcd60e51b8152600401808060200182810382526025815260200180611e516025913960400191505060405180910390fd5b60008160ff1611610920576040805162461bcd60e51b815260206004820152601a60248201527f4e656564206d6f7265207468616e203120696e73706563746f72000000000000604482015290519081900360640190fd5b604051806101200160405280866001600160a01b031681526020018581526020016001151581526020018481526020018381526020018260ff168152602001600060ff16815260200161032061ffff1667016345785d8a0000868161098157fe5b04026127100161ffff9081168252600060209283018190529687526003808352604097889020845181546001600160a01b0319166001600160a01b0390911617815592840151908301559582015160048201805460ff19908116921515929092179055606083015160058301556080830151600683015560a08301516007909201805460c085015160e0860151610100968701519290941660ff9586161761ff00191694169094029290921763ffff0000191662010000918816919091021765ffff00000000191664010000000092909616919091029490941790935550505050565b3360009081526001602081905260409091205460ff16151514610abc576040805162461bcd60e51b81526020600482018190526024820152600080516020611dcd833981519152604482015290519081900360640190fd5b610ac68382611946565b600054610ae3906001600160a01b0316838363ffffffff611a4816565b505050565b60009081526003602052604090206006015490565b600090815260036020908152604080832093835260019093019052205460ff1690565b60009081526003602052604090206004015460ff1690565b60009081526003602052604090206007015462010000900461ffff1690565b3360009081526001602081905260409091205460ff16151514610baf576040805162461bcd60e51b81526020600482018190526024820152600080516020611dcd833981519152604482015290519081900360640190fd5b610bb882611801565b15610bfe576040805162461bcd60e51b8152602060048201526011602482015270416c72656164792052656769737465722160781b604482015290519081900360640190fd5b604080516060810182529182526001602080840182815260008585018181526001600160a01b0397909716815260029283905293909320935184559151908301805460ff19169115159190911790559151910155565b6000908152600360205260409020546001600160a01b031690565b3360009081526001602081905260409091205460ff16151514610cc7576040805162461bcd60e51b81526020600482018190526024820152600080516020611dcd833981519152604482015290519081900360640190fd5b600081815260036020908152604080832085845260010190915290205460ff1615610d30576040805162461bcd60e51b8152602060048201526014602482015273105b1c9958591e481a5b88109b1858dad31a5cdd60621b604482015290519081900360640190fd5b600090815260036020908152604080832093835260019384019091529020805460ff19169091179055565b60009081526003602052604090206007015460ff1690565b3360009081526001602081905260409091205460ff16151514610dcb576040805162461bcd60e51b81526020600482018190526024820152600080516020611dcd833981519152604482015290519081900360640190fd5b6000838152600360205260409020600401548390839060ff16610e29576040805162461bcd60e51b815260206004820152601160248201527024ba1034b9b713ba103932b3b4b9ba32b960791b604482015290519081900360640190fd5b6000828152600360205260409020546001600160a01b03828116911614610e8a576040805162461bcd60e51b815260206004820152601060248201526f2cb7ba9030b932b713ba1037bbb732b960811b604482015290519081900360640190fd5b6000858152600360205260409020546001600160a01b03858116911614610ee7576040805162461bcd60e51b815260206004820152600c60248201526b383632b0b9b29037bbb732b960a11b604482015290519081900360640190fd5b5050600092835260036020526040909220600701805460ff9093166101000261ff00199093169290921790915550565b3360009081526001602081905260409091205460ff16151514610f6f576040805162461bcd60e51b81526020600482018190526024820152600080516020611dcd833981519152604482015290519081900360640190fd5b6000838152600360205260409020600401548390829060ff16610fcd576040805162461bcd60e51b815260206004820152601160248201527024ba1034b9b713ba103932b3b4b9ba32b960791b604482015290519081900360640190fd5b6000828152600360205260409020546001600160a01b0382811691161461102e576040805162461bcd60e51b815260206004820152601060248201526f2cb7ba9030b932b713ba1037bbb732b960811b604482015290519081900360640190fd5b83156110b45760008581526003602052604090206007015461ffff62010000909104811661032081019182161061108b576000868152600360205260409020600701805463ffff000019166201000061ffff8416021790556110ae565b6000868152600360205260409020600701805463ffff0000191663ffff00001790555b50611108565b6000858152600360205260409020600701805461063f1961ffff620100008084048216929092018116820263ffff000019909316929092179283905561138892041610156111085761110685846114f5565b505b5050505050565b3360009081526001602081905260409091205460ff16151514611167576040805162461bcd60e51b81526020600482018190526024820152600080516020611dcd833981519152604482015290519081900360640190fd5b6001600160a01b03811660009081526002602052604090206001015460ff166111d1576040805162461bcd60e51b81526020600482015260176024820152762cb7ba9030b932903737ba1021b7b83cb934b3b43a32b960491b604482015290519081900360640190fd5b6000546111ef906001600160a01b031682308563ffffffff611a9a16565b6107278183611afa565b6001600160a01b03166000908152600260208190526040909120015490565b6000600460009054906101000a90046001600160a01b03166001600160a01b031663681fe70c6040518163ffffffff1660e01b815260040160206040518083038186803b15801561126857600080fd5b505afa15801561127c573d6000803e3d6000fd5b505050506040513d602081101561129257600080fd5b5051905090565b33600090815260016020819052604082205460ff161515146112f0576040805162461bcd60e51b81526020600482018190526024820152600080516020611dcd833981519152604482015290519081900360640190fd5b600480546040805163957908d160e01b815290516001600160a01b039092169263957908d19282820192602092908290030181600087803b15801561133457600080fd5b505af115801561127c573d6000803e3d6000fd5b3360009081526001602081905260409091205460ff161515146113a0576040805162461bcd60e51b81526020600482018190526024820152600080516020611dcd833981519152604482015290519081900360640190fd5b6000828152600360205260409020600401548290829060ff166113fe576040805162461bcd60e51b815260206004820152601160248201527024ba1034b9b713ba103932b3b4b9ba32b960791b604482015290519081900360640190fd5b6000828152600360205260409020546001600160a01b0382811691161461145f576040805162461bcd60e51b815260206004820152601060248201526f2cb7ba9030b932b713ba1037bbb732b960811b604482015290519081900360640190fd5b600084815260036020908152604080832088845260020190915290205460ff166114c9576040805162461bcd60e51b81526020600482015260166024820152750416c726561647920696e2077686974654c69737449560541b604482015290519081900360640190fd5b50505060009081526003602090815260408083209383526002909301905220805460ff19166001179055565b33600090815260016020819052604082205460ff1615151461154c576040805162461bcd60e51b81526020600482018190526024820152600080516020611dcd833981519152604482015290519081900360640190fd5b6000838152600360205260409020600401548390839060ff166115aa576040805162461bcd60e51b815260206004820152601160248201527024ba1034b9b713ba103932b3b4b9ba32b960791b604482015290519081900360640190fd5b6000828152600360205260409020546001600160a01b0382811691161461160b576040805162461bcd60e51b815260206004820152601060248201526f2cb7ba9030b932b713ba1037bbb732b960811b604482015290519081900360640190fd5b60008581526003602052604090206004015460ff16151560011461166a576040805162461bcd60e51b815260206004820152601160248201527024ba1034b9b713ba103932b3b4b9ba32b960791b604482015290519081900360640190fd5b505050600091825250600360205260409020600401805460ff19169055600190565b600090815260036020526040902060070154640100000000900461ffff1690565b60036020819052600091825260409091208054918101546004820154600583015460068401546007909401546001600160a01b0390951694929360ff9283169391929091808216916101008204169061ffff62010000820481169164010000000090041689565b61138881565b61ffff81565b3360009081526001602081905260409091205460ff16151514611778576040805162461bcd60e51b81526020600482018190526024820152600080516020611dcd833981519152604482015290519081900360640190fd5b600480546040805163b4de3e2360e01b8152928301849052516001600160a01b039091169163b4de3e2391602480830192600092919082900301818387803b1580156117c357600080fd5b505af1158015611108573d6000803e3d6000fd5b61271081565b60009182526003602090815260408084209284526002909201905290205460ff1690565b6001600160a01b031660009081526002602052604090206001015460ff1690565b3360009081526001602081905260409091205460ff1615151461187a576040805162461bcd60e51b81526020600482018190526024820152600080516020611dcd833981519152604482015290519081900360640190fd5b81156118e7576000838152600360205260409020600781018054600161ffff64010000000080840482169290920190811691820265ffff00000000199093169290921790925560059092015466470de4df8200009004116118e1576118e184600084610f17565b50610ae3565b50506000908152600360205260409020600701805465ffff000000001981166401000000009182900461ffff9081166000190116909102179055565b600090815260036020908152604080832093835260029093019052205460ff1690565b6001600160a01b03821660009081526002602052604090206001015460ff166119b0576040805162461bcd60e51b81526020600482015260176024820152762cb7ba9030b932903737ba1021b7b83cb934b3b43a32b960491b604482015290519081900360640190fd5b6001600160a01b03821660009081526002602081905260409091200154811115611a21576040805162461bcd60e51b815260206004820152601c60248201527f596f752063616e277420776974686472617720746865206d6f6e657900000000604482015290519081900360640190fd5b6001600160a01b039091166000908152600260208190526040909120018054919091039055565b604080516001600160a01b038416602482015260448082018490528251808303909101815260649091019091526020810180516001600160e01b031663a9059cbb60e01b179052610ae3908490611b20565b604080516001600160a01b0380861660248301528416604482015260648082018490528251808303909101815260849091019091526020810180516001600160e01b03166323b872dd60e01b179052611af4908590611b20565b50505050565b6001600160a01b0390911660009081526002602081905260409091200180549091019055565b6060611b75826040518060400160405280602081526020017f5361666545524332303a206c6f772d6c6576656c2063616c6c206661696c6564815250856001600160a01b0316611bd19092919063ffffffff16565b805190915015610ae357808060200190516020811015611b9457600080fd5b5051610ae35760405162461bcd60e51b815260040180806020018281038252602a815260200180611ded602a913960400191505060405180910390fd5b6060611be08484600085611be8565b949350505050565b6060611bf385611d93565b611c44576040805162461bcd60e51b815260206004820152601d60248201527f416464726573733a2063616c6c20746f206e6f6e2d636f6e7472616374000000604482015290519081900360640190fd5b60006060866001600160a01b031685876040518082805190602001908083835b60208310611c835780518252601f199092019160209182019101611c64565b6001836020036101000a03801982511681845116808217855250505050505090500191505060006040518083038185875af1925050503d8060008114611ce5576040519150601f19603f3d011682016040523d82523d6000602084013e611cea565b606091505b50915091508115611cfe579150611be09050565b805115611d0e5780518082602001fd5b8360405162461bcd60e51b81526004018080602001828103825283818151815260200191508051906020019080838360005b83811015611d58578181015183820152602001611d40565b50505050905090810190601f168015611d855780820380516001836020036101000a031916815260200191505b509250505060405180910390fd5b6000813f7fc5d2460186f7233c927e7db2dcc703c0e500b653ca82273b7bfad8045d85a470818114801590611be057505015159291505056fe4f6e6c7920616c6c6f77656420636f6e74726163742063616e206163636573735361666545524332303a204552433230206f7065726174696f6e20646964206e6f742073756363656564416c7265616479207265676973746572656420646566656e6465652e204a7573742061646420796f7520746f2074686520646566656e6465652e706c656173652073657420726577617264206d6f7265207468616e20313020746f6b656e73a2646970667358221220e230c7708b2289a8f052db78a0d1959ae3d8954ce6cd9e613c4559078509334c64736f6c634300060a0033608060405260018055600060025534801561001957600080fd5b506040516103273803806103278339818101604052602081101561003c57600080fd5b50516001600160a01b03166000908152600360205260409020805460ff191660011790556102b88061006f6000396000f3fe608060405234801561001057600080fd5b50600436106100575760003560e01c80631f7b6d321461005c5780635c1b9e2c14610076578063681fe70c14610093578063957908d1146100af578063b4de3e23146100b7575b600080fd5b6100646100d6565b60408051918252519081900360200190f35b6100646004803603602081101561008c57600080fd5b50356100e3565b61009b610155565b604080519115158252519081900360200190f35b610064610174565b6100d4600480360360208110156100cd57600080fd5b5035610242565b005b6001805460025403015b90565b60008060018360015401039050600254811115610140576040805162461bcd60e51b8152602060048201526016602482015275139bdd08195b9bdd59da081d1a185d081d185c99d95d60521b604482015290519081900360640190fd5b60009081526020819052604090205492915050565b6000600154600254600101141561016e575060016100e0565b50600090565b3360009081526003602052604081205460ff1615156001146101dd576040805162461bcd60e51b815260206004820181905260248201527f4f6e6c7920616c6c6f77656420636f6e74726163742063616e20616363657373604482015290519081900360640190fd5b60015460025410156102205760405162461bcd60e51b815260040180806020018281038252602481526020018061025f6024913960400191505060405180910390fd5b5060018054600090815260208190526040812080549190558154820190915590565b600280546001019081905560009081526020819052604090205556fe446f6e27742074727920746f2064656c6574652066726f6d20656d707479207175657565a26469706673582212207a7f482fca5e916eb71b754689edaa4c304f6c1677bf4834e62db11f3cf7ea8264736f6c634300060a0033",
  "immutableReferences": {},
  "source": "// SPDX-License-Identifier: MIT\r\npragma solidity >=0.4.21 <0.7.0;\r\nimport '../library/Report.sol';\r\nimport '../token/DetokToken.sol';\r\nimport '../library/Queue.sol';\r\nimport '../library/ObjStruct.sol';\r\nimport '../math/SafeMathuint.sol';\r\nimport \"../../node_modules/openzeppelin-solidity/contracts/token/ERC20/SafeERC20.sol\";\r\nimport \"../wallet/Wallet.sol\";\r\n/**\r\n *@title DefendeeData\r\n *@author  Wanggyu, Suh\r\n *@notice Save data about copyright\r\n */\r\ncontract DefendeeData is Wallet{\r\n    mapping (bytes32 => ObjStruct.Defendee) public defendees;\r\n    Queue compenSationQueue;\r\n    uint16 constant public MAX_RATE_DEFENDEE = 65535;\r\n    uint16 constant public START_RATE_DEFENDEE = 10000;\r\n    uint16 constant public MIN_RATE_DEFENDEE = 5000;\r\n    uint16 constant RATE_INTERVAL_PLATFORM = 800;\r\n\r\n    constructor(address _noticeAddress, address _inspectAddress, address _judgeAddress, DetokToken _token) public{\r\n        compenSationQueue = new Queue(address(this));\r\n        allowedAddress[_noticeAddress] = true;\r\n        allowedAddress[_inspectAddress] = true;\r\n        allowedAddress[_judgeAddress] = true;\r\n        token = _token;\r\n    }\r\n\r\n    modifier onlyDefendeeOwner(bytes32 _defendeeName, address _target) {\r\n        require(defendees[_defendeeName].ableNotify, \"It isn't register\");\r\n        require(defendees[_defendeeName].rightOwnerAddress == _target, \"You aren't owner\");\r\n        _;\r\n    }\r\n\r\n    /* Getter function */\r\n    function getAbleCopyrighters(address _target) public view returns (bool) {\r\n        return copyrighters[_target].ableCopyrighter;\r\n    }\r\n    function getCompensationIsEmpty() public view returns (bool){\r\n        return compenSationQueue.isEmpty();\r\n    }\r\n\r\n    function getDefendeeAble(bytes32 _defendeeName) public view returns (bool) {\r\n        return defendees[_defendeeName].ableNotify;\r\n    }\r\n\r\n    function getDefendeeOwnerAddress(bytes32 _defendeeName) public view returns (address) {\r\n        return defendees[_defendeeName].rightOwnerAddress;\r\n    }\r\n\r\n    function getRewardAmount(bytes32 _defendeeName) public view returns (uint256) {\r\n        return defendees[_defendeeName].rewardAmount;\r\n    }\r\n\r\n    function getMode(bytes32 _defendeeName) public view returns (uint8) {\r\n        return defendees[_defendeeName].mode;\r\n    }\r\n\r\n    function checkWhiteList(bytes32 _defendeeName, bytes32 _ip) public view returns (bool) {\r\n        return defendees[_defendeeName].whiteListIP[_ip];\r\n    }\r\n\r\n    function getInspectCount(bytes32 _defendeeName) public view returns (uint8) {\r\n        return defendees[_defendeeName].inspectCount;\r\n    }\r\n\r\n    function getDefendeeRate(bytes32 _defendeeName) public view returns (uint16) {\r\n        return defendees[_defendeeName].rate;\r\n    }\r\n    \r\n    function getUnjudged(bytes32 _defendeeName) public view returns (uint16) {\r\n        return defendees[_defendeeName].unJudged;\r\n    }\r\n\r\n    /* Setter function */\r\n    function compenSationQueueEnqueue(bytes32 _meta) public onlyAllowed {\r\n        compenSationQueue.enqueue(_meta);\r\n    }\r\n\r\n    function compenSationQueueDequeue() public onlyAllowed returns (bytes32) {\r\n        return compenSationQueue.dequeue();\r\n    }\r\n\r\n    function changeMode(bytes32 _defendeeName, address _target, uint8 _mode)\r\n        public\r\n        onlyAllowed\r\n        onlyDefendeeOwner(_defendeeName, _target)\r\n    {\r\n        require(defendees[_defendeeName].rightOwnerAddress == _target, \"please owner\");\r\n        defendees[_defendeeName].mode = _mode;\r\n    }\r\n\r\n    function setCopyrighter(address _target, bytes32 _name) public onlyAllowed {\r\n        require(!getAbleCopyrighters(_target), \"Already Register!\");\r\n        copyrighters[_target] = ObjStruct.Copyrighter(_name, true, 0);\r\n    }\r\n\r\n    function setDefendee(\r\n        address payable _rightOwnerAddress,\r\n        bytes32 _name,\r\n        uint256 _pendingEth,\r\n        uint256 _rewardAmount,\r\n        uint8 _inspectCount\r\n\r\n    )\r\n        public onlyAllowed\r\n    {\r\n        require(copyrighters[_rightOwnerAddress].ableCopyrighter == true, \"Register your wallet first\");\r\n        require(\r\n            defendees[_name].ableNotify == false || _pendingEth > defendees[_name].pendingEth,\r\n            \"Already registered defendee. Just add you to the defendee.\"\r\n        );\r\n        require(_rewardAmount >= 10**19, \"please set reward more than 10 tokens\");\r\n        require(_inspectCount > 0, \"Need more than 1 inspector\");\r\n        defendees[_name] = ObjStruct.Defendee(\r\n            _rightOwnerAddress,\r\n            _name,\r\n            true,\r\n            _pendingEth,\r\n            _rewardAmount,\r\n            _inspectCount,\r\n            0,\r\n            START_RATE_DEFENDEE + uint16(_pendingEth / 0.1 ether * RATE_INTERVAL_PLATFORM),\r\n            0\r\n        );\r\n    }\r\n\r\n    function deleteDefendee(\r\n        bytes32 _defendeeName,\r\n        address _target\r\n    )\r\n        public\r\n        onlyAllowed\r\n        onlyDefendeeOwner(_defendeeName, _target)\r\n        returns (bool)\r\n    {\r\n        require(defendees[_defendeeName].ableNotify == true, \"It isn't register\");\r\n        defendees[_defendeeName].ableNotify = false;\r\n        return true;\r\n    }\r\n\r\n    /* BlackList Procedure : Check it before judge */\r\n    function addIPToBlackList(bytes32 _ip, bytes32 _defendeeName)\r\n        public\r\n        onlyAllowed\r\n    {\r\n        require(defendees[_defendeeName].blackListIP[_ip] == false, \"Already in BlackList\");\r\n        defendees[_defendeeName].blackListIP[_ip] = true;\r\n    }\r\n\r\n    function addIPtoWhiteList(bytes32 _ip, bytes32 _defendeeName, address _target)\r\n        public\r\n        onlyAllowed\r\n        onlyDefendeeOwner(_defendeeName, _target)\r\n    {\r\n        require(defendees[_defendeeName].whiteListIP[_ip], \"Already in whiteListIP\");\r\n        defendees[_defendeeName].whiteListIP[_ip] = true;\r\n    }\r\n\r\n    function checkBlackList(bytes32 _ip, bytes32 _defendeeName) public view returns (bool) {\r\n\r\n        return defendees[_defendeeName].blackListIP[_ip];\r\n    }\r\n\r\n    function checkIPWhiteList(bytes32 _ip, bytes32 _defendeeName) public view returns (bool) {\r\n        return defendees[_defendeeName].whiteListIP[_ip];\r\n    }\r\n\r\n    function setDefendeeRate(bytes32 _defendeeName, bool winning, address _target)\r\n        public\r\n        onlyAllowed\r\n        onlyDefendeeOwner(_defendeeName, _target)\r\n    {\r\n        if (winning) {\r\n            uint16 c = defendees[_defendeeName].rate + RATE_INTERVAL_PLATFORM;\r\n            if (c >= defendees[_defendeeName].rate){\r\n                defendees[_defendeeName].rate = c;\r\n            } else {\r\n                defendees[_defendeeName].rate = MAX_RATE_DEFENDEE;\r\n            }\r\n        } else {\r\n            defendees[_defendeeName].rate -= RATE_INTERVAL_PLATFORM * 2;\r\n            if (defendees[_defendeeName].rate < MIN_RATE_DEFENDEE ) {\r\n                deleteDefendee(_defendeeName, _target);\r\n            }\r\n        }\r\n    }\r\n    \r\n    function setUnjudged(bytes32 _defendeeName, bool _direct, address _target) public onlyAllowed {\r\n        if (_direct) {\r\n            uint16 num = ++defendees[_defendeeName].unJudged;\r\n            if ((defendees[_defendeeName].pendingEth / 0.02 ether) <= num) {\r\n                setDefendeeRate(_defendeeName, false, _target);\r\n            }\r\n        } else {\r\n            /* It doesn't consider overflow so in process of judge, \r\n               please consider to try to judge at no judgement\r\n             */\r\n            defendees[_defendeeName].unJudged--;\r\n        }\r\n    }\r\n}",
  "sourcePath": "C:\\Users\\tjdhk\\OneDrive\\\\gitConnectProject\\tmpdetok\\core\\decentralized\\contracts\\storeContract\\DefendeeData.sol",
  "compiler": {
    "name": "solc",
    "version": "0.6.10+commit.00c0fcaf.Emscripten.clang"
  },
  "schemaVersion": "3.2.1",
  "updatedAt": "2021-01-08T09:16:58.097Z",
  "networkType": "ethereum",
  "devdoc": {
    "author": "Wanggyu, Suh",
    "methods": {},
    "title": "DefendeeData"
  },
  "userdoc": {
    "methods": {},
    "notice": "Save data about copyright"
  }
}