{
  "contractName": "InspectData",
  "abi": [
    {
      "inputs": [
        {
          "internalType": "address",
          "name": "_noticeAddress",
          "type": "address"
        },
        {
          "internalType": "address",
          "name": "_inspectAddress",
          "type": "address"
        },
        {
          "internalType": "address",
          "name": "_judgeAddress",
          "type": "address"
        }
      ],
      "stateMutability": "nonpayable",
      "type": "constructor"
    },
    {
      "inputs": [],
      "name": "MAX_RATE_INSPECT",
      "outputs": [
        {
          "internalType": "uint16",
          "name": "",
          "type": "uint16"
        }
      ],
      "stateMutability": "view",
      "type": "function",
      "constant": true
    },
    {
      "inputs": [],
      "name": "MIN_RATE_INSPECT",
      "outputs": [
        {
          "internalType": "uint16",
          "name": "",
          "type": "uint16"
        }
      ],
      "stateMutability": "view",
      "type": "function",
      "constant": true
    },
    {
      "inputs": [
        {
          "internalType": "address",
          "name": "_target",
          "type": "address"
        }
      ],
      "name": "getAbled",
      "outputs": [
        {
          "internalType": "bool",
          "name": "",
          "type": "bool"
        }
      ],
      "stateMutability": "view",
      "type": "function",
      "constant": true
    },
    {
      "inputs": [
        {
          "internalType": "address",
          "name": "_target",
          "type": "address"
        }
      ],
      "name": "getRate",
      "outputs": [
        {
          "internalType": "uint16",
          "name": "",
          "type": "uint16"
        }
      ],
      "stateMutability": "view",
      "type": "function",
      "constant": true
    },
    {
      "inputs": [
        {
          "internalType": "address",
          "name": "_target",
          "type": "address"
        }
      ],
      "name": "getWinningStreak",
      "outputs": [
        {
          "internalType": "uint16",
          "name": "",
          "type": "uint16"
        }
      ],
      "stateMutability": "view",
      "type": "function",
      "constant": true
    },
    {
      "inputs": [
        {
          "internalType": "address",
          "name": "_target",
          "type": "address"
        }
      ],
      "name": "getWinningState",
      "outputs": [
        {
          "internalType": "bool",
          "name": "",
          "type": "bool"
        }
      ],
      "stateMutability": "view",
      "type": "function",
      "constant": true
    },
    {
      "inputs": [
        {
          "internalType": "address",
          "name": "_target",
          "type": "address"
        }
      ],
      "name": "setInspector",
      "outputs": [],
      "stateMutability": "nonpayable",
      "type": "function"
    },
    {
      "inputs": [
        {
          "internalType": "address",
          "name": "_target",
          "type": "address"
        },
        {
          "internalType": "bool",
          "name": "_result",
          "type": "bool"
        },
        {
          "internalType": "bool",
          "name": "_second",
          "type": "bool"
        }
      ],
      "name": "setWinning",
      "outputs": [],
      "stateMutability": "nonpayable",
      "type": "function"
    }
  ],
  "bytecode": "0x608060405234801561001057600080fd5b506040516109de3803806109de8339818101604052606081101561003357600080fd5b5080516020808301516040938401516001600160a01b039384166000908152600193849052858120805460ff1990811686179091559285168152858120805484168517905593168352929091208054909216179055610947806100976000396000f3fe608060405234801561001057600080fd5b50600436106100885760003560e01c8063afb708511161005b578063afb7085114610102578063b0f934c21461013c578063c7b9886414610162578063e4e5656e1461019857610088565b8063361a568f1461008d57806337cef791146100ac5780634e5cbf61146100d25780636376586f146100fa575b600080fd5b6100956101be565b6040805161ffff9092168252519081900360200190f35b610095600480360360208110156100c257600080fd5b50356001600160a01b03166101c4565b6100f8600480360360208110156100e857600080fd5b50356001600160a01b03166101ee565b005b6100956102c2565b6101286004803603602081101561011857600080fd5b50356001600160a01b03166102c8565b604080519115158252519081900360200190f35b6100956004803603602081101561015257600080fd5b50356001600160a01b03166102ed565b6100f86004803603606081101561017857600080fd5b506001600160a01b03813516906020810135151590604001351515610313565b610128600480360360208110156101ae57600080fd5b50356001600160a01b0316610780565b61271081565b6001600160a01b038116600090815260208190526040902054600160a01b900461ffff165b919050565b336000818152600160208181526040808420805460ff191684179055805160a08101825294855261555585830190815285820184815260608701868152608088019586526001600160a01b03988916875293869052919094209451855494519151925193516001600160a01b031990951696169590951761ffff60a01b1916600160a01b61ffff968716021760ff60b01b1916600160b01b911515919091021761ffff60b81b1916600160b81b94909116939093029290921760ff60c81b1916600160c81b92151592909202919091179055565b61ffff81565b6001600160a01b0316600090815260208190526040902054600160b01b900460ff1690565b6001600160a01b0316600090815260208190526040902054600160b81b900461ffff1690565b336000908152600160208190526040909120805460ff19169091179055801561050c5781156103d9576001600160a01b03831660009081526020819052604090205461ffff600160a01b9091048116906101f4820190811682116103a6576001600160a01b0385166000908152602081905260409020805461ffff60a01b1916600160a01b61ffff8416021790556103d2565b6001600160a01b0385166000908152602081905260409020805461ffff60a01b191661ffff60a01b1790555b5050610507565b6001600160a01b038316600090815260208190526040902054600160c81b900460ff161561042b576001600160a01b0383166000908152602081905260409020805462ffffff60b81b19169055610507565b6001600160a01b038316600090815260208190526040812080546002600160b81b80830461ffff908116929092018216810261ffff60b81b1984161793849055600160a01b9092048116939261048c929004166101f463ffffffff6107a516565b820390508061ffff168261ffff1611156104d5576001600160a01b0385166000908152602081905260409020805461ffff60a01b1916600160a01b61ffff8416021790556104fa565b6001600160a01b0385166000908152602081905260409020805461ffff60a01b191690555b61050385610819565b5050505b61077b565b811561064d576001600160a01b038316600090815260208190526040902054600160c81b900460ff16610571576001600160a01b0383166000908152602081905260409020805461ffff60b81b1960ff60c81b19909116600160c81b17169055610507565b6001600160a01b038316600090815260208190526040812080546001600160b81b80830461ffff908116929092018216810261ffff60b81b1984161793849055600160a01b909204811693926105d2929004166101f463ffffffff6107a516565b820190508161ffff168161ffff161061061a576001600160a01b0385166000908152602081905260409020805461ffff60a01b1916600160a01b61ffff841602179055610646565b6001600160a01b0385166000908152602081905260409020805461ffff60a01b191661ffff60a01b1790555b505061077b565b6001600160a01b038316600090815260208190526040902054600160c81b900460ff161561069f576001600160a01b0383166000908152602081905260409020805462ffffff60b81b1916905561077b565b6001600160a01b038316600090815260208190526040812080546002600160b81b80830461ffff908116929092018216810261ffff60b81b1984161793849055600160a01b90920481169392610700929004166101f463ffffffff6107a516565b820390508061ffff168261ffff161115610749576001600160a01b0385166000908152602081905260409020805461ffff60a01b1916600160a01b61ffff84160217905561076e565b6001600160a01b0385166000908152602081905260409020805461ffff60a01b191690555b61077785610819565b5050505b505050565b6001600160a01b0316600090815260208190526040902054600160c81b900460ff1690565b600061ffff83166107b857506000610813565b82820261ffff80841690808616908316816107cf57fe5b0461ffff16146108105760405162461bcd60e51b81526004018080602001828103825260218152602001806108f16021913960400191505060405180910390fd5b90505b92915050565b6001600160a01b038116600090815260208190526040812054600160b01b900460ff161515600114610892576040805162461bcd60e51b815260206004820152601860248201527f4e6f74207265676973746572656420496e73706563746f720000000000000000604482015290519081900360640190fd5b6001600160a01b038216600090815260208190526040902054612710600160a01b90910461ffff16116108e857506001600160a01b0381166000908152602081905260408120805460ff60b01b191690556101e9565b50600191905056fe536166654d6174683a206d756c7469706c69636174696f6e206f766572666c6f77a2646970667358221220853d1b81c9ba83714e92585166b1cf3e28edd5770a5be61e6d7c924c4ae89cb764736f6c634300060a0033",
  "immutableReferences": {},
  "source": "// SPDX-License-Identifier: MIT\npragma solidity >=0.4.21 <0.7.0;\nimport '../library/Report.sol';\nimport '../math/SafeMathuint.sol';\nimport '../library/ObjStruct.sol';\n\n/**\n *@title InspectData\n *@author  Wanggyu, Suh\n *@notice Save data about inspector\n */\ncontract InspectData {\n    using SafeMathuint for uint16;\n    mapping (address => ObjStruct.Inspector) inspectors;\n    uint16 constant public MAX_RATE_INSPECT = 65535;\n    uint16 constant public MIN_RATE_INSPECT = 10000;\n    uint16 constant RATE_INTERVAL = 500;\n\n    mapping(address => bool) allowedAddress;\n    constructor(\n        address _noticeAddress,\n        address _inspectAddress,\n        address _judgeAddress\n    )\n        public\n    {\n        allowedAddress[_noticeAddress] = true;\n        allowedAddress[_inspectAddress] = true;\n        allowedAddress[_judgeAddress] = true;\n    }\n\n\n    modifier onlyAllowed(){\n        require(allowedAddress[msg.sender] = true,\"Only allowed contract can access\");\n        _;\n    }\n    /* Getter function */\n    function getAbled(address _target) public view returns (bool) {\n        return inspectors[_target].abled;\n    }\n\n    function getRate(address _target) public view returns (uint16) {\n        return inspectors[_target].rate;\n    }\n\n    function getWinningStreak(address _target) public view returns (uint16) {\n        return inspectors[_target].winningStreak;\n    }\n    function getWinningState(address _target) public view returns (bool) {\n        return inspectors[_target].winningState;\n    }\n\n    /* Setter function */\n    function setInspector(address _target) public onlyAllowed {\n        inspectors[_target] = ObjStruct.Inspector(msg.sender, MAX_RATE_INSPECT/3, true, 0, true);\n    }\n\n    function setWinning(address _target, bool _result, bool _second) public onlyAllowed {\n        if (_second) {\n            if(_result){\n                uint16 rate = inspectors[_target].rate;\n                uint16 c = rate + RATE_INTERVAL;\n                if (c >= rate)\n                    inspectors[_target].rate = c;\n                else\n                    inspectors[_target].rate = MAX_RATE_INSPECT;\n            } else {\n                if (inspectors[_target].winningState) {\n                inspectors[_target].winningState = false;\n                inspectors[_target].winningStreak = 0;\n                } else {\n                    uint16 rate = inspectors[_target].rate;\n                    inspectors[_target].winningStreak = inspectors[_target].winningStreak + 2;\n                    uint16 c = rate - inspectors[_target].winningStreak.mul(RATE_INTERVAL);\n                    if(rate > c)\n                        inspectors[_target].rate = c;\n                    else\n                        inspectors[_target].rate = 0;\n                    decideKeepRole(_target);\n                }\n            }\n        } else if (_result) {\n            if (!inspectors[_target].winningState) {\n                inspectors[_target].winningState = true;\n                inspectors[_target].winningStreak = 0;\n            } else {\n                uint16 rate = inspectors[_target].rate;\n                inspectors[_target].winningStreak++;\n                uint16 c = rate + inspectors[_target].winningStreak.mul(RATE_INTERVAL);\n                if (c >= rate)\n                    inspectors[_target].rate = c;\n                else\n                    inspectors[_target].rate = MAX_RATE_INSPECT;\n            }\n        } else {\n            if (inspectors[_target].winningState) {\n                inspectors[_target].winningState = false;\n                inspectors[_target].winningStreak = 0;\n            } else {\n                uint16 rate = inspectors[_target].rate;\n                inspectors[_target].winningStreak = inspectors[_target].winningStreak + 2;\n                uint16 c = rate - inspectors[_target].winningStreak.mul(RATE_INTERVAL);\n                if(rate > c)\n                    inspectors[_target].rate = c;\n                else\n                    inspectors[_target].rate = 0;\n                decideKeepRole(_target);\n            }\n        }\n    }\n\n    function decideKeepRole(address _target) internal returns (bool) {\n        require(inspectors[_target].abled == true, \"Not registered Inspector\");\n        if (inspectors[_target].rate <= MIN_RATE_INSPECT) {\n            inspectors[_target].abled = false;\n            return false;\n        }\n        return true;\n    }\n}",
  "sourcePath": "/home/ubuntu/workspace/Detok/core/decentralized/contracts/storeContract/InspectData.sol",
  "compiler": {
    "name": "solc",
    "version": "0.6.10+commit.00c0fcaf.Emscripten.clang"
  },
  "schemaVersion": "3.3.4",
  "updatedAt": "2021-04-15T04:48:05.843Z",
  "networkType": "ethereum",
  "devdoc": {
    "author": "Wanggyu, Suh",
    "methods": {},
    "title": "InspectData"
  },
  "userdoc": {
    "methods": {},
    "notice": "Save data about inspector"
  }
}