{
  "contractName": "JudgeByMedia",
  "abi": [
    {
      "inputs": [],
      "stateMutability": "nonpayable",
      "type": "constructor"
    },
    {
      "anonymous": false,
      "inputs": [
        {
          "indexed": false,
          "internalType": "bytes",
          "name": "domain",
          "type": "bytes"
        },
        {
          "indexed": false,
          "internalType": "bytes32",
          "name": "defendeeName",
          "type": "bytes32"
        },
        {
          "indexed": false,
          "internalType": "bool",
          "name": "decision",
          "type": "bool"
        }
      ],
      "name": "Judge",
      "type": "event"
    },
    {
      "anonymous": false,
      "inputs": [
        {
          "indexed": false,
          "internalType": "bytes32",
          "name": "name",
          "type": "bytes32"
        },
        {
          "indexed": false,
          "internalType": "address",
          "name": "copyrighter",
          "type": "address"
        }
      ],
      "name": "RegisterCopyrighter",
      "type": "event"
    },
    {
      "anonymous": false,
      "inputs": [
        {
          "indexed": false,
          "internalType": "bytes32",
          "name": "name",
          "type": "bytes32"
        },
        {
          "indexed": false,
          "internalType": "uint256",
          "name": "pendingEth",
          "type": "uint256"
        },
        {
          "indexed": false,
          "internalType": "uint256",
          "name": "rewardAmount",
          "type": "uint256"
        },
        {
          "indexed": false,
          "internalType": "uint8",
          "name": "inspectCount",
          "type": "uint8"
        },
        {
          "indexed": false,
          "internalType": "uint16",
          "name": "rating",
          "type": "uint16"
        },
        {
          "indexed": false,
          "internalType": "address",
          "name": "copyrighterAddress",
          "type": "address"
        }
      ],
      "name": "RegisterDefendee",
      "type": "event"
    },
    {
      "inputs": [
        {
          "internalType": "address",
          "name": "_target",
          "type": "address"
        }
      ],
      "name": "getRate",
      "outputs": [
        {
          "internalType": "uint16",
          "name": "",
          "type": "uint16"
        }
      ],
      "stateMutability": "view",
      "type": "function",
      "constant": true
    },
    {
      "inputs": [
        {
          "internalType": "bytes32",
          "name": "_defendeeName",
          "type": "bytes32"
        }
      ],
      "name": "getRateDefendee",
      "outputs": [
        {
          "internalType": "uint16",
          "name": "",
          "type": "uint16"
        }
      ],
      "stateMutability": "view",
      "type": "function",
      "constant": true
    },
    {
      "inputs": [
        {
          "internalType": "contract DetokToken",
          "name": "_token",
          "type": "address"
        }
      ],
      "name": "holdToken",
      "outputs": [],
      "stateMutability": "nonpayable",
      "type": "function"
    },
    {
      "inputs": [],
      "name": "token",
      "outputs": [
        {
          "internalType": "contract DetokToken",
          "name": "",
          "type": "address"
        }
      ],
      "stateMutability": "view",
      "type": "function",
      "constant": true
    },
    {
      "inputs": [
        {
          "internalType": "contract ReportData",
          "name": "_reportStorage",
          "type": "address"
        },
        {
          "internalType": "contract InspectData",
          "name": "_inspertorStorage",
          "type": "address"
        },
        {
          "internalType": "contract DefendeeData",
          "name": "_defendeeStorage",
          "type": "address"
        }
      ],
      "name": "holdDatabase",
      "outputs": [],
      "stateMutability": "nonpayable",
      "type": "function"
    },
    {
      "inputs": [
        {
          "internalType": "bytes32",
          "name": "_name",
          "type": "bytes32"
        }
      ],
      "name": "registerCopyrighter",
      "outputs": [],
      "stateMutability": "nonpayable",
      "type": "function"
    },
    {
      "inputs": [
        {
          "internalType": "bytes32",
          "name": "_name",
          "type": "bytes32"
        },
        {
          "internalType": "uint256",
          "name": "_pendingEth",
          "type": "uint256"
        },
        {
          "internalType": "uint256",
          "name": "_rewardAmount",
          "type": "uint256"
        },
        {
          "internalType": "uint8",
          "name": "_inspectCount",
          "type": "uint8"
        }
      ],
      "name": "registerDefendee",
      "outputs": [
        {
          "internalType": "bool",
          "name": "",
          "type": "bool"
        }
      ],
      "stateMutability": "payable",
      "type": "function",
      "payable": true
    },
    {
      "inputs": [
        {
          "internalType": "bytes32",
          "name": "_defendeeName",
          "type": "bytes32"
        }
      ],
      "name": "deleteDefendee",
      "outputs": [],
      "stateMutability": "nonpayable",
      "type": "function"
    },
    {
      "inputs": [
        {
          "internalType": "bytes32",
          "name": "_ip",
          "type": "bytes32"
        },
        {
          "internalType": "bytes32",
          "name": "_defendeeName",
          "type": "bytes32"
        }
      ],
      "name": "addIPToBlackList",
      "outputs": [],
      "stateMutability": "nonpayable",
      "type": "function"
    },
    {
      "inputs": [
        {
          "internalType": "bytes32",
          "name": "_ip",
          "type": "bytes32"
        },
        {
          "internalType": "bytes32",
          "name": "_defendeeName",
          "type": "bytes32"
        }
      ],
      "name": "addIPtoWhiteList",
      "outputs": [],
      "stateMutability": "nonpayable",
      "type": "function"
    },
    {
      "inputs": [
        {
          "internalType": "bytes32",
          "name": "_defendeeName",
          "type": "bytes32"
        },
        {
          "internalType": "uint8",
          "name": "_mode",
          "type": "uint8"
        }
      ],
      "name": "changeModeOfDefendee",
      "outputs": [],
      "stateMutability": "nonpayable",
      "type": "function"
    },
    {
      "inputs": [
        {
          "internalType": "bytes",
          "name": "_domain",
          "type": "bytes"
        },
        {
          "internalType": "bytes32",
          "name": "_defendeeName",
          "type": "bytes32"
        },
        {
          "internalType": "bool",
          "name": "_decision",
          "type": "bool"
        }
      ],
      "name": "judge",
      "outputs": [],
      "stateMutability": "nonpayable",
      "type": "function"
    }
  ],
  "bytecode": "0x608060405234801561001057600080fd5b50600180546001600160a01b03191633179055612913806100326000396000f3fe6080604052600436106100a75760003560e01c80635786f656116100645780635786f656146101df5780638c7e8d1c146102245780638ff0adad146102de578063bb480c2e14610324578063dd7e6f901461034e578063fc0c546a14610381576100a7565b806303b6576a146100ac578063049b31b7146100ed57806306aa74181461012257806307e7d0011461014c57806337cef7911461017c578063477ddd8e146101af575b600080fd5b3480156100b857600080fd5b506100d6600480360360208110156100cf57600080fd5b50356103b2565b6040805161ffff9092168252519081900360200190f35b3480156100f957600080fd5b506101206004803603604081101561011057600080fd5b508035906020013560ff16610430565b005b34801561012e57600080fd5b506101206004803603602081101561014557600080fd5b50356104a8565b34801561015857600080fd5b506101206004803603604081101561016f57600080fd5b508035906020013561052b565b34801561018857600080fd5b506100d66004803603602081101561019f57600080fd5b50356001600160a01b0316610585565b3480156101bb57600080fd5b50610120600480360360408110156101d257600080fd5b50803590602001356105d6565b3480156101eb57600080fd5b506101206004803603606081101561020257600080fd5b506001600160a01b03813581169160208101358216916040909101351661062a565b34801561023057600080fd5b506101206004803603606081101561024757600080fd5b81019060208101813564010000000081111561026257600080fd5b82018360208201111561027457600080fd5b8035906020019184600183028401116401000000008311171561029657600080fd5b91908080601f016020809104026020016040519081016040528093929190818152602001838380828437600092019190915250929550508235935050506020013515156106b2565b610310600480360360808110156102f457600080fd5b508035906020810135906040810135906060013560ff16610be9565b604080519115158252519081900360200190f35b34801561033057600080fd5b506101206004803603602081101561034757600080fd5b5035610f78565b34801561035a57600080fd5b506101206004803603602081101561037157600080fd5b50356001600160a01b0316611020565b34801561038d57600080fd5b5061039661108b565b604080516001600160a01b039092168252519081900360200190f35b60035460408051631360636960e11b81526004810184905290516000926001600160a01b0316916326c0c6d2916024808301926020929190829003018186803b1580156103fe57600080fd5b505afa158015610412573d6000803e3d6000fd5b505050506040513d602081101561042857600080fd5b505192915050565b600354604080516360bc056360e01b81526004810185905233602482015260ff8416604482015290516001600160a01b03909216916360bc05639160648082019260009290919082900301818387803b15801561048c57600080fd5b505af11580156104a0573d6000803e3d6000fd5b505050505050565b6003546040805163abf57dcf60e01b81526004810184905233602482015290516001600160a01b039092169163abf57dcf916044808201926020929091908290030181600087803b1580156104fc57600080fd5b505af1158015610510573d6000803e3d6000fd5b505050506040513d602081101561052657600080fd5b505050565b600354604080516309f8d45560e41b8152600481018590526024810184905233604482015290516001600160a01b0390921691639f8d45509160648082019260009290919082900301818387803b15801561048c57600080fd5b600254604080516337cef79160e01b81526001600160a01b038481166004830152915160009392909216916337cef79191602480820192602092909190829003018186803b1580156103fe57600080fd5b600354604080516323beeec760e11b8152600481018590526024810184905290516001600160a01b039092169163477ddd8e9160448082019260009290919082900301818387803b15801561048c57600080fd5b6001546001600160a01b031633146106735760405162461bcd60e51b81526004018080602001828103825260388152602001806128a66038913960400191505060405180910390fd5b600480546001600160a01b039485166001600160a01b031991821617909155600280549385169382169390931790925560038054919093169116179055565b60006106c4838563ffffffff61109a16565b6003546040805163ee324da960e01b815233600482015290519293506001600160a01b039091169163ee324da991602480820192602092909190829003018186803b15801561071257600080fd5b505afa158015610726573d6000803e3d6000fd5b505050506040513d602081101561073c57600080fd5b505161078f576040805162461bcd60e51b815260206004820152601c60248201527f596f752063616e2774206a756467652074686520646566656e64656500000000604482015290519081900360640190fd5b600354604080516311aea33760e21b815260048101869052905133926001600160a01b0316916346ba8cdc916024808301926020929190829003018186803b1580156107da57600080fd5b505afa1580156107ee573d6000803e3d6000fd5b505050506040513d602081101561080457600080fd5b50516001600160a01b03161461084b5760405162461bcd60e51b815260040180806020018281038252602581526020018061285f6025913960400191505060405180910390fd5b600480546040805163c1ffa89160e01b8152928301849052516001600160a01b039091169163c1ffa891916024808301926020929190829003018186803b15801561089557600080fd5b505afa1580156108a9573d6000803e3d6000fd5b505050506040513d60208110156108bf57600080fd5b505115610909576040805162461bcd60e51b8152602060048201526013602482015272497420697320616c7265616479206a7564676560681b604482015290519081900360640190fd5b6004805460408051633e43e0cd60e21b8152928301849052516001600160a01b039091169163f90f8334916024808301926020929190829003018186803b15801561095357600080fd5b505afa158015610967573d6000803e3d6000fd5b505050506040513d602081101561097d57600080fd5b505160ff166002146109cd576040805162461bcd60e51b8152602060048201526014602482015273506c6561736520696e706563742066697273742160601b604482015290519081900360640190fd5b8115610a4b57600480546040805162baf85760e31b815292830184905260016024840152516001600160a01b03909116916305d7c2b891604480830192600092919082900301818387803b158015610a2457600080fd5b505af1158015610a38573d6000803e3d6000fd5b50505050610a468184611109565b610ac5565b600480546040805162baf85760e31b815292830184905260006024840181905290516001600160a01b03909216926305d7c2b8926044808301939282900301818387803b158015610a9b57600080fd5b505af1158015610aaf573d6000803e3d6000fd5b50505050610abc81611208565b610ac583611429565b60035460408051637a2802e160e11b81526004810186905260006024820181905233604483015291516001600160a01b039093169263f45005c29260648084019391929182900301818387803b158015610b1e57600080fd5b505af1158015610b32573d6000803e3d6000fd5b505050507f21388db38286433cc067548abbb5aed74cbb53c59378b4672b9633c82d229ff8848484604051808060200184815260200183151515158152602001828103825285818151815260200191508051906020019080838360005b83811015610ba7578181015183820152602001610b8f565b50505050905090810190601f168015610bd45780820380516001836020036101000a031916815260200191505b5094505050505060405180910390a150505050565b6000348414610c3f576040805162461bcd60e51b815260206004820152601960248201527f506c656173652073656e642045746820636f72726563746c7900000000000000604482015290519081900360640190fd5b600354604080516311aea33760e21b81526004810188905290516000926001600160a01b0316916346ba8cdc916024808301926020929190829003018186803b158015610c8b57600080fd5b505afa158015610c9f573d6000803e3d6000fd5b505050506040513d6020811015610cb557600080fd5b50516001600160a01b03161415610d28576702c68af0bb140000341015610d23576040805162461bcd60e51b815260206004820152601860248201527f53656e64206d6f7265207468616e20302e322065746865720000000000000000604482015290519081900360640190fd5b610d85565b671bc16d674ec80000341015610d85576040805162461bcd60e51b815260206004820152601860248201527f53656e64206d6f7265207468616e20322e302065746865720000000000000000604482015290519081900360640190fd5b600360009054906101000a90046001600160a01b03166001600160a01b0316638a59bddd6040518163ffffffff1660e01b815260040160206040518083038186803b158015610dd357600080fd5b505afa158015610de7573d6000803e3d6000fd5b505050506040513d6020811015610dfd57600080fd5b5051610e0b57610d2361149d565b60035460408051630665552360e11b8152336004820152602481018890523460448201526064810186905260ff8516608482015290516001600160a01b0390921691630ccaaa469160a48082019260009290919082900301818387803b158015610e7457600080fd5b505af1158015610e88573d6000803e3d6000fd5b505050507f24fadb4a7dacf8cd987fcf71548d17d2252f7dcad5e97afd9ff7a294a8aa5aca85858585600360009054906101000a90046001600160a01b03166001600160a01b03166326c0c6d28b6040518263ffffffff1660e01b81526004018082815260200191505060206040518083038186803b158015610f0a57600080fd5b505afa158015610f1e573d6000803e3d6000fd5b505050506040513d6020811015610f3457600080fd5b50516040805195865260208601949094528484019290925260ff16606084015261ffff1660808301523360a0830152519081900360c00190a1506001949350505050565b60035460408051632810505360e01b81523360048201526024810184905290516001600160a01b039092169163281050539160448082019260009290919082900301818387803b158015610fcb57600080fd5b505af1158015610fdf573d6000803e3d6000fd5b50506040805184815233602082015281517f76574469bd228368be4bab2c6777d2ae053129a6f0085517648a31f15a6ef4739450908190039091019150a150565b6001546001600160a01b031633146110695760405162461bcd60e51b81526004018080602001828103825260388152602001806128a66038913960400191505060405180910390fd5b600080546001600160a01b0319166001600160a01b0392909216919091179055565b6000546001600160a01b031681565b80516020820120604080518181526060818101835260009392909190602082018180368337505060408051602080825281830190925292935060609291508082018180368337505050602081810197885290519096209582019586525060408101919091525190922092915050565b6111138282611d88565b60035460408051633246bbb360e21b81526004810185905290516001600160a01b039092169163c91aeecc9160248082019260009290919082900301818387803b15801561116057600080fd5b505af1158015611174573d6000803e3d6000fd5b505050505b600360009054906101000a90046001600160a01b03166001600160a01b0316638a59bddd6040518163ffffffff1660e01b815260040160206040518083038186803b1580156111c757600080fd5b505afa1580156111db573d6000803e3d6000fd5b505050506040513d60208110156111f157600080fd5b5051611204576111ff61149d565b611179565b5050565b60048054604080516306c9bf1360e41b8152928301849052516000926001600160a01b0390921691636c9bf130916024808301926020929190829003018186803b15801561125557600080fd5b505afa158015611269573d6000803e3d6000fd5b505050506040513d602081101561127f57600080fd5b505160035460408051633246bbb360e21b81526004810186905290519293506001600160a01b039091169163c91aeecc9160248082019260009290919082900301818387803b1580156112d157600080fd5b505af11580156112e5573d6000803e3d6000fd5b506000925050505b8160ff168160ff161015610526576004805460408051631e0a7a2760e01b815292830186905260ff84166024840152516000926001600160a01b0390921691631e0a7a27916044808301926020929190829003018186803b15801561135157600080fd5b505afa158015611365573d6000803e3d6000fd5b505050506040513d602081101561137b57600080fd5b505160048054604080516335375a4160e01b81529283018890526001600160a01b038085166024850152905193945016916335375a4191604480820192602092909190829003018186803b1580156113d257600080fd5b505afa1580156113e6573d6000803e3d6000fd5b505050506040513d60208110156113fc57600080fd5b505115156001141561141757611411816125a9565b50611420565b61142081612623565b506001016112ed565b60035460408051636312d5d760e01b81526004810184905260006024820181905233604483015291516001600160a01b0390931692636312d5d79260648084019391929182900301818387803b15801561148257600080fd5b505af1158015611496573d6000803e3d6000fd5b5050505050565b600360009054906101000a90046001600160a01b03166001600160a01b0316638a59bddd6040518163ffffffff1660e01b815260040160206040518083038186803b1580156114eb57600080fd5b505afa1580156114ff573d6000803e3d6000fd5b505050506040513d602081101561151557600080fd5b505115611569576040805162461bcd60e51b815260206004820152601960248201527f4e6f20746172676574206f6620636f6d70656e736174696f6e00000000000000604482015290519081900360640190fd5b6003546040805163ee324da960e01b815233600482015290516001600160a01b039092169163ee324da991602480820192602092909190829003018186803b1580156115b457600080fd5b505afa1580156115c8573d6000803e3d6000fd5b505050506040513d60208110156115de57600080fd5b505161161b5760405162461bcd60e51b81526004018080602001828103825260228152602001806128846022913960400191505060405180910390fd5b60035460408051638fdcb0ff60e01b815290516000926001600160a01b031691638fdcb0ff91600480830192602092919082900301818787803b15801561166157600080fd5b505af1158015611675573d6000803e3d6000fd5b505050506040513d602081101561168b57600080fd5b505160048054604080516306c9bf1360e41b81529283018490525192935060009283926001600160a01b0390921691636c9bf130916024808301926020929190829003018186803b1580156116df57600080fd5b505afa1580156116f3573d6000803e3d6000fd5b505050506040513d602081101561170957600080fd5b5051600480546040805163392e9dad60e01b8152928301879052519293506000926001600160a01b039091169163392e9dad916024808301926020929190829003018186803b15801561175b57600080fd5b505afa15801561176f573d6000803e3d6000fd5b505050506040513d602081101561178557600080fd5b50519050478110801561180a5750600480546040805163fb381b2560e01b8152928301879052516001600160a01b039091169163fb381b25916024808301926020929190829003018186803b1580156117dd57600080fd5b505afa1580156117f1573d6000803e3d6000fd5b505050506040513d602081101561180757600080fd5b50515b156118be57600480546040805163e987f01d60e01b8152928301879052516001600160a01b039091169163e987f01d916024808301926020929190829003018186803b15801561185957600080fd5b505afa15801561186d573d6000803e3d6000fd5b505050506040513d602081101561188357600080fd5b50516040516001600160a01b039091169082156108fc029083906000818181858888f193505050501580156118bc573d6000803e3d6000fd5b505b600092505b8160ff168360ff161015611d82576004805460408051635c3a684f60e11b8152928301879052516001600160a01b039091169163b874d09e916024808301926020929190829003018186803b15801561191b57600080fd5b505afa15801561192f573d6000803e3d6000fd5b505050506040513d602081101561194557600080fd5b5051611b24576004805460408051631e0a7a2760e01b815292830187905260ff86166024840152516000926001600160a01b0390921691631e0a7a27916044808301926020929190829003018186803b1580156119a157600080fd5b505afa1580156119b5573d6000803e3d6000fd5b505050506040513d60208110156119cb57600080fd5b50516004805460408051631a644d3360e11b815292830189905260ff88166024840152519293506000926001600160a01b03909116916334c89a66916044808301926020929190829003018186803b158015611a2657600080fd5b505afa158015611a3a573d6000803e3d6000fd5b505050506040513d6020811015611a5057600080fd5b5051905047811115611a63575050611d82565b60048054604080516335375a4160e01b81529283018990526001600160a01b03858116602485015290519116916335375a41916044808301926020929190829003018186803b158015611ab557600080fd5b505afa158015611ac9573d6000803e3d6000fd5b505050506040513d6020811015611adf57600080fd5b5051611b1d576040516001600160a01b0383169082156108fc029083906000818181858888f19350505050158015611b1b573d6000803e3d6000fd5b505b5050611d77565b6004805460408051631e0a7a2760e01b815292830187905260ff86166024840152516000926001600160a01b0390921691631e0a7a27916044808301926020929190829003018186803b158015611b7a57600080fd5b505afa158015611b8e573d6000803e3d6000fd5b505050506040513d6020811015611ba457600080fd5b50516004805460408051631a644d3360e11b815292830189905260ff88166024840152519293506000926001600160a01b03909116916334c89a66916044808301926020929190829003018186803b158015611bff57600080fd5b505afa158015611c13573d6000803e3d6000fd5b505050506040513d6020811015611c2957600080fd5b5051905047811115611c3c575050611d82565b600480546040805163fb381b2560e01b8152928301899052516001600160a01b039091169163fb381b25916024808301926020929190829003018186803b158015611c8657600080fd5b505afa158015611c9a573d6000803e3d6000fd5b505050506040513d6020811015611cb057600080fd5b505160048054604080516335375a4160e01b81529283018a90526001600160a01b0386811660248501529051931515939116916335375a41916044808301926020929190829003018186803b158015611d0857600080fd5b505afa158015611d1c573d6000803e3d6000fd5b505050506040513d6020811015611d3257600080fd5b505115151415611d74576040516001600160a01b0383169082156108fc029083906000818181858888f19350505050158015611d72573d6000803e3d6000fd5b505b50505b6001909201916118c3565b50505050565b60035460408051630d7abdcb60e11b81526004810184905290516000926001600160a01b031691631af57b96916024808301926020929190829003018186803b158015611dd457600080fd5b505afa158015611de8573d6000803e3d6000fd5b505050506040513d6020811015611dfe57600080fd5b5051600480546040805163fb381b2560e01b8152928301879052519293506001600160a01b03169163fb381b2591602480820192602092909190829003018186803b158015611e4c57600080fd5b505afa158015611e60573d6000803e3d6000fd5b505050506040513d6020811015611e7657600080fd5b50511515600114611ece576040805162461bcd60e51b815260206004820152601860248201527f547279206974206f6e6c79207269676874206a75646765210000000000000000604482015290519081900360640190fd5b600054604080516370a0823160e01b8152336004820152905183926001600160a01b0316916370a08231916024808301926020929190829003018186803b158015611f1857600080fd5b505afa158015611f2c573d6000803e3d6000fd5b505050506040513d6020811015611f4257600080fd5b50511015611f8c576040805162461bcd60e51b8152602060048201526012602482015271596f75206e65656420746f2063686172676560701b604482015290519081900360640190fd5b6000611f9f82600263ffffffff61267d16565b90506000611fb3838363ffffffff6126c616565b60048054604080516306c9bf1360e41b81529283018990525192935060009283926001600160a01b0390921691636c9bf130916024808301926020929190829003018186803b15801561200557600080fd5b505afa158015612019573d6000803e3d6000fd5b505050506040513d602081101561202f57600080fd5b5051905060005b8160ff168160ff161015612167576004805460408051631e0a7a2760e01b81529283018b905260ff84166024840152516000926001600160a01b0390921691631e0a7a27916044808301926020929190829003018186803b15801561209a57600080fd5b505afa1580156120ae573d6000803e3d6000fd5b505050506040513d60208110156120c457600080fd5b505160048054604080516335375a4160e01b81529283018d90526001600160a01b038085166024850152905193945016916335375a4191604480820192602092909190829003018186803b15801561211b57600080fd5b505afa15801561212f573d6000803e3d6000fd5b505050506040513d602081101561214557600080fd5b50511561215e5761215581610585565b61ffff16840193505b50600101612036565b5060035460408051636e553f6560e01b81526004810188905233602482015290516001600160a01b0390921691636e553f659160448082019260009290919082900301818387803b1580156121bb57600080fd5b505af11580156121cf573d6000803e3d6000fd5b5050600480546040805163e987f01d60e01b81529283018c905251600094506001600160a01b03909116925063e987f01d91602480820192602092909190829003018186803b15801561222157600080fd5b505afa158015612235573d6000803e3d6000fd5b505050506040513d602081101561224b57600080fd5b50516001600160a01b03161415612296576040805162461bcd60e51b815260206004820152600a6024820152696865726521212121212160b01b604482015290519081900360640190fd5b600354600480546040805163e987f01d60e01b81529283018b9052516001600160a01b03938416936315eaef6b9333939091169163e987f01d91602480820192602092909190829003018186803b1580156122f057600080fd5b505afa158015612304573d6000803e3d6000fd5b505050506040513d602081101561231a57600080fd5b5051604080516001600160e01b031960e086901b1681526001600160a01b0393841660048201529290911660248301526044820188905251606480830192600092919082900301818387803b15801561237257600080fd5b505af1158015612386573d6000803e3d6000fd5b506000925050505b8160ff168160ff161015612596576004805460408051631e0a7a2760e01b81529283018b905260ff84166024840152516000926001600160a01b0390921691631e0a7a27916044808301926020929190829003018186803b1580156123f257600080fd5b505afa158015612406573d6000803e3d6000fd5b505050506040513d602081101561241c57600080fd5b505190506001600160a01b038116612468576040805162461bcd60e51b815260206004820152600a6024820152696865726521212121212160b01b604482015290519081900360640190fd5b60048054604080516335375a4160e01b81529283018c90526001600160a01b03848116602485015290519116916335375a41916044808301926020929190829003018186803b1580156124ba57600080fd5b505afa1580156124ce573d6000803e3d6000fd5b505050506040513d60208110156124e457600080fd5b50511561258d5760006124f682610585565b61ffff1685878161250357fe5b600354604080516315eaef6b60e01b81523360048201526001600160a01b038881166024830152949093049490940260448301819052935193945091909116916315eaef6b9160648082019260009290919082900301818387803b15801561256a57600080fd5b505af115801561257e573d6000803e3d6000fd5b5050505061258b82612623565b505b5060010161238e565b506125a086612708565b50505050505050565b600254604080516331ee621960e21b81526001600160a01b0384811660048301526000602483018190526044830181905292519293169163c7b9886491606480820192869290919082900301818387803b15801561260657600080fd5b505af115801561261a573d6000803e3d6000fd5b50505050919050565b600254604080516331ee621960e21b81526001600160a01b03848116600483015260016024830152600060448301819052925193169263c7b988649260648084019391929182900301818387803b15801561148257600080fd5b60006126bf83836040518060400160405280601a81526020017f536166654d6174683a206469766973696f6e206279207a65726f000000000000815250612762565b9392505050565b60006126bf83836040518060400160405280601e81526020017f536166654d6174683a207375627472616374696f6e206f766572666c6f770000815250612804565b60035460408051636312d5d760e01b8152600481018490526001602482015233604482015290516001600160a01b0390921691636312d5d79160648082019260009290919082900301818387803b15801561148257600080fd5b600081836127ee5760405162461bcd60e51b81526004018080602001828103825283818151815260200191508051906020019080838360005b838110156127b357818101518382015260200161279b565b50505050905090810190601f1680156127e05780820380516001836020036101000a031916815260200191505b509250505060405180910390fd5b5060008385816127fa57fe5b0495945050505050565b600081848411156128565760405162461bcd60e51b81526020600482018181528351602484015283519092839260449091019190850190808383600083156127b357818101518382015260200161279b565b50505090039056fe596f752063616e277420646563696465207468617420646566656e646565207265706f7274506c6561736520526567697374657220796f75722061646472657373206669727374546869732066756e6374696f6e2063616e206265206f6e6c7920657865637574656420627920636f6e747261637420646576656c6f706572a26469706673582212202dd7868d314ac66962f2c3b3815379a4266065315db46695e55382b52c42ae6d64736f6c634300060a0033",
  "immutableReferences": {},
  "source": "// SPDX-License-Identifier: MIT\npragma solidity >=0.4.21 <0.7.0;\nimport './compensate/Compensate.sol';\nimport './events/JudgeEvents.sol';\n\n/**\n *@title JudgeByMedia\n *@author  Wanggyu, Suh\n *@notice Judge reports and compensate each report\n */\ncontract JudgeByMedia is Compensate, JudgeEvents{\n    using Report for Report.Link;\n    using Report for bytes32;\n\n    constructor() public {\n        developerAddress = msg.sender;\n    }\n\n    function holdDatabase(ReportData _reportStorage, InspectData _inspertorStorage, DefendeeData _defendeeStorage) public onlyDeveloper {\n        reportStorage = _reportStorage;\n        inspertorStorage = _inspertorStorage;\n        defendeeStorage = _defendeeStorage;\n    }\n\n    function registerCopyrighter(bytes32 _name) public {\n        defendeeStorage.setCopyrighter(msg.sender, _name);\n        emit RegisterCopyrighter(_name, msg.sender);\n    }\n\n     /**\n       @dev DefendContract.registerDefendee(name, amount,{ value : amount} )\n       This function register a defended target with compensation money for\n       fee that reporter and inspector pay to ethereum network.\n       It will can't compensate all of their fee and not to everyone who inspect or report,\n       But, It can help to activate this service.\n    */\n    function registerDefendee(\n        bytes32 _name,\n        uint256 _pendingEth,\n        uint256 _rewardAmount,\n        uint8 _inspectCount\n    )\n        public payable returns (bool)\n    {\n        /* Please make same even if different judge contract */\n        require(_pendingEth == msg.value,\"Please send Eth correctly\");\n\n        if(defendeeStorage.getDefendeeOwnerAddress(_name) == address(0))\n            require(msg.value >= 0.2 ether,\"Send more than 0.2 ether\");\n        else\n            require(msg.value >= 2 ether, \"Send more than 2.0 ether\");\n\n        while(!defendeeStorage.getCompensationIsEmpty())\n            compensateFee();\n        defendeeStorage.setDefendee(msg.sender, _name, msg.value, _rewardAmount, _inspectCount);\n        emit RegisterDefendee(_name, _pendingEth, _rewardAmount, _inspectCount,defendeeStorage.getDefendeeRate(_name),msg.sender);\n        return true;\n    }\n\n    function deleteDefendee(bytes32 _defendeeName) public {\n        defendeeStorage.deleteDefendee(_defendeeName, msg.sender);\n    }\n\n    function addIPToBlackList(bytes32 _ip, bytes32 _defendeeName) public {\n        defendeeStorage.addIPToBlackList(_ip, _defendeeName);\n    }\n\n    function addIPtoWhiteList(bytes32 _ip, bytes32 _defendeeName) public {\n        defendeeStorage.addIPtoWhiteList(_ip, _defendeeName, msg.sender);\n    }\n\n    function changeModeOfDefendee(bytes32 _defendeeName, uint8 _mode) public {\n        defendeeStorage.changeMode(_defendeeName, msg.sender, _mode);\n    }\n\n    function judge(bytes memory _domain, bytes32 _defendeeName, bool _decision) public {\n        bytes32 meta = _defendeeName.makeMetaDataForLink(_domain);\n\n        require(defendeeStorage.getAbleCopyrighters(msg.sender), \"You can't judge the defendee\");\n        require(defendeeStorage.getDefendeeOwnerAddress(_defendeeName) == msg.sender, \"You can't decide that defendee report\");\n        require(!reportStorage.getReportDisabled(meta), \"It is already judge\");\n        require(reportStorage.getStep(meta) == 2, \"Please inpect first!\");\n        if(_decision) {\n            reportStorage.setReportJudge(meta, true);\n            approveReport(meta, _defendeeName);\n        } else {\n            reportStorage.setReportJudge(meta, false);\n            denyReport(meta);\n            decreaseRateDefendee(_defendeeName);\n        }\n        defendeeStorage.setUnjudged(_defendeeName, false, msg.sender);\n        emit Judge(_domain, _defendeeName, _decision);\n    }\n\n    function approveReport(bytes32 _meta, bytes32 _defendeeName) private {\n        compensateReport(_meta, _defendeeName);\n        defendeeStorage.compenSationQueueEnqueue(_meta);\n        while(!defendeeStorage.getCompensationIsEmpty())\n            compensateFee();\n\n    }\n\n    /* @dev     ,    , \n     *    .\n     */\n    function denyReport(bytes32 _meta) private {\n        uint8 num = reportStorage.getNumberOfInspector(_meta);\n        defendeeStorage.compenSationQueueEnqueue(_meta);\n        for(uint8 i = 0; i < num; i++){\n            address targetAddress = reportStorage.getInspectorAddress(_meta, i);\n            if(reportStorage.getInspectDecision(_meta, targetAddress) == true) {\n                decreaseRate(targetAddress);\n            } else {\n                increaseRate(targetAddress);\n            }\n        }\n    }\n}",
  "sourcePath": "/home/ubuntu/workspace/Detok/core/decentralized/contracts/JudgeByMedia.sol",
  "compiler": {
    "name": "solc",
    "version": "0.6.10+commit.00c0fcaf.Emscripten.clang"
  },
  "schemaVersion": "3.3.4",
  "updatedAt": "2021-04-15T04:48:05.817Z",
  "networkType": "ethereum",
  "devdoc": {
    "author": "Wanggyu, Suh",
    "methods": {
      "registerDefendee(bytes32,uint256,uint256,uint8)": {
        "details": "DefendContract.registerDefendee(name, amount,{ value : amount} ) This function register a defended target with compensation money for fee that reporter and inspector pay to ethereum network. It will can't compensate all of their fee and not to everyone who inspect or report, But, It can help to activate this service."
      }
    },
    "title": "JudgeByMedia"
  },
  "userdoc": {
    "methods": {},
    "notice": "Judge reports and compensate each report"
  }
}