{
  "contractName": "Notify",
  "abi": [
    {
      "inputs": [],
      "stateMutability": "nonpayable",
      "type": "constructor"
    },
    {
      "anonymous": false,
      "inputs": [
        {
          "indexed": false,
          "internalType": "bytes",
          "name": "domain",
          "type": "bytes"
        },
        {
          "indexed": false,
          "internalType": "bytes32",
          "name": "defendeeName",
          "type": "bytes32"
        },
        {
          "indexed": false,
          "internalType": "bytes32",
          "name": "ip",
          "type": "bytes32"
        },
        {
          "indexed": false,
          "internalType": "address",
          "name": "reporterAddress",
          "type": "address"
        }
      ],
      "name": "Reporting",
      "type": "event"
    },
    {
      "anonymous": false,
      "inputs": [
        {
          "indexed": false,
          "internalType": "bytes32",
          "name": "defendeeName",
          "type": "bytes32"
        },
        {
          "indexed": false,
          "internalType": "bytes32",
          "name": "ip",
          "type": "bytes32"
        },
        {
          "indexed": false,
          "internalType": "address",
          "name": "reporterAddress",
          "type": "address"
        }
      ],
      "name": "addingBlackList",
      "type": "event"
    },
    {
      "inputs": [
        {
          "internalType": "contract ReportData",
          "name": "_reportStorage",
          "type": "address"
        },
        {
          "internalType": "contract DefendeeData",
          "name": "_defendeeStorage",
          "type": "address"
        }
      ],
      "name": "holdDatabase",
      "outputs": [],
      "stateMutability": "nonpayable",
      "type": "function"
    },
    {
      "inputs": [
        {
          "internalType": "bytes",
          "name": "_domain",
          "type": "bytes"
        },
        {
          "internalType": "bytes32",
          "name": "_defendeeName",
          "type": "bytes32"
        },
        {
          "internalType": "bytes32",
          "name": "_ip",
          "type": "bytes32"
        }
      ],
      "name": "notifyHandler",
      "outputs": [],
      "stateMutability": "nonpayable",
      "type": "function"
    }
  ],
  "bytecode": "0x608060405234801561001057600080fd5b50600280546001600160a01b03191633179055610a8f806100326000396000f3fe608060405234801561001057600080fd5b50600436106100365760003560e01c80634e7cf4591461003b578063df26c82114610050575b600080fd5b61004e610049366004610808565b610063565b005b61004e61005e36600461075e565b6100c4565b6002546001600160a01b031633146100965760405162461bcd60e51b815260040161008d90610a15565b60405180910390fd5b600080546001600160a01b039384166001600160a01b03199182161790915560018054929093169116179055565b818160005a905060006100dd868863ffffffff6106ac16565b600154604051631e3b06c760e01b81529192506001600160a01b031690631e3b06c79061010e9089906004016108ac565b60206040518083038186803b15801561012657600080fd5b505afa15801561013a573d6000803e3d6000fd5b505050506040513d601f19601f8201168201806040525081019061015e919061073e565b151560011461017f5760405162461bcd60e51b815260040161008d90610952565b6000805460405163e987f01d60e01b81526001600160a01b039091169063e987f01d906101b09085906004016108ac565b60206040518083038186803b1580156101c857600080fd5b505afa1580156101dc573d6000803e3d6000fd5b505050506040513d601f19601f82011682018060405250810190610200919061071b565b6001600160a01b0316146102265760405162461bcd60e51b815260040161008d90610998565b6001546040516301cc2a1360e11b81526000916001600160a01b031690630398542690610257908a906004016108ac565b60206040518083038186803b15801561026f57600080fd5b505afa158015610283573d6000803e3d6000fd5b505050506040513d601f19601f820116820180604052508101906102a79190610840565b905060ff811661033f57600054604051630373aecb60e31b81526001600160a01b0390911690631b9d7658906102e7908b908b9033908c906004016108e2565b602060405180830381600087803b15801561030157600080fd5b505af1158015610315573d6000803e3d6000fd5b505050506040513d601f19601f82011682018060405250810190610339919061073e565b506105f3565b8060ff166001141561041f5760015460405163e57d44cb60e01b81526001600160a01b039091169063e57d44cb9061037d9089908b906004016108b5565b60206040518083038186803b15801561039557600080fd5b505afa1580156103a9573d6000803e3d6000fd5b505050506040513d601f19601f820116820180604052508101906103cd919061073e565b6103e95760405162461bcd60e51b815260040161008d906109c0565b600054604051630373aecb60e31b81526001600160a01b0390911690631b9d7658906102e7908b908b9033908c906004016108e2565b8060ff16600214156105f3576001546040516301b86cad60e41b81526001600160a01b0390911690631b86cad09061045d9089908b906004016108b5565b60206040518083038186803b15801561047557600080fd5b505afa158015610489573d6000803e3d6000fd5b505050506040513d601f19601f820116820180604052508101906104ad919061073e565b156104ca5760405162461bcd60e51b815260040161008d906109f0565b600054604051630373aecb60e31b81526001600160a01b0390911690631b9d765890610500908b908b9033908c906004016108e2565b602060405180830381600087803b15801561051a57600080fd5b505af115801561052e573d6000803e3d6000fd5b505050506040513d601f19601f82011682018060405250810190610552919061073e565b506001546040516323beeec760e11b81526001600160a01b039091169063477ddd8e906105859089908b906004016108b5565b600060405180830381600087803b15801561059f57600080fd5b505af11580156105b3573d6000803e3d6000fd5b505050507f95224ecb5b39e9c1643fc94e442c30500aa670e477882c600ddc0d4e19de909c8787336040516105ea939291906108c3565b60405180910390a15b7f77bdd3ecb520c7b5bb194a7d23aa306df7998fb9f79e757d2a2084cfa93686fb88888833604051610628949392919061091a565b60405180910390a160003a5a6000546040516313ce27f160e21b81529187039290920292506001600160a01b0390911690634f389fc49061066f90869085906004016108b5565b600060405180830381600087803b15801561068957600080fd5b505af115801561069d573d6000803e3d6000fd5b50505050505050505050505050565b80516020820120604080518181526060818101835260009392909190602082018180368337505060408051602080825281830190925292935060609291508082018180368337505050602081810197885290519096209582019586525060408101919091525190922092915050565b60006020828403121561072c578081fd5b815161073781610a41565b9392505050565b60006020828403121561074f578081fd5b81518015158114610737578182fd5b600080600060608486031215610772578182fd5b833567ffffffffffffffff80821115610789578384fd5b81860187601f82011261079a578485fd5b80359250818311156107aa578485fd5b6040516020601f8501601f19168201810184811183821017156107cb578788fd5b60405284825282850181018a10156107e1578687fd5b84818401828401379381018401959095525092969085013595506040909401359392505050565b6000806040838503121561081a578182fd5b823561082581610a41565b9150602083013561083581610a41565b809150509250929050565b600060208284031215610851578081fd5b815160ff81168114610737578182fd5b60008151808452815b818110156108865760208185018101518683018201520161086a565b818111156108975782602083870101525b50601f01601f19169290920160200192915050565b90815260200190565b918252602082015260400190565b92835260208301919091526001600160a01b0316604082015260600190565b6000608082526108f56080830187610861565b6020830195909552506001600160a01b03929092166040830152606090910152919050565b60006080825261092d6080830187610861565b60208301959095525060408101929092526001600160a01b0316606090910152919050565b60208082526026908201527f596f752063616e2774207265706f72742061626f75742074686973206d756c74604082015265696d6564696160d01b606082015260800190565b6020808252600e908201526d105b1c9958591e4814995c1bdc9d60921b604082015260600190565b60208082526016908201527504974206973206e6f74206e6f74696361626c652069760541b604082015260600190565b6020808252600b908201526a497420697320426c61636b60a81b604082015260600190565b60208082526012908201527127b7363c903337b9103232bb32b637b832b960711b604082015260600190565b6001600160a01b0381168114610a5657600080fd5b5056fea26469706673582212205c26560aea35c11f37211970c65ccec6f8feae313f1eab2c504b58d797ce6e4364736f6c634300060a0033",
  "immutableReferences": {},
  "source": "// SPDX-License-Identifier: MIT\npragma solidity >=0.4.21 <0.7.0;\npragma experimental ABIEncoderV2;\n\nimport './storeContract/ReportData.sol';\nimport './storeContract/DefendeeData.sol';\nimport './events/NoticeEvents.sol';\n\n/**\n *@title Notify\n *@author Wanggyu, Suh\n *@notice Report illegal links\n */\ncontract Notify is NoticeEvents{\n    using Report for bytes32;\n    /* Storage Contract of report and defendees\n       It helps Defender being DAO\n    */\n    ReportData reportStorage;\n    DefendeeData defendeeStorage;\n    address developer;\n\n    constructor() public {\n        developer = msg.sender;\n    }\n\n    modifier onlyDeveloper() {\n        require(msg.sender == developer, \"Only for developer\");\n        _;\n    }\n\n    modifier onlyNotInBlackList(bytes32 _defendeeName, bytes32 _ip) {\n        /* TODO : 블랙리스트 아이피에 해당하면 실행하지 않는 것을 만든다. */\n        _;\n    }\n\n    /* Hold database for notify */\n    function holdDatabase(ReportData _reportStorage, DefendeeData _defendeeStorage) public onlyDeveloper {\n        reportStorage = _reportStorage;\n        defendeeStorage = _defendeeStorage;\n    }\n\n    /**\n     *@dev mode0 : prevent only redundant domain\n      mode1 : only take white list ip\n      mode2 : only take not in blacklist ip\n     */\n    function notifyHandler(\n        bytes memory _domain,\n        bytes32 _defendeeName,\n        bytes32 _ip\n    )\n        public onlyNotInBlackList(_defendeeName, _ip)\n    {\n        uint256 startGas = gasleft();\n        bytes32 meta = _defendeeName.makeMetaDataForLink(_domain);\n        /* TODO : prevent self report?  maybe better way is not on chain*/\n        require(defendeeStorage.getDefendeeAble(_defendeeName) == true, \"You can't report about this multimedia\");\n        require(reportStorage.getReporterAddress(meta) == address(0),\"Already Report\");\n        uint8 mode = defendeeStorage.getMode(_defendeeName);\n        if (mode == 0)\n            reportStorage.setReport(_domain, _defendeeName, msg.sender, _ip);\n        else if (mode == 1){\n            require(defendeeStorage.checkWhiteList(_ip, _defendeeName), \"It is not noticable ip\");\n            reportStorage.setReport(_domain, _defendeeName, msg.sender, _ip);\n        }\n        else if (mode == 2){\n            /* TODO : 한번 들어온 IP 대역 안 받는 모드 생성하기 */\n            require(defendeeStorage.checkBlackList(_ip, _defendeeName)==false, \"It is Black\");\n            reportStorage.setReport(_domain, _defendeeName, msg.sender, _ip);\n            defendeeStorage.addIPToBlackList(_ip, _defendeeName);\n            emit addingBlackList(_defendeeName, _ip, msg.sender);\n        }\n        emit Reporting(_domain, _defendeeName, _ip, msg.sender);\n        uint256 usedFee = (startGas - gasleft()) * tx.gasprice;\n        reportStorage.setReportFee(meta,usedFee);\n    }\n}",
  "sourcePath": "/home/ubuntu/workspace/Detok/core/decentralized/contracts/Notify.sol",
  "compiler": {
    "name": "solc",
    "version": "0.6.10+commit.00c0fcaf.Emscripten.clang"
  },
  "schemaVersion": "3.3.4",
  "updatedAt": "2021-03-14T03:46:49.885Z",
  "networkType": "ethereum",
  "devdoc": {
    "author": "Wanggyu, Suh",
    "methods": {
      "notifyHandler(bytes,bytes32,bytes32)": {
        "details": "mode0 : prevent only redundant domain mode1 : only take white list ip mode2 : only take not in blacklist ip"
      }
    },
    "title": "Notify"
  },
  "userdoc": {
    "methods": {},
    "notice": "Report illegal links"
  }
}