{
  "contractName": "TokenTaker",
  "abi": [
    {
      "inputs": [],
      "name": "token",
      "outputs": [
        {
          "internalType": "contract DetokToken",
          "name": "",
          "type": "address"
        }
      ],
      "stateMutability": "view",
      "type": "function"
    },
    {
      "inputs": [
        {
          "internalType": "contract DetokToken",
          "name": "_token",
          "type": "address"
        }
      ],
      "name": "holdToken",
      "outputs": [],
      "stateMutability": "nonpayable",
      "type": "function"
    }
  ],
  "bytecode": "0x608060405234801561001057600080fd5b5061016f806100206000396000f3fe608060405234801561001057600080fd5b50600436106100365760003560e01c8063dd7e6f901461003b578063fc0c546a14610063575b600080fd5b6100616004803603602081101561005157600080fd5b50356001600160a01b0316610087565b005b61006b6100f2565b604080516001600160a01b039092168252519081900360200190f35b6001546001600160a01b031633146100d05760405162461bcd60e51b81526004018080602001828103825260388152602001806101026038913960400191505060405180910390fd5b600080546001600160a01b0319166001600160a01b0392909216919091179055565b6000546001600160a01b03168156fe546869732066756e6374696f6e2063616e206265206f6e6c7920657865637574656420627920636f6e747261637420646576656c6f706572a2646970667358221220fcb87ed30b2200dc094ab12f105e2c081fc60b2ab428cd39121b71044472c45e64736f6c634300060a0033",
  "immutableReferences": {},
  "source": "// SPDX-License-Identifier: MIT\npragma solidity >=0.4.21 <0.7.0;\nimport \"../node_modules/openzeppelin-solidity/contracts/token/ERC20/SafeERC20.sol\";\nimport \"./token/DetokToken.sol\";\n/* \n    This is for the Contract that wants to be role of Ethereum wallet.\n\n */\ncontract TokenTaker {\n    using SafeERC20 for DetokToken;\n    DetokToken public token;\n    address developerAddress;\n    \n    /* TODO : It will be change by token holder voting */\n    modifier onlyDeveloper() {\n        require(developerAddress == msg.sender, \"This function can be only executed by contract developer\");\n        _;\n    }\n\n    function holdToken(DetokToken _token) public onlyDeveloper {\n        token = _token;\n    }\n}",
  "sourcePath": "/home/ubuntu/detok/Detok/core/decentralized/contracts/TokenTaker.sol",
  "compiler": {
    "name": "solc",
    "version": "0.6.10+commit.00c0fcaf.Emscripten.clang"
  },
  "schemaVersion": "3.3.4",
  "updatedAt": "2021-03-02T10:52:48.184Z",
  "devdoc": {
    "methods": {}
  },
  "userdoc": {
    "methods": {}
  }
}