{
  "contractName": "DataStorage",
  "abi": [
    {
      "inputs": [],
      "name": "MAX_RATE_INSPECT",
      "outputs": [
        {
          "internalType": "uint16",
          "name": "",
          "type": "uint16"
        }
      ],
      "stateMutability": "view",
      "type": "function"
    },
    {
      "inputs": [],
      "name": "MAX_RATE_PLATFORM",
      "outputs": [
        {
          "internalType": "uint16",
          "name": "",
          "type": "uint16"
        }
      ],
      "stateMutability": "view",
      "type": "function"
    },
    {
      "inputs": [],
      "name": "MIN_RATE_INSPECT",
      "outputs": [
        {
          "internalType": "uint16",
          "name": "",
          "type": "uint16"
        }
      ],
      "stateMutability": "view",
      "type": "function"
    },
    {
      "inputs": [],
      "name": "MIN_RATE_PLATFORM",
      "outputs": [
        {
          "internalType": "uint16",
          "name": "",
          "type": "uint16"
        }
      ],
      "stateMutability": "view",
      "type": "function"
    },
    {
      "inputs": [],
      "name": "token",
      "outputs": [
        {
          "internalType": "contract DefenderToken",
          "name": "",
          "type": "address"
        }
      ],
      "stateMutability": "view",
      "type": "function"
    }
  ],
  "bytecode": "0x608060405234801561001057600080fd5b506101b1806100206000396000f3fe608060405234801561001057600080fd5b50600436106100575760003560e01c8063361a568f1461005c5780636376586f146100825780637f187dc3146100a8578063aa53163e146100ce578063fc0c546a146100f4575b600080fd5b61006461013e565b604051808261ffff1661ffff16815260200191505060405180910390f35b61008a610144565b604051808261ffff1661ffff16815260200191505060405180910390f35b6100b061014a565b604051808261ffff1661ffff16815260200191505060405180910390f35b6100d6610150565b604051808261ffff1661ffff16815260200191505060405180910390f35b6100fc610156565b604051808273ffffffffffffffffffffffffffffffffffffffff1673ffffffffffffffffffffffffffffffffffffffff16815260200191505060405180910390f35b61271081565b61ffff81565b61271081565b61ffff81565b6000809054906101000a900473ffffffffffffffffffffffffffffffffffffffff168156fea264697066735822122054e4196758c448ee9718c9b8ae22ecb63bb8dd427af5f0cf01eb28f3be4600fb64736f6c634300060a0033",
  "immutableReferences": {},
  "source": "// SPDX-License-Identifier: MIT\r\npragma solidity >=0.4.21 <0.7.0;\r\nimport '../library/Report.sol';\r\nimport '../token/DefenderToken.sol';\r\nimport '../library/Queue.sol';\r\nimport '../library/ObjStruct.sol';\r\n\r\ncontract DataStorage{\r\n\r\n    DefenderToken public token;\r\n    mapping (address => ObjStruct.Inspector) inspectors;\r\n    mapping (address => ObjStruct.Platform) platforms;\r\n    mapping (bytes32 => ObjStruct.Defendee) defendees;\r\n    \r\n    mapping (address => ObjStruct.Blower) blowers;\r\n    mapping (bytes => Report.link) reports;\r\n    mapping (bytes32 => Queue) readyJudgeQueue;\r\n\r\n    Queue compenSationQueue;\r\n    address payable representor;\r\n\r\n    uint16 constant public MAX_RATE_INSPECT = 65535;\r\n    uint16 constant public MIN_RATE_INSPECT = 10000;\r\n    uint16 constant public MAX_RATE_PLATFORM = 65535;\r\n    uint16 constant public MIN_RATE_PLATFORM = 10000;\r\n}",
  "sourcePath": "C:\\Users\\tjdhk\\OneDrive\\project\\CrowdReport\\contracts\\storeContract\\DataStorage.sol",
  "compiler": {
    "name": "solc",
    "version": "0.6.10+commit.00c0fcaf.Emscripten.clang"
  },
  "schemaVersion": "3.2.1",
  "updatedAt": "2020-07-10T03:41:59.513Z",
  "devdoc": {
    "methods": {}
  },
  "userdoc": {
    "methods": {}
  }
}