{
  "contractName": "DefendContract",
  "abi": [
    {
      "inputs": [],
      "stateMutability": "nonpayable",
      "type": "constructor"
    },
    {
      "inputs": [
        {
          "internalType": "bytes16",
          "name": "_ip",
          "type": "bytes16"
        },
        {
          "internalType": "bytes32",
          "name": "_defendeeName",
          "type": "bytes32"
        }
      ],
      "name": "CheckBlackList",
      "outputs": [
        {
          "internalType": "bool",
          "name": "",
          "type": "bool"
        }
      ],
      "stateMutability": "nonpayable",
      "type": "function"
    },
    {
      "inputs": [],
      "name": "MAX_RATE_INSPECT",
      "outputs": [
        {
          "internalType": "uint16",
          "name": "",
          "type": "uint16"
        }
      ],
      "stateMutability": "view",
      "type": "function",
      "constant": true
    },
    {
      "inputs": [],
      "name": "MAX_RATE_PLATFORM",
      "outputs": [
        {
          "internalType": "uint16",
          "name": "",
          "type": "uint16"
        }
      ],
      "stateMutability": "view",
      "type": "function",
      "constant": true
    },
    {
      "inputs": [],
      "name": "MIN_RATE_INSPECT",
      "outputs": [
        {
          "internalType": "uint16",
          "name": "",
          "type": "uint16"
        }
      ],
      "stateMutability": "view",
      "type": "function",
      "constant": true
    },
    {
      "inputs": [],
      "name": "MIN_RATE_PLATFORM",
      "outputs": [
        {
          "internalType": "uint16",
          "name": "",
          "type": "uint16"
        }
      ],
      "stateMutability": "view",
      "type": "function",
      "constant": true
    },
    {
      "inputs": [
        {
          "internalType": "bytes16",
          "name": "_ip",
          "type": "bytes16"
        },
        {
          "internalType": "bytes32",
          "name": "_defendeeName",
          "type": "bytes32"
        }
      ],
      "name": "addDomainToBlackList",
      "outputs": [],
      "stateMutability": "nonpayable",
      "type": "function"
    },
    {
      "inputs": [
        {
          "internalType": "address",
          "name": "account",
          "type": "address"
        }
      ],
      "name": "balanceOf",
      "outputs": [
        {
          "internalType": "uint256",
          "name": "",
          "type": "uint256"
        }
      ],
      "stateMutability": "view",
      "type": "function",
      "constant": true
    },
    {
      "inputs": [
        {
          "internalType": "uint256",
          "name": "amount",
          "type": "uint256"
        }
      ],
      "name": "deposit",
      "outputs": [],
      "stateMutability": "nonpayable",
      "type": "function"
    },
    {
      "inputs": [],
      "name": "getRate",
      "outputs": [
        {
          "internalType": "uint16",
          "name": "",
          "type": "uint16"
        }
      ],
      "stateMutability": "view",
      "type": "function",
      "constant": true
    },
    {
      "inputs": [
        {
          "internalType": "bytes",
          "name": "_domain",
          "type": "bytes"
        },
        {
          "internalType": "bytes32",
          "name": "_defendeeName",
          "type": "bytes32"
        },
        {
          "internalType": "bool",
          "name": "decision",
          "type": "bool"
        }
      ],
      "name": "inspect",
      "outputs": [
        {
          "internalType": "bytes32",
          "name": "",
          "type": "bytes32"
        }
      ],
      "stateMutability": "nonpayable",
      "type": "function"
    },
    {
      "inputs": [
        {
          "internalType": "bytes",
          "name": "_domain",
          "type": "bytes"
        },
        {
          "internalType": "bytes32",
          "name": "_defendeeName",
          "type": "bytes32"
        },
        {
          "internalType": "bool",
          "name": "_decision",
          "type": "bool"
        }
      ],
      "name": "judge",
      "outputs": [],
      "stateMutability": "nonpayable",
      "type": "function"
    },
    {
      "inputs": [
        {
          "internalType": "bytes",
          "name": "_domain",
          "type": "bytes"
        },
        {
          "internalType": "bytes32",
          "name": "_defendeeName",
          "type": "bytes32"
        },
        {
          "internalType": "bytes16",
          "name": "_ip",
          "type": "bytes16"
        },
        {
          "internalType": "string",
          "name": "_description",
          "type": "string"
        }
      ],
      "name": "notify",
      "outputs": [
        {
          "internalType": "bytes",
          "name": "",
          "type": "bytes"
        }
      ],
      "stateMutability": "nonpayable",
      "type": "function"
    },
    {
      "inputs": [
        {
          "internalType": "bytes32",
          "name": "_name",
          "type": "bytes32"
        },
        {
          "internalType": "uint256",
          "name": "_amount",
          "type": "uint256"
        },
        {
          "internalType": "uint256",
          "name": "_rewardAmount",
          "type": "uint256"
        },
        {
          "internalType": "uint8",
          "name": "_inspectCount",
          "type": "uint8"
        }
      ],
      "name": "registerDefendee",
      "outputs": [
        {
          "internalType": "bool",
          "name": "",
          "type": "bool"
        }
      ],
      "stateMutability": "payable",
      "type": "function",
      "payable": true
    },
    {
      "inputs": [],
      "name": "registerInspector",
      "outputs": [
        {
          "internalType": "bool",
          "name": "",
          "type": "bool"
        }
      ],
      "stateMutability": "nonpayable",
      "type": "function"
    },
    {
      "inputs": [
        {
          "internalType": "bytes32",
          "name": "_name",
          "type": "bytes32"
        }
      ],
      "name": "registerPlatform",
      "outputs": [
        {
          "internalType": "bool",
          "name": "",
          "type": "bool"
        }
      ],
      "stateMutability": "nonpayable",
      "type": "function"
    },
    {
      "inputs": [
        {
          "internalType": "bytes32",
          "name": "_defendeeName",
          "type": "bytes32"
        }
      ],
      "name": "selectJudgeTarget",
      "outputs": [
        {
          "internalType": "bytes",
          "name": "",
          "type": "bytes"
        }
      ],
      "stateMutability": "nonpayable",
      "type": "function"
    },
    {
      "inputs": [],
      "name": "token",
      "outputs": [
        {
          "internalType": "contract DefenderToken",
          "name": "",
          "type": "address"
        }
      ],
      "stateMutability": "view",
      "type": "function",
      "constant": true
    },
    {
      "inputs": [
        {
          "internalType": "uint256",
          "name": "amount",
          "type": "uint256"
        }
      ],
      "name": "withdraw",
      "outputs": [],
      "stateMutability": "nonpayable",
      "type": "function"
    },
    {
      "inputs": [
        {
          "internalType": "contract DefenderToken",
          "name": "_token",
          "type": "address"
        }
      ],
      "name": "holdToken",
      "outputs": [],
      "stateMutability": "nonpayable",
      "type": "function"
    },
    {
      "inputs": [],
      "name": "getBalance",
      "outputs": [
        {
          "internalType": "uint256",
          "name": "bal",
          "type": "uint256"
        }
      ],
      "stateMutability": "view",
      "type": "function",
      "constant": true
    },
    {
      "inputs": [
        {
          "internalType": "bytes32",
          "name": "name",
          "type": "bytes32"
        },
        {
          "internalType": "bytes",
          "name": "domain",
          "type": "bytes"
        }
      ],
      "name": "getMeta",
      "outputs": [
        {
          "internalType": "bytes",
          "name": "",
          "type": "bytes"
        }
      ],
      "stateMutability": "pure",
      "type": "function",
      "constant": true
    }
  ],
  "bytecode": "0x60806040523480156200001157600080fd5b5033600860006101000a81548173ffffffffffffffffffffffffffffffffffffffff021916908373ffffffffffffffffffffffffffffffffffffffff1602179055506040516200006190620000c5565b604051809103906000f0801580156200007e573d6000803e3d6000fd5b50600760006101000a81548173ffffffffffffffffffffffffffffffffffffffff021916908373ffffffffffffffffffffffffffffffffffffffff160217905550620000d3565b6106db8062005bf583390190565b615b1280620000e36000396000f3fe60806040526004361061012a5760003560e01c80637f187dc3116100ab578063b49c61a51161006f578063b49c61a5146108db578063b6b55f25146109cd578063b7567e9b14610a08578063da67142414610a5b578063dd7e6f9014610ab3578063fc0c546a14610b045761012a565b80637f187dc31461053157806385741531146105645780638c7e8d1c146107635780638ff0adad14610841578063aa53163e146108a85761012a565b80636376586f116100f25780636376586f14610267578063679aefce1461029a5780636eafa2df146102cd57806370a082311461038157806374d023a4146103e65761012a565b806312065fe01461012f5780632e1a7d4d1461015a57806334d5905e14610195578063361a568f146101c45780635537203a146101f7575b600080fd5b34801561013b57600080fd5b50610144610b5b565b6040518082815260200191505060405180910390f35b34801561016657600080fd5b506101936004803603602081101561017d57600080fd5b8101908080359060200190929190505050610b63565b005b3480156101a157600080fd5b506101aa610cb4565b604051808215151515815260200191505060405180910390f35b3480156101d057600080fd5b506101d9610fb8565b604051808261ffff1661ffff16815260200191505060405180910390f35b34801561020357600080fd5b5061024d6004803603604081101561021a57600080fd5b8101908080356fffffffffffffffffffffffffffffffff1916906020019092919080359060200190929190505050610fbe565b604051808215151515815260200191505060405180910390f35b34801561027357600080fd5b5061027c611023565b604051808261ffff1661ffff16815260200191505060405180910390f35b3480156102a657600080fd5b506102af611029565b604051808261ffff1661ffff16815260200191505060405180910390f35b3480156102d957600080fd5b50610306600480360360208110156102f057600080fd5b8101908080359060200190929190505050611081565b6040518080602001828103825283818151815260200191508051906020019080838360005b8381101561034657808201518184015260208101905061032b565b50505050905090810190601f1680156103735780820380516001836020036101000a031916815260200191505b509250505060405180910390f35b34801561038d57600080fd5b506103d0600480360360208110156103a457600080fd5b81019080803573ffffffffffffffffffffffffffffffffffffffff169060200190929190505050611311565b6040518082815260200191505060405180910390f35b3480156103f257600080fd5b506104b66004803603604081101561040957600080fd5b81019080803590602001909291908035906020019064010000000081111561043057600080fd5b82018360208201111561044257600080fd5b8035906020019184600183028401116401000000008311171561046457600080fd5b91908080601f016020809104026020016040519081016040528093929190818152602001838380828437600081840152601f19601f82011690508083019250505050505050919291929050505061135a565b6040518080602001828103825283818151815260200191508051906020019080838360005b838110156104f65780820151818401526020810190506104db565b50505050905090810190601f1680156105235780820380516001836020036101000a031916815260200191505b509250505060405180910390f35b34801561053d57600080fd5b5061054661136e565b604051808261ffff1661ffff16815260200191505060405180910390f35b34801561057057600080fd5b506106e86004803603608081101561058757600080fd5b81019080803590602001906401000000008111156105a457600080fd5b8201836020820111156105b657600080fd5b803590602001918460018302840111640100000000831117156105d857600080fd5b91908080601f016020809104026020016040519081016040528093929190818152602001838380828437600081840152601f19601f8201169050808301925050505050505091929192908035906020019092919080356fffffffffffffffffffffffffffffffff191690602001909291908035906020019064010000000081111561066257600080fd5b82018360208201111561067457600080fd5b8035906020019184600183028401116401000000008311171561069657600080fd5b91908080601f016020809104026020016040519081016040528093929190818152602001838380828437600081840152601f19601f820116905080830192505050505050509192919290505050611374565b6040518080602001828103825283818151815260200191508051906020019080838360005b8381101561072857808201518184015260208101905061070d565b50505050905090810190601f1680156107555780820380516001836020036101000a031916815260200191505b509250505060405180910390f35b34801561076f57600080fd5b5061083f6004803603606081101561078657600080fd5b81019080803590602001906401000000008111156107a357600080fd5b8201836020820111156107b557600080fd5b803590602001918460018302840111640100000000831117156107d757600080fd5b91908080601f016020809104026020016040519081016040528093929190818152602001838380828437600081840152601f19601f82011690508083019250505050505050919291929080359060200190929190803515159060200190929190505050611857565b005b61088e6004803603608081101561085757600080fd5b81019080803590602001909291908035906020019092919080359060200190929190803560ff169060200190929190505050611db6565b604051808215151515815260200191505060405180910390f35b3480156108b457600080fd5b506108bd612232565b604051808261ffff1661ffff16815260200191505060405180910390f35b3480156108e757600080fd5b506109b7600480360360608110156108fe57600080fd5b810190808035906020019064010000000081111561091b57600080fd5b82018360208201111561092d57600080fd5b8035906020019184600183028401116401000000008311171561094f57600080fd5b91908080601f016020809104026020016040519081016040528093929190818152602001838380828437600081840152601f19601f82011690508083019250505050505050919291929080359060200190929190803515159060200190929190505050612238565b6040518082815260200191505060405180910390f35b3480156109d957600080fd5b50610a06600480360360208110156109f057600080fd5b8101908080359060200190929190505050612f48565b005b348015610a1457600080fd5b50610a4160048036036020811015610a2b57600080fd5b8101908080359060200190929190505050612fe6565b604051808215151515815260200191505060405180910390f35b348015610a6757600080fd5b50610ab160048036036040811015610a7e57600080fd5b8101908080356fffffffffffffffffffffffffffffffff191690602001909291908035906020019092919050505061311f565b005b348015610abf57600080fd5b50610b0260048036036020811015610ad657600080fd5b81019080803573ffffffffffffffffffffffffffffffffffffffff169060200190929190505050613256565b005b348015610b1057600080fd5b50610b19613299565b604051808273ffffffffffffffffffffffffffffffffffffffff1673ffffffffffffffffffffffffffffffffffffffff16815260200191505060405180910390f35b600047905090565b80600960003373ffffffffffffffffffffffffffffffffffffffff1673ffffffffffffffffffffffffffffffffffffffff168152602001908152602001600020541015610c18576040517f08c379a000000000000000000000000000000000000000000000000000000000815260040180806020018281038252601c8152602001807f596f752063616e277420776974686472617720746865206d6f6e65790000000081525060200191505060405180910390fd5b610c6433826000809054906101000a900473ffffffffffffffffffffffffffffffffffffffff1673ffffffffffffffffffffffffffffffffffffffff166132be9092919063ffffffff16565b80600960003373ffffffffffffffffffffffffffffffffffffffff1673ffffffffffffffffffffffffffffffffffffffff1681526020019081526020016000206000828254039250508190555050565b6000801515600160003373ffffffffffffffffffffffffffffffffffffffff1673ffffffffffffffffffffffffffffffffffffffff16815260200190815260200160002060000160169054906101000a900460ff16151514610d7e576040517f08c379a00000000000000000000000000000000000000000000000000000000081526004018080602001828103825260128152602001807f416c72656164792072656769737465726564000000000000000000000000000081525060200191505060405180910390fd5b6000600160003373ffffffffffffffffffffffffffffffffffffffff1673ffffffffffffffffffffffffffffffffffffffff16815260200190815260200160002060000160149054906101000a900461ffff1661ffff1614610e48576040517f08c379a00000000000000000000000000000000000000000000000000000000081526004018080602001828103825260198152602001807f596f752061726520626c61636b656420696e73706563746f720000000000000081525060200191505060405180910390fd5b6040518060a001604052803373ffffffffffffffffffffffffffffffffffffffff168152602001600361ffff801681610e7d57fe5b0461ffff168152602001600115158152602001600061ffff16815260200160011515815250600160003373ffffffffffffffffffffffffffffffffffffffff1673ffffffffffffffffffffffffffffffffffffffff16815260200190815260200160002060008201518160000160006101000a81548173ffffffffffffffffffffffffffffffffffffffff021916908373ffffffffffffffffffffffffffffffffffffffff16021790555060208201518160000160146101000a81548161ffff021916908361ffff16021790555060408201518160000160166101000a81548160ff02191690831515021790555060608201518160000160176101000a81548161ffff021916908361ffff16021790555060808201518160000160196101000a81548160ff0219169083151502179055509050506001905090565b61271081565b6000600360008381526020019081526020016000206001016000846fffffffffffffffffffffffffffffffff19166fffffffffffffffffffffffffffffffff1916815260200190815260200160002060009054906101000a900460ff16905092915050565b61ffff81565b6000600160003373ffffffffffffffffffffffffffffffffffffffff1673ffffffffffffffffffffffffffffffffffffffff16815260200190815260200160002060000160149054906101000a900461ffff16905090565b6060806006600084815260200190815260200160002060009054906101000a900473ffffffffffffffffffffffffffffffffffffffff1673ffffffffffffffffffffffffffffffffffffffff16635c1b9e2c60016040518263ffffffff1660e01b81526004018082815260200191505060006040518083038186803b15801561110957600080fd5b505afa15801561111d573d6000803e3d6000fd5b505050506040513d6000823e3d601f19601f82011682018060405250602081101561114757600080fd5b810190808051604051939291908464010000000082111561116757600080fd5b8382019150602082018581111561117d57600080fd5b825186600182028301116401000000008211171561119a57600080fd5b8083526020830192505050908051906020019080838360005b838110156111ce5780820151818401526020810190506111b3565b50505050905090810190601f1680156111fb5780820380516001836020036101000a031916815260200191505b5060405250505090506005816040518082805190602001908083835b6020831061123a5780518252602082019150602081019050602083039250611217565b6001836020036101000a03801982511681845116808217855250505050505090500191505090815260200160405180910390206000018054600181600116156101000203166002900480601f0160208091040260200160405190810160405280929190818152602001828054600181600116156101000203166002900480156113045780601f106112d957610100808354040283529160200191611304565b820191906000526020600020905b8154815290600101906020018083116112e757829003601f168201915b5050505050915050919050565b6000600960008373ffffffffffffffffffffffffffffffffffffffff1673ffffffffffffffffffffffffffffffffffffffff168152602001908152602001600020549050919050565b60606113668383613376565b905092915050565b61271081565b6060600115156003600086815260200190815260200160002060030160009054906101000a900460ff161515146113f6576040517f08c379a00000000000000000000000000000000000000000000000000000000081526004018080602001828103825260268152602001806159606026913960400191505060405180910390fd5b60011515600360008681526020019081526020016000206001016000856fffffffffffffffffffffffffffffffff19166fffffffffffffffffffffffffffffffff1916815260200190815260200160002060009054906101000a900460ff161515146114ad576040517f08c379a000000000000000000000000000000000000000000000000000000000815260040180806020018281038252602b815260200180615935602b913960400191505060405180910390fd5b60606114c2868661337690919063ffffffff16565b9050600073ffffffffffffffffffffffffffffffffffffffff166005826040518082805190602001908083835b6020831061151257805182526020820191506020810190506020830392506114ef565b6001836020036101000a038019825116818451168082178552505050505050905001915050908152602001604051809103902060020160069054906101000a900473ffffffffffffffffffffffffffffffffffffffff1673ffffffffffffffffffffffffffffffffffffffff16146115d5576040517f08c379a00000000000000000000000000000000000000000000000000000000081526004018080602001828103825260668152602001806159ab6066913960800191505060405180910390fd5b600115156005826040518082805190602001908083835b6020831061160f57805182526020820191506020810190506020830392506115ec565b6001836020036101000a038019825116818451168082178552505050505050905001915050908152602001604051809103902060020160059054906101000a900460ff161515146116ab576040517f08c379a00000000000000000000000000000000000000000000000000000000081526004018080602001828103825260668152602001806159ab6066913960800191505060405180910390fd5b6116b3615075565b6116be87873361344f565b9050806005836040518082805190602001908083835b602083106116f757805182526020820191506020810190506020830392506116d4565b6001836020036101000a038019825116818451168082178552505050505050905001915050908152602001604051809103902060008201518160000190805190602001906117469291906150e9565b506020820151816001015560408201518160020160006101000a81548161ffff021916908361ffff16021790555060608201518160020160026101000a81548161ffff021916908361ffff16021790555060808201518160020160046101000a81548160ff02191690831515021790555060a08201518160020160056101000a81548160ff02191690831515021790555060c08201518160020160066101000a81548173ffffffffffffffffffffffffffffffffffffffff021916908373ffffffffffffffffffffffffffffffffffffffff16021790555060e08201518160050160006101000a81548160ff021916908360ff16021790555061010082015181600601559050505050949350505050565b606061186c848461337690919063ffffffff16565b9050611876615169565b600360008581526020019081526020016000206040518060c00160405290816000820160009054906101000a900473ffffffffffffffffffffffffffffffffffffffff1673ffffffffffffffffffffffffffffffffffffffff1673ffffffffffffffffffffffffffffffffffffffff168152602001600282015481526020016003820160009054906101000a900460ff1615151515815260200160048201548152602001600582015481526020016006820160009054906101000a900460ff1660ff1660ff1681525050905060011515600260003373ffffffffffffffffffffffffffffffffffffffff1673ffffffffffffffffffffffffffffffffffffffff16815260200190815260200160002060020160029054906101000a900460ff16151514611a0b576040517f08c379a000000000000000000000000000000000000000000000000000000000815260040180806020018281038252601c8152602001807f596f752063616e2774206a756467652074686520646566656e6465650000000081525060200191505060405180910390fd5b3373ffffffffffffffffffffffffffffffffffffffff16816000015173ffffffffffffffffffffffffffffffffffffffff1614611a93576040517f08c379a00000000000000000000000000000000000000000000000000000000081526004018080602001828103825260258152602001806159866025913960400191505060405180910390fd5b80608001516000809054906101000a900473ffffffffffffffffffffffffffffffffffffffff1673ffffffffffffffffffffffffffffffffffffffff166370a08231336040518263ffffffff1660e01b8152600401808273ffffffffffffffffffffffffffffffffffffffff1673ffffffffffffffffffffffffffffffffffffffff16815260200191505060206040518083038186803b158015611b3657600080fd5b505afa158015611b4a573d6000803e3d6000fd5b505050506040513d6020811015611b6057600080fd5b81019080805190602001909291905050501015611b7c57600080fd5b8215611c9b5760016005836040518082805190602001908083835b60208310611bba5780518252602082019150602081019050602083039250611b97565b6001836020036101000a038019825116818451168082178552505050505050905001915050908152602001604051809103902060020160046101000a81548160ff021916908315150217905550611c1185856134cb565b60016005836040518082805190602001908083835b60208310611c495780518252602082019150602081019050602083039250611c26565b6001836020036101000a038019825116818451168082178552505050505050905001915050908152602001604051809103902060020160056101000a81548160ff021916908315150217905550611daf565b611ca4826134d9565b60016005836040518082805190602001908083835b60208310611cdc5780518252602082019150602081019050602083039250611cb9565b6001836020036101000a038019825116818451168082178552505050505050905001915050908152602001604051809103902060020160056101000a81548160ff02191690831515021790555060006005836040518082805190602001908083835b60208310611d615780518252602082019150602081019050602083039250611d3e565b6001836020036101000a038019825116818451168082178552505050505050905001915050908152602001604051809103902060020160046101000a81548160ff0219169083151502179055505b5050505050565b600060011515600260003373ffffffffffffffffffffffffffffffffffffffff1673ffffffffffffffffffffffffffffffffffffffff16815260200190815260200160002060020160029054906101000a900460ff16151514611e81576040517f08c379a000000000000000000000000000000000000000000000000000000000815260040180806020018281038252601a8152602001807f526567697374657220796f75722077616c6c657420666972737400000000000081525060200191505060405180910390fd5b600015156003600087815260200190815260200160002060030160009054906101000a900460ff1615151480611ecc5750600360008681526020019081526020016000206004015434115b611f21576040517f08c379a000000000000000000000000000000000000000000000000000000000815260040180806020018281038252603a815260200180615a7e603a913960400191505060405180910390fd5b348414611f96576040517f08c379a00000000000000000000000000000000000000000000000000000000081526004018080602001828103825260128152602001807f436865636b20616d6f756e7420616761696e000000000000000000000000000081525060200191505060405180910390fd5b678ac7230489e80000831015611ff7576040517f08c379a0000000000000000000000000000000000000000000000000000000008152600401808060200182810382526025815260200180615ab86025913960400191505060405180910390fd5b600760009054906101000a900473ffffffffffffffffffffffffffffffffffffffff1673ffffffffffffffffffffffffffffffffffffffff1663681fe70c6040518163ffffffff1660e01b815260040160206040518083038186803b15801561205f57600080fd5b505afa158015612073573d6000803e3d6000fd5b505050506040513d602081101561208957600080fd5b81019080805190602001909291905050506120a7576120a66134dc565b5b6040516120b3906151bd565b604051809103906000f0801580156120cf573d6000803e3d6000fd5b506006600087815260200190815260200160002060006101000a81548173ffffffffffffffffffffffffffffffffffffffff021916908373ffffffffffffffffffffffffffffffffffffffff1602179055506040518060c001604052803373ffffffffffffffffffffffffffffffffffffffff1681526020018681526020016001151581526020013481526020018481526020018360ff168152506003600087815260200190815260200160002060008201518160000160006101000a81548173ffffffffffffffffffffffffffffffffffffffff021916908373ffffffffffffffffffffffffffffffffffffffff1602179055506020820151816002015560408201518160030160006101000a81548160ff021916908315150217905550606082015181600401556080820151816005015560a08201518160060160006101000a81548160ff021916908360ff16021790555090505060019050949350505050565b61ffff81565b6000805a90506060612253868661337690919063ffffffff16565b90503373ffffffffffffffffffffffffffffffffffffffff166005826040518082805190602001908083835b602083106122a2578051825260208201915060208101905060208303925061227f565b6001836020036101000a038019825116818451168082178552505050505050905001915050908152602001604051809103902060020160069054906101000a900473ffffffffffffffffffffffffffffffffffffffff1673ffffffffffffffffffffffffffffffffffffffff161415612383576040517f08c379a00000000000000000000000000000000000000000000000000000000081526004018080602001828103825260208152602001807f446f6e27742054727920746f20696e737065637420796f7572207265706f727481525060200191505060405180910390fd5b60011515600160003373ffffffffffffffffffffffffffffffffffffffff1673ffffffffffffffffffffffffffffffffffffffff16815260200190815260200160002060000160169054906101000a900460ff1615151461244c576040517f08c379a00000000000000000000000000000000000000000000000000000000081526004018080602001828103825260158152602001807f506c65617365205265676973746572204669727374000000000000000000000081525060200191505060405180910390fd5b600015156005826040518082805190602001908083835b602083106124865780518252602082019150602081019050602083039250612463565b6001836020036101000a038019825116818451168082178552505050505050905001915050908152602001604051809103902060030160003373ffffffffffffffffffffffffffffffffffffffff1673ffffffffffffffffffffffffffffffffffffffff16815260200190815260200160002060000160019054906101000a900460ff1615151461257f576040517f08c379a000000000000000000000000000000000000000000000000000000000815260040180806020018281038252600f8152602001807f416c726561647920696e7370656374000000000000000000000000000000000081525060200191505060405180910390fd5b8315612629576005816040518082805190602001908083835b602083106125bb5780518252602082019150602081019050602083039250612598565b6001836020036101000a0380198251168184511680821785525050505050509050019150509081526020016040518091039020600201600081819054906101000a900461ffff168092919060010191906101000a81548161ffff021916908361ffff160217905550506126c9565b6005816040518082805190602001908083835b6020831061265f578051825260208201915060208101905060208303925061263c565b6001836020036101000a0380198251168184511680821785525050505050509050019150509081526020016040518091039020600201600281819054906101000a900461ffff168092919060010191906101000a81548161ffff021916908361ffff160217905550505b336005826040518082805190602001908083835b6020831061270057805182526020820191506020810190506020830392506126dd565b6001836020036101000a038019825116818451168082178552505050505050905001915050908152602001604051809103902060040160006005846040518082805190602001908083835b6020831061276e578051825260208201915060208101905060208303925061274b565b6001836020036101000a038019825116818451168082178552505050505050905001915050908152602001604051809103902060050160009054906101000a900460ff1660ff1660ff16815260200190815260200160002060006101000a81548173ffffffffffffffffffffffffffffffffffffffff021916908373ffffffffffffffffffffffffffffffffffffffff16021790555060405180604001604052808515158152602001600115158152506005826040518082805190602001908083835b602083106128545780518252602082019150602081019050602083039250612831565b6001836020036101000a038019825116818451168082178552505050505050905001915050908152602001604051809103902060030160003373ffffffffffffffffffffffffffffffffffffffff1673ffffffffffffffffffffffffffffffffffffffff16815260200190815260200160002060008201518160000160006101000a81548160ff02191690831515021790555060208201518160000160016101000a81548160ff0219169083151502179055509050506005816040518082805190602001908083835b60208310612940578051825260208201915060208101905060208303925061291d565b6001836020036101000a0380198251168184511680821785525050505050509050019150509081526020016040518091039020600501600081819054906101000a900460ff168092919060010191906101000a81548160ff021916908360ff1602179055505060006005826040518082805190602001908083835b602083106129de57805182526020820191506020810190506020830392506129bb565b6001836020036101000a038019825116818451168082178552505050505050905001915050908152602001604051809103902060020160009054906101000a900461ffff16905060006005836040518082805190602001908083835b60208310612a5d5780518252602082019150602081019050602083039250612a3a565b6001836020036101000a038019825116818451168082178552505050505050905001915050908152602001604051809103902060020160029054906101000a900461ffff1690506003600088815260200190815260200160002060060160009054906101000a900460ff1660ff16612ae2828461ffff16613bd190919063ffffffff16565b61ffff1610158015612afb57508061ffff168261ffff16115b15612c08576006600088815260200190815260200160002060009054906101000a900473ffffffffffffffffffffffffffffffffffffffff1673ffffffffffffffffffffffffffffffffffffffff166384473fa8846040518263ffffffff1660e01b81526004018080602001828103825283818151815260200191508051906020019080838360005b83811015612b9f578082015181840152602081019050612b84565b50505050905090810190601f168015612bcc5780820380516001836020036101000a031916815260200191505b5092505050600060405180830381600087803b158015612beb57600080fd5b505af1158015612bff573d6000803e3d6000fd5b50505050612ddd565b6003600088815260200190815260200160002060060160009054906101000a900460ff1660ff16612c46828461ffff16613bd190919063ffffffff16565b61ffff1610158015612c5f57508061ffff168261ffff16105b15612ddc5760016005846040518082805190602001908083835b60208310612c9c5780518252602082019150602081019050602083039250612c79565b6001836020036101000a038019825116818451168082178552505050505050905001915050908152602001604051809103902060020160056101000a81548160ff021916908315150217905550600760009054906101000a900473ffffffffffffffffffffffffffffffffffffffff1673ffffffffffffffffffffffffffffffffffffffff166384473fa8846040518263ffffffff1660e01b81526004018080602001828103825283818151815260200191508051906020019080838360005b83811015612d77578082015181840152602081019050612d5c565b50505050905090810190601f168015612da45780820380516001836020036101000a031916815260200191505b5092505050600060405180830381600087803b158015612dc357600080fd5b505af1158015612dd7573d6000803e3d6000fd5b505050505b5b3a5a8503026005846040518082805190602001908083835b60208310612e185780518252602082019150602081019050602083039250612df5565b6001836020036101000a0380198251168184511680821785525050505050509050019150509081526020016040518091039020600601541115612e5f573a5a850302612ecd565b6005836040518082805190602001908083835b60208310612e955780518252602082019150602081019050602083039250612e72565b6001836020036101000a0380198251168184511680821785525050505050509050019150509081526020016040518091039020600601545b6005846040518082805190602001908083835b60208310612f035780518252602082019150602081019050602083039250612ee0565b6001836020036101000a038019825116818451168082178552505050505050905001915050908152602001604051809103902060060181905550505050509392505050565b612f963330836000809054906101000a900473ffffffffffffffffffffffffffffffffffffffff1673ffffffffffffffffffffffffffffffffffffffff16613c61909392919063ffffffff16565b80600960003373ffffffffffffffffffffffffffffffffffffffff1673ffffffffffffffffffffffffffffffffffffffff1681526020019081526020016000206000828254019250508190555050565b6000612ff06151ca565b60405180608001604052803373ffffffffffffffffffffffffffffffffffffffff168152602001848152602001600261ffff80168161302b57fe5b0461ffff16815260200160011515815250905080600260003373ffffffffffffffffffffffffffffffffffffffff1673ffffffffffffffffffffffffffffffffffffffff16815260200190815260200160002060008201518160000160006101000a81548173ffffffffffffffffffffffffffffffffffffffff021916908373ffffffffffffffffffffffffffffffffffffffff1602179055506020820151816001015560408201518160020160006101000a81548161ffff021916908361ffff16021790555060608201518160020160026101000a81548160ff0219169083151502179055509050506001915050919050565b600360008281526020019081526020016000206001016000836fffffffffffffffffffffffffffffffff19166fffffffffffffffffffffffffffffffff1916815260200190815260200160002060009054906101000a900460ff166131ec576040517f08c379a00000000000000000000000000000000000000000000000000000000081526004018080602001828103825260148152602001807f416c726561647920696e20426c61636b4c69737400000000000000000000000081525060200191505060405180910390fd5b6001600360008381526020019081526020016000206001016000846fffffffffffffffffffffffffffffffff19166fffffffffffffffffffffffffffffffff1916815260200190815260200160002060006101000a81548160ff0219169083151502179055505050565b806000806101000a81548173ffffffffffffffffffffffffffffffffffffffff021916908373ffffffffffffffffffffffffffffffffffffffff16021790555050565b6000809054906101000a900473ffffffffffffffffffffffffffffffffffffffff1681565b6133718363a9059cbb60e01b8484604051602401808373ffffffffffffffffffffffffffffffffffffffff1673ffffffffffffffffffffffffffffffffffffffff16815260200182815260200192505050604051602081830303815290604052907bffffffffffffffffffffffffffffffffffffffffffffffffffffffff19166020820180517bffffffffffffffffffffffffffffffffffffffffffffffffffffffff8381831617835250505050613d4e565b505050565b60606000828051906020012090506060604067ffffffffffffffff8111801561339e57600080fd5b506040519080825280601f01601f1916602001820160405280156133d15781602001600182028036833780820191505090505b5090506060602067ffffffffffffffff811180156133ee57600080fd5b506040519080825280601f01601f1916602001820160405280156134215781602001600182028036833780820191505090505b5090508560208201526000818051906020012090508060208401528360408401528294505050505092915050565b613457615075565b604051806101200160405280858152602001848152602001600061ffff168152602001600061ffff1681526020016000151581526020016001151581526020018373ffffffffffffffffffffffffffffffffffffffff168152602001600060ff168152602001600081525090509392505050565b6134d58282613e3d565b5050565b50565b600760009054906101000a900473ffffffffffffffffffffffffffffffffffffffff1673ffffffffffffffffffffffffffffffffffffffff1663681fe70c6040518163ffffffff1660e01b815260040160206040518083038186803b15801561354457600080fd5b505afa158015613558573d6000803e3d6000fd5b505050506040513d602081101561356e57600080fd5b8101908080519060200190929190505050156135f2576040517f08c379a00000000000000000000000000000000000000000000000000000000081526004018080602001828103825260198152602001807f4e6f20746172676574206f6620636f6d70656e736174696f6e0000000000000081525060200191505060405180910390fd5b600260003373ffffffffffffffffffffffffffffffffffffffff1673ffffffffffffffffffffffffffffffffffffffff16815260200190815260200160002060020160029054906101000a900460ff16613697576040517f08c379a0000000000000000000000000000000000000000000000000000000008152600401808060200182810382526022815260200180615a116022913960400191505060405180910390fd5b6060600760009054906101000a900473ffffffffffffffffffffffffffffffffffffffff1673ffffffffffffffffffffffffffffffffffffffff1663957908d16040518163ffffffff1660e01b8152600401600060405180830381600087803b15801561370357600080fd5b505af1158015613717573d6000803e3d6000fd5b505050506040513d6000823e3d601f19601f82011682018060405250602081101561374157600080fd5b810190808051604051939291908464010000000082111561376157600080fd5b8382019150602082018581111561377757600080fd5b825186600182028301116401000000008211171561379457600080fd5b8083526020830192505050908051906020019080838360005b838110156137c85780820151818401526020810190506137ad565b50505050905090810190601f1680156137f55780820380516001836020036101000a031916815260200191505b506040525050509050613806615211565b6000809050600090505b6005836040518082805190602001908083835b602083106138465780518252602082019150602081019050602083039250613823565b6001836020036101000a038019825116818451168082178552505050505050905001915050908152602001604051809103902060050160009054906101000a900460ff1660ff168160ff161015613a12576005836040518082805190602001908083835b602083106138cd57805182526020820191506020810190506020830392506138aa565b6001836020036101000a038019825116818451168082178552505050505050905001915050908152602001604051809103902060040160008260ff1660ff16815260200190815260200160002060009054906101000a900473ffffffffffffffffffffffffffffffffffffffff16828260ff16600a811061394a57fe5b602002019073ffffffffffffffffffffffffffffffffffffffff16908173ffffffffffffffffffffffffffffffffffffffff1681525050606460016000848460ff16600a811061399657fe5b602002015173ffffffffffffffffffffffffffffffffffffffff1673ffffffffffffffffffffffffffffffffffffffff16815260200190815260200160002060000160148282829054906101000a900461ffff160192506101000a81548161ffff021916908361ffff1602179055508080600101915050613810565b6005836040518082805190602001908083835b60208310613a485780518252602082019150602081019050602083039250613a25565b6001836020036101000a038019825116818451168082178552505050505050905001915050908152602001604051809103902060020160069054906101000a900473ffffffffffffffffffffffffffffffffffffffff16828260ff16600a8110613aae57fe5b602002019073ffffffffffffffffffffffffffffffffffffffff16908173ffffffffffffffffffffffffffffffffffffffff168152505060008090505b8160ff168160ff1611613bcb57828160ff16600a8110613b0757fe5b602002015173ffffffffffffffffffffffffffffffffffffffff166108fc6005866040518082805190602001908083835b60208310613b5b5780518252602082019150602081019050602083039250613b38565b6001836020036101000a0380198251168184511680821785525050505050509050019150509081526020016040518091039020600601549081150290604051600060405180830381858888f19350505050158015613bbd573d6000803e3d6000fd5b508080600101915050613aeb565b50505050565b60008082840190508361ffff168161ffff161015613c57576040517f08c379a000000000000000000000000000000000000000000000000000000000815260040180806020018281038252601b8152602001807f536166654d6174683a206164646974696f6e206f766572666c6f77000000000081525060200191505060405180910390fd5b8091505092915050565b613d48846323b872dd60e01b858585604051602401808473ffffffffffffffffffffffffffffffffffffffff1673ffffffffffffffffffffffffffffffffffffffff1681526020018373ffffffffffffffffffffffffffffffffffffffff1673ffffffffffffffffffffffffffffffffffffffff1681526020018281526020019350505050604051602081830303815290604052907bffffffffffffffffffffffffffffffffffffffffffffffffffffffff19166020820180517bffffffffffffffffffffffffffffffffffffffffffffffffffffffff8381831617835250505050613d4e565b50505050565b6060613db0826040518060400160405280602081526020017f5361666545524332303a206c6f772d6c6576656c2063616c6c206661696c65648152508573ffffffffffffffffffffffffffffffffffffffff166148389092919063ffffffff16565b9050600081511115613e3857808060200190516020811015613dd157600080fd5b8101908080519060200190929190505050613e37576040517f08c379a000000000000000000000000000000000000000000000000000000000815260040180806020018281038252602a815260200180615a54602a913960400191505060405180910390fd5b5b505050565b6060613e52838361337690919063ffffffff16565b9050613e5c615075565b6005826040518082805190602001908083835b60208310613e925780518252602082019150602081019050602083039250613e6f565b6001836020036101000a038019825116818451168082178552505050505050905001915050908152602001604051809103902060405180610120016040529081600082018054600181600116156101000203166002900480601f016020809104026020016040519081016040528092919081815260200182805460018160011615610100020316600290048015613f6a5780601f10613f3f57610100808354040283529160200191613f6a565b820191906000526020600020905b815481529060010190602001808311613f4d57829003601f168201915b50505050508152602001600182015481526020016002820160009054906101000a900461ffff1661ffff1661ffff1681526020016002820160029054906101000a900461ffff1661ffff1661ffff1681526020016002820160049054906101000a900460ff161515151581526020016002820160059054906101000a900460ff161515151581526020016002820160069054906101000a900473ffffffffffffffffffffffffffffffffffffffff1673ffffffffffffffffffffffffffffffffffffffff1673ffffffffffffffffffffffffffffffffffffffff1681526020016005820160009054906101000a900460ff1660ff1660ff16815260200160068201548152505090506001151581608001511515146140f0576040517f08c379a00000000000000000000000000000000000000000000000000000000081526004018080602001828103825260188152602001807f547279206974206f6e6c79207772697465206a7564676521000000000000000081525060200191505060405180910390fd5b600360008481526020019081526020016000206005015461411033611311565b1015614184576040517f08c379a00000000000000000000000000000000000000000000000000000000081526004018080602001828103825260128152602001807f596f75206e65656420746f20636861726765000000000000000000000000000081525060200191505060405180910390fd5b60006141b06002600360008781526020019081526020016000206005015461485090919063ffffffff16565b905060006141dd82600360008881526020019081526020016000206005015461489a90919063ffffffff16565b905060006141f560648361485090919063ffffffff16565b9050600080905060008090505b8560e0015160ff168160ff16101561431d57600160006005896040518082805190602001908083835b6020831061424e578051825260208201915060208101905060208303925061422b565b6001836020036101000a038019825116818451168082178552505050505050905001915050908152602001604051809103902060040160008460ff1660ff16815260200190815260200160002060009054906101000a900473ffffffffffffffffffffffffffffffffffffffff1673ffffffffffffffffffffffffffffffffffffffff1673ffffffffffffffffffffffffffffffffffffffff16815260200190815260200160002060000160149054906101000a900461ffff1661ffff16820191508080600101915050614202565b5061436e8560c00151856000809054906101000a900473ffffffffffffffffffffffffffffffffffffffff1673ffffffffffffffffffffffffffffffffffffffff166132be9092919063ffffffff16565b83600960003373ffffffffffffffffffffffffffffffffffffffff1673ffffffffffffffffffffffffffffffffffffffff1681526020019081526020016000206000828254039250508190555060008090505b8560e0015160ff168160ff16101561482d576005876040518082805190602001908083835b6020831061440957805182526020820191506020810190506020830392506143e6565b6001836020036101000a038019825116818451168082178552505050505050905001915050908152602001604051809103902060030160006005896040518082805190602001908083835b602083106144775780518252602082019150602081019050602083039250614454565b6001836020036101000a038019825116818451168082178552505050505050905001915050908152602001604051809103902060040160008460ff1660ff16815260200190815260200160002060009054906101000a900473ffffffffffffffffffffffffffffffffffffffff1673ffffffffffffffffffffffffffffffffffffffff1673ffffffffffffffffffffffffffffffffffffffff16815260200190815260200160002060000160009054906101000a900460ff1615614820576147266005886040518082805190602001908083835b6020831061456e578051825260208201915060208101905060208303925061454b565b6001836020036101000a038019825116818451168082178552505050505050905001915050908152602001604051809103902060040160008360ff1660ff16815260200190815260200160002060009054906101000a900473ffffffffffffffffffffffffffffffffffffffff16836001600060058c6040518082805190602001908083835b6020831061461757805182526020820191506020810190506020830392506145f4565b6001836020036101000a038019825116818451168082178552505050505050905001915050908152602001604051809103902060040160008760ff1660ff16815260200190815260200160002060009054906101000a900473ffffffffffffffffffffffffffffffffffffffff1673ffffffffffffffffffffffffffffffffffffffff1673ffffffffffffffffffffffffffffffffffffffff16815260200190815260200160002060000160149054906101000a900461ffff1661ffff16816146dc57fe5b0485026000809054906101000a900473ffffffffffffffffffffffffffffffffffffffff1673ffffffffffffffffffffffffffffffffffffffff166132be9092919063ffffffff16565b82600960003373ffffffffffffffffffffffffffffffffffffffff1673ffffffffffffffffffffffffffffffffffffffff1681526020019081526020016000206000828254039250508190555061481f6005886040518082805190602001908083835b602083106147ac5780518252602082019150602081019050602083039250614789565b6001836020036101000a038019825116818451168082178552505050505050905001915050908152602001604051809103902060040160008360ff1660ff16815260200190815260200160002060009054906101000a900473ffffffffffffffffffffffffffffffffffffffff166148e4565b5b80806001019150506143c1565b505050505050505050565b60606148478484600085614c04565b90509392505050565b600061489283836040518060400160405280601a81526020017f536166654d6174683a206469766973696f6e206279207a65726f000000000000815250614e0a565b905092915050565b60006148dc83836040518060400160405280601e81526020017f536166654d6174683a207375627472616374696f6e206f766572666c6f770000815250614ed0565b905092915050565b600160008273ffffffffffffffffffffffffffffffffffffffff1673ffffffffffffffffffffffffffffffffffffffff16815260200190815260200160002060000160199054906101000a900460ff166149f55760018060008373ffffffffffffffffffffffffffffffffffffffff1673ffffffffffffffffffffffffffffffffffffffff16815260200190815260200160002060000160196101000a81548160ff0219169083151502179055506000600160008373ffffffffffffffffffffffffffffffffffffffff1673ffffffffffffffffffffffffffffffffffffffff16815260200190815260200160002060000160176101000a81548161ffff021916908361ffff160217905550614c01565b6000600160008373ffffffffffffffffffffffffffffffffffffffff1673ffffffffffffffffffffffffffffffffffffffff16815260200190815260200160002060000160149054906101000a900461ffff1690506000614ab46064600160008673ffffffffffffffffffffffffffffffffffffffff1673ffffffffffffffffffffffffffffffffffffffff16815260200190815260200160002060000160179054906101000a900461ffff1661ffff16614f9090919063ffffffff16565b82019050600160008473ffffffffffffffffffffffffffffffffffffffff1673ffffffffffffffffffffffffffffffffffffffff168152602001908152602001600020600001601781819054906101000a900461ffff168092919060010191906101000a81548161ffff021916908361ffff160217905550508161ffff168161ffff1610614b9e5780600160008573ffffffffffffffffffffffffffffffffffffffff1673ffffffffffffffffffffffffffffffffffffffff16815260200190815260200160002060000160146101000a81548161ffff021916908361ffff160217905550614bfe565b61ffff600160008573ffffffffffffffffffffffffffffffffffffffff1673ffffffffffffffffffffffffffffffffffffffff16815260200190815260200160002060000160146101000a81548161ffff021916908361ffff1602179055505b50505b50565b6060614c0f8561502a565b614c81576040517f08c379a000000000000000000000000000000000000000000000000000000000815260040180806020018281038252601d8152602001807f416464726573733a2063616c6c20746f206e6f6e2d636f6e747261637400000081525060200191505060405180910390fd5b600060608673ffffffffffffffffffffffffffffffffffffffff1685876040518082805190602001908083835b60208310614cd15780518252602082019150602081019050602083039250614cae565b6001836020036101000a03801982511681845116808217855250505050505090500191505060006040518083038185875af1925050503d8060008114614d33576040519150601f19603f3d011682016040523d82523d6000602084013e614d38565b606091505b50915091508115614d4d578092505050614e02565b600081511115614d605780518082602001fd5b836040517f08c379a00000000000000000000000000000000000000000000000000000000081526004018080602001828103825283818151815260200191508051906020019080838360005b83811015614dc7578082015181840152602081019050614dac565b50505050905090810190601f168015614df45780820380516001836020036101000a031916815260200191505b509250505060405180910390fd5b949350505050565b60008083118290614eb6576040517f08c379a00000000000000000000000000000000000000000000000000000000081526004018080602001828103825283818151815260200191508051906020019080838360005b83811015614e7b578082015181840152602081019050614e60565b50505050905090810190601f168015614ea85780820380516001836020036101000a031916815260200191505b509250505060405180910390fd5b506000838581614ec257fe5b049050809150509392505050565b6000838311158290614f7d576040517f08c379a00000000000000000000000000000000000000000000000000000000081526004018080602001828103825283818151815260200191508051906020019080838360005b83811015614f42578082015181840152602081019050614f27565b50505050905090810190601f168015614f6f5780820380516001836020036101000a031916815260200191505b509250505060405180910390fd5b5060008385039050809150509392505050565b6000808361ffff161415614fa75760009050615024565b600082840290508261ffff168461ffff168261ffff1681614fc457fe5b0461ffff161461501f576040517f08c379a0000000000000000000000000000000000000000000000000000000008152600401808060200182810382526021815260200180615a336021913960400191505060405180910390fd5b809150505b92915050565b60008060007fc5d2460186f7233c927e7db2dcc703c0e500b653ca82273b7bfad8045d85a47060001b9050833f915080821415801561506c57506000801b8214155b92505050919050565b6040518061012001604052806060815260200160008019168152602001600061ffff168152602001600061ffff168152602001600015158152602001600015158152602001600073ffffffffffffffffffffffffffffffffffffffff168152602001600060ff168152602001600081525090565b828054600181600116156101000203166002900490600052602060002090601f016020900481019282601f1061512a57805160ff1916838001178555615158565b82800160010185558215615158579182015b8281111561515757825182559160200191906001019061513c565b5b5090506151659190615234565b5090565b6040518060c00160405280600073ffffffffffffffffffffffffffffffffffffffff168152602001600080191681526020016000151581526020016000815260200160008152602001600060ff1681525090565b6106db8061525a83390190565b6040518060800160405280600073ffffffffffffffffffffffffffffffffffffffff16815260200160008019168152602001600061ffff1681526020016000151581525090565b604051806101400160405280600a90602082028036833780820191505090505090565b61525691905b8082111561525257600081600090555060010161523a565b5090565b9056fe608060405260018055600060025534801561001957600080fd5b506106b2806100296000396000f3fe608060405234801561001057600080fd5b50600436106100575760003560e01c80631f7b6d321461005c5780635c1b9e2c1461007a578063681fe70c1461012157806384473fa814610143578063957908d1146101fe575b600080fd5b610064610281565b6040518082815260200191505060405180910390f35b6100a66004803603602081101561009057600080fd5b8101908080359060200190929190505050610292565b6040518080602001828103825283818151815260200191508051906020019080838360005b838110156100e65780820151818401526020810190506100cb565b50505050905090810190601f1680156101135780820380516001836020036101000a031916815260200191505b509250505060405180910390f35b6101296103cb565b604051808215151515815260200191505060405180910390f35b6101fc6004803603602081101561015957600080fd5b810190808035906020019064010000000081111561017657600080fd5b82018360208201111561018857600080fd5b803590602001918460018302840111640100000000831117156101aa57600080fd5b91908080601f016020809104026020016040519081016040528093929190818152602001838380828437600081840152601f19601f8201169050808301925050505050505091929192905050506103ed565b005b61020661042a565b6040518080602001828103825283818151815260200191508051906020019080838360005b8381101561024657808201518184015260208101905061022b565b50505050905090810190601f1680156102735780820380516001836020036101000a031916815260200191505b509250505060405180910390f35b600060015460016002540103905090565b6060600060018360015401039050600254811115610318576040517f08c379a00000000000000000000000000000000000000000000000000000000081526004018080602001828103825260168152602001807f4e6f7420656e6f7567682074686174207461726765740000000000000000000081525060200191505060405180910390fd5b6000808281526020019081526020016000208054600181600116156101000203166002900480601f0160208091040260200160405190810160405280929190818152602001828054600181600116156101000203166002900480156103be5780601f10610393576101008083540402835291602001916103be565b820191906000526020600020905b8154815290600101906020018083116103a157829003601f168201915b5050505050915050919050565b600060015460016002540114156103e557600190506103ea565b600090505b90565b6001600260008282540192505081905550806000806002548152602001908152602001600020908051906020019061042692919061056b565b5050565b60606001546002541015610489576040517f08c379a00000000000000000000000000000000000000000000000000000000081526004018080602001828103825260248152602001806106596024913960400191505060405180910390fd5b60008060015481526020019081526020016000208054600181600116156101000203166002900480601f0160208091040260200160405190810160405280929190818152602001828054600181600116156101000203166002900480156105315780601f1061050657610100808354040283529160200191610531565b820191906000526020600020905b81548152906001019060200180831161051457829003601f168201915b505050505090506000806001548152602001908152602001600020600061055891906105eb565b6001806000828254019250508190555090565b828054600181600116156101000203166002900490600052602060002090601f016020900481019282601f106105ac57805160ff19168380011785556105da565b828001600101855582156105da579182015b828111156105d95782518255916020019190600101906105be565b5b5090506105e79190610633565b5090565b50805460018160011615610100020316600290046000825580601f106106115750610630565b601f01602090049060005260206000209081019061062f9190610633565b5b50565b61065591905b80821115610651576000816000905550600101610639565b5090565b9056fe446f6e27742074727920746f2064656c6574652066726f6d20656d707479207175657565a2646970667358221220122f2ca02e293235939cf1bed4d5494fb049ec095a133c7bc40a909913190faf64736f6c634300060a0033546861742069704164647265737320697320626c61636b20627920636f6e74656e74207265676973746572596f752063616e2774207265706f72742061626f75742074686973206d756c74696d65646961596f752063616e277420646563696465207468617420646566656e646565207265706f7274596f752063616e2774207265706f72742074686174206c696e6b2e416c7265616479207265706f7274206f7220436f6e74656e74206f776e657220646f65736e27742077616e7420746f2074616b65207265706f72742061626f75742074686973206c696e6b506c6561736520526567697374657220796f75722061646472657373206669727374536166654d6174683a206d756c7469706c69636174696f6e206f766572666c6f775361666545524332303a204552433230206f7065726174696f6e20646964206e6f742073756363656564416c7265616479207265676973746572656420646566656e6465652e204a7573742061646420796f7520746f2074686520646566656e6465652e706c656173652073657420726577617264206d6f7265207468616e20313020746f6b656e73a26469706673582212207eb58ef2d4174202ba2040dd9a7787bb987439d29327936297cc98cb2a4f6bf464736f6c634300060a0033608060405260018055600060025534801561001957600080fd5b506106b2806100296000396000f3fe608060405234801561001057600080fd5b50600436106100575760003560e01c80631f7b6d321461005c5780635c1b9e2c1461007a578063681fe70c1461012157806384473fa814610143578063957908d1146101fe575b600080fd5b610064610281565b6040518082815260200191505060405180910390f35b6100a66004803603602081101561009057600080fd5b8101908080359060200190929190505050610292565b6040518080602001828103825283818151815260200191508051906020019080838360005b838110156100e65780820151818401526020810190506100cb565b50505050905090810190601f1680156101135780820380516001836020036101000a031916815260200191505b509250505060405180910390f35b6101296103cb565b604051808215151515815260200191505060405180910390f35b6101fc6004803603602081101561015957600080fd5b810190808035906020019064010000000081111561017657600080fd5b82018360208201111561018857600080fd5b803590602001918460018302840111640100000000831117156101aa57600080fd5b91908080601f016020809104026020016040519081016040528093929190818152602001838380828437600081840152601f19601f8201169050808301925050505050505091929192905050506103ed565b005b61020661042a565b6040518080602001828103825283818151815260200191508051906020019080838360005b8381101561024657808201518184015260208101905061022b565b50505050905090810190601f1680156102735780820380516001836020036101000a031916815260200191505b509250505060405180910390f35b600060015460016002540103905090565b6060600060018360015401039050600254811115610318576040517f08c379a00000000000000000000000000000000000000000000000000000000081526004018080602001828103825260168152602001807f4e6f7420656e6f7567682074686174207461726765740000000000000000000081525060200191505060405180910390fd5b6000808281526020019081526020016000208054600181600116156101000203166002900480601f0160208091040260200160405190810160405280929190818152602001828054600181600116156101000203166002900480156103be5780601f10610393576101008083540402835291602001916103be565b820191906000526020600020905b8154815290600101906020018083116103a157829003601f168201915b5050505050915050919050565b600060015460016002540114156103e557600190506103ea565b600090505b90565b6001600260008282540192505081905550806000806002548152602001908152602001600020908051906020019061042692919061056b565b5050565b60606001546002541015610489576040517f08c379a00000000000000000000000000000000000000000000000000000000081526004018080602001828103825260248152602001806106596024913960400191505060405180910390fd5b60008060015481526020019081526020016000208054600181600116156101000203166002900480601f0160208091040260200160405190810160405280929190818152602001828054600181600116156101000203166002900480156105315780601f1061050657610100808354040283529160200191610531565b820191906000526020600020905b81548152906001019060200180831161051457829003601f168201915b505050505090506000806001548152602001908152602001600020600061055891906105eb565b6001806000828254019250508190555090565b828054600181600116156101000203166002900490600052602060002090601f016020900481019282601f106105ac57805160ff19168380011785556105da565b828001600101855582156105da579182015b828111156105d95782518255916020019190600101906105be565b5b5090506105e79190610633565b5090565b50805460018160011615610100020316600290046000825580601f106106115750610630565b601f01602090049060005260206000209081019061062f9190610633565b5b50565b61065591905b80821115610651576000816000905550600101610639565b5090565b9056fe446f6e27742074727920746f2064656c6574652066726f6d20656d707479207175657565a2646970667358221220122f2ca02e293235939cf1bed4d5494fb049ec095a133c7bc40a909913190faf64736f6c634300060a0033",
  "immutableReferences": {},
  "source": "// SPDX-License-Identifier: MIT\r\npragma solidity >=0.4.21 <0.7.0;\r\n\r\nimport './Notify.sol';\r\nimport './Inspect.sol';\r\nimport './JudgeByMedia.sol';\r\n\r\ncontract DefendContract is Notify, Inspect, JudgeByMedia{\r\n    using SafeMath for uint;\r\n    using Report for Report.link;\r\n    \r\n\r\n    function holdToken(DefenderToken _token) public{\r\n        token = _token;\r\n    }\r\n    \r\n    modifier onlyRepresentor(){\r\n        require(msg.sender == representor, \"\");\r\n        _;\r\n    }\r\n\r\n    constructor() public {\r\n        representor = msg.sender;\r\n        compenSationQueue = new Queue();\r\n    }\r\n\r\n    /* Getter function for pending money that give to reporter and inpector */\r\n    function getBalance() public view returns (uint256 bal){\r\n        bal = address(this).balance;\r\n    }\r\n\r\n   \r\n    function getMeta(bytes32 name, bytes memory domain) public pure returns (bytes memory){\r\n        return Report.makeMetaDataForLink(name, domain);\r\n    }\r\n\r\n\r\n}",
  "sourcePath": "C:\\Users\\tjdhk\\OneDrive\\project\\CrowdReport\\contracts\\DefendContract.sol",
  "compiler": {
    "name": "solc",
    "version": "0.6.10+commit.00c0fcaf.Emscripten.clang"
  },
  "schemaVersion": "3.2.1",
  "updatedAt": "2020-07-10T03:42:03.515Z",
  "networkType": "ethereum",
  "devdoc": {
    "methods": {}
  },
  "userdoc": {
    "methods": {}
  }
}