{
  "contractName": "InspectData",
  "abi": [
    {
      "inputs": [
        {
          "internalType": "address",
          "name": "_noticeAddress",
          "type": "address"
        },
        {
          "internalType": "address",
          "name": "_inspectAddress",
          "type": "address"
        },
        {
          "internalType": "address",
          "name": "_judgeAddress",
          "type": "address"
        }
      ],
      "stateMutability": "nonpayable",
      "type": "constructor"
    },
    {
      "inputs": [],
      "name": "MAX_RATE_INSPECT",
      "outputs": [
        {
          "internalType": "uint16",
          "name": "",
          "type": "uint16"
        }
      ],
      "stateMutability": "view",
      "type": "function",
      "constant": true
    },
    {
      "inputs": [],
      "name": "MIN_RATE_INSPECT",
      "outputs": [
        {
          "internalType": "uint16",
          "name": "",
          "type": "uint16"
        }
      ],
      "stateMutability": "view",
      "type": "function",
      "constant": true
    },
    {
      "inputs": [
        {
          "internalType": "address",
          "name": "_target",
          "type": "address"
        }
      ],
      "name": "getAbled",
      "outputs": [
        {
          "internalType": "bool",
          "name": "",
          "type": "bool"
        }
      ],
      "stateMutability": "view",
      "type": "function",
      "constant": true
    },
    {
      "inputs": [
        {
          "internalType": "address",
          "name": "_target",
          "type": "address"
        }
      ],
      "name": "getRate",
      "outputs": [
        {
          "internalType": "uint16",
          "name": "",
          "type": "uint16"
        }
      ],
      "stateMutability": "view",
      "type": "function",
      "constant": true
    },
    {
      "inputs": [
        {
          "internalType": "address",
          "name": "_target",
          "type": "address"
        }
      ],
      "name": "getWinningStreak",
      "outputs": [
        {
          "internalType": "uint16",
          "name": "",
          "type": "uint16"
        }
      ],
      "stateMutability": "view",
      "type": "function",
      "constant": true
    },
    {
      "inputs": [
        {
          "internalType": "address",
          "name": "_target",
          "type": "address"
        }
      ],
      "name": "getWinningState",
      "outputs": [
        {
          "internalType": "bool",
          "name": "",
          "type": "bool"
        }
      ],
      "stateMutability": "view",
      "type": "function",
      "constant": true
    },
    {
      "inputs": [
        {
          "internalType": "address",
          "name": "_target",
          "type": "address"
        }
      ],
      "name": "setInspector",
      "outputs": [],
      "stateMutability": "nonpayable",
      "type": "function"
    },
    {
      "inputs": [
        {
          "internalType": "address",
          "name": "_target",
          "type": "address"
        },
        {
          "internalType": "bool",
          "name": "_result",
          "type": "bool"
        },
        {
          "internalType": "bool",
          "name": "_second",
          "type": "bool"
        }
      ],
      "name": "setWinning",
      "outputs": [],
      "stateMutability": "nonpayable",
      "type": "function"
    }
  ],
  "bytecode": "0x608060405234801561001057600080fd5b506040516109de3803806109de8339818101604052606081101561003357600080fd5b5080516020808301516040938401516001600160a01b039384166000908152600193849052858120805460ff1990811686179091559285168152858120805484168517905593168352929091208054909216179055610947806100976000396000f3fe608060405234801561001057600080fd5b50600436106100885760003560e01c8063afb708511161005b578063afb7085114610102578063b0f934c21461013c578063c7b9886414610162578063e4e5656e1461019857610088565b8063361a568f1461008d57806337cef791146100ac5780634e5cbf61146100d25780636376586f146100fa575b600080fd5b6100956101be565b6040805161ffff9092168252519081900360200190f35b610095600480360360208110156100c257600080fd5b50356001600160a01b03166101c4565b6100f8600480360360208110156100e857600080fd5b50356001600160a01b03166101ee565b005b6100956102c2565b6101286004803603602081101561011857600080fd5b50356001600160a01b03166102c8565b604080519115158252519081900360200190f35b6100956004803603602081101561015257600080fd5b50356001600160a01b03166102ed565b6100f86004803603606081101561017857600080fd5b506001600160a01b03813516906020810135151590604001351515610313565b610128600480360360208110156101ae57600080fd5b50356001600160a01b0316610780565b61271081565b6001600160a01b038116600090815260208190526040902054600160a01b900461ffff165b919050565b336000818152600160208181526040808420805460ff191684179055805160a08101825294855261555585830190815285820184815260608701868152608088019586526001600160a01b03988916875293869052919094209451855494519151925193516001600160a01b031990951696169590951761ffff60a01b1916600160a01b61ffff968716021760ff60b01b1916600160b01b911515919091021761ffff60b81b1916600160b81b94909116939093029290921760ff60c81b1916600160c81b92151592909202919091179055565b61ffff81565b6001600160a01b0316600090815260208190526040902054600160b01b900460ff1690565b6001600160a01b0316600090815260208190526040902054600160b81b900461ffff1690565b336000908152600160208190526040909120805460ff19169091179055801561050c5781156103d9576001600160a01b03831660009081526020819052604090205461ffff600160a01b9091048116906101f4820190811682116103a6576001600160a01b0385166000908152602081905260409020805461ffff60a01b1916600160a01b61ffff8416021790556103d2565b6001600160a01b0385166000908152602081905260409020805461ffff60a01b191661ffff60a01b1790555b5050610507565b6001600160a01b038316600090815260208190526040902054600160c81b900460ff161561042b576001600160a01b0383166000908152602081905260409020805462ffffff60b81b19169055610507565b6001600160a01b038316600090815260208190526040812080546002600160b81b80830461ffff908116929092018216810261ffff60b81b1984161793849055600160a01b9092048116939261048c929004166101f463ffffffff6107a516565b820390508061ffff168261ffff1611156104d5576001600160a01b0385166000908152602081905260409020805461ffff60a01b1916600160a01b61ffff8416021790556104fa565b6001600160a01b0385166000908152602081905260409020805461ffff60a01b191690555b61050385610819565b5050505b61077b565b811561064d576001600160a01b038316600090815260208190526040902054600160c81b900460ff16610571576001600160a01b0383166000908152602081905260409020805461ffff60b81b1960ff60c81b19909116600160c81b17169055610507565b6001600160a01b038316600090815260208190526040812080546001600160b81b80830461ffff908116929092018216810261ffff60b81b1984161793849055600160a01b909204811693926105d2929004166101f463ffffffff6107a516565b820190508161ffff168161ffff161061061a576001600160a01b0385166000908152602081905260409020805461ffff60a01b1916600160a01b61ffff841602179055610646565b6001600160a01b0385166000908152602081905260409020805461ffff60a01b191661ffff60a01b1790555b505061077b565b6001600160a01b038316600090815260208190526040902054600160c81b900460ff161561069f576001600160a01b0383166000908152602081905260409020805462ffffff60b81b1916905561077b565b6001600160a01b038316600090815260208190526040812080546002600160b81b80830461ffff908116929092018216810261ffff60b81b1984161793849055600160a01b90920481169392610700929004166101f463ffffffff6107a516565b820390508061ffff168261ffff161115610749576001600160a01b0385166000908152602081905260409020805461ffff60a01b1916600160a01b61ffff84160217905561076e565b6001600160a01b0385166000908152602081905260409020805461ffff60a01b191690555b61077785610819565b5050505b505050565b6001600160a01b0316600090815260208190526040902054600160c81b900460ff1690565b600061ffff83166107b857506000610813565b82820261ffff80841690808616908316816107cf57fe5b0461ffff16146108105760405162461bcd60e51b81526004018080602001828103825260218152602001806108f16021913960400191505060405180910390fd5b90505b92915050565b6001600160a01b038116600090815260208190526040812054600160b01b900460ff161515600114610892576040805162461bcd60e51b815260206004820152601860248201527f4e6f74207265676973746572656420496e73706563746f720000000000000000604482015290519081900360640190fd5b6001600160a01b038216600090815260208190526040902054612710600160a01b90910461ffff16116108e857506001600160a01b0381166000908152602081905260408120805460ff60b01b191690556101e9565b50600191905056fe536166654d6174683a206d756c7469706c69636174696f6e206f766572666c6f77a26469706673582212202f1a2c2c7b57ea83f72d4fd006fb1b4ce62429eab337d755345fe42e1597a60c64736f6c634300060a0033",
  "immutableReferences": {},
  "source": "// SPDX-License-Identifier: MIT\r\npragma solidity >=0.4.21 <0.7.0;\r\nimport '../library/Report.sol';\r\nimport '../math/SafeMathuint.sol';\r\nimport '../library/ObjStruct.sol';\r\n\r\n/**\r\n *@title InspectData\r\n *@author  Wanggyu, Suh\r\n *@notice Save data about inspector\r\n */\r\ncontract InspectData {\r\n    using SafeMathuint for uint16;\r\n    mapping (address => ObjStruct.Inspector) inspectors;\r\n    uint16 constant public MAX_RATE_INSPECT = 65535;\r\n    uint16 constant public MIN_RATE_INSPECT = 10000;\r\n    uint16 constant RATE_INTERVAL = 500;\r\n    /** TODO : how can we solve dangling problem */\r\n\r\n    mapping(address => bool) allowedAddress;\r\n    constructor(\r\n        address _noticeAddress,\r\n        address _inspectAddress,\r\n        address _judgeAddress\r\n    )\r\n        public\r\n    {\r\n        allowedAddress[_noticeAddress] = true;\r\n        allowedAddress[_inspectAddress] = true;\r\n        allowedAddress[_judgeAddress] = true;\r\n    }\r\n\r\n\r\n    modifier onlyAllowed(){\r\n        require(allowedAddress[msg.sender] = true,\"Only allowed contract can access\");\r\n        _;\r\n    }\r\n    /* Getter function */\r\n    function getAbled(address _target) public view returns (bool) {\r\n        return inspectors[_target].abled;\r\n    }\r\n\r\n    function getRate(address _target) public view returns (uint16) {\r\n        return inspectors[_target].rate;\r\n    }\r\n\r\n    function getWinningStreak(address _target) public view returns (uint16) {\r\n        return inspectors[_target].winningStreak;\r\n    }\r\n    function getWinningState(address _target) public view returns (bool) {\r\n        return inspectors[_target].winningState;\r\n    }\r\n\r\n    /* Setter function */\r\n    function setInspector(address _target) public onlyAllowed {\r\n        inspectors[_target] = ObjStruct.Inspector(msg.sender, MAX_RATE_INSPECT/3, true, 0, true);\r\n    }\r\n\r\n    function setWinning(address _target, bool _result, bool _second) public onlyAllowed {\r\n        if (_second) {\r\n            if(_result){\r\n                uint16 rate = inspectors[_target].rate;\r\n                uint16 c = rate + RATE_INTERVAL;\r\n                if (c >= rate)\r\n                    inspectors[_target].rate = c;\r\n                else\r\n                    inspectors[_target].rate = MAX_RATE_INSPECT;\r\n            } else {\r\n                if (inspectors[_target].winningState) {\r\n                inspectors[_target].winningState = false;\r\n                inspectors[_target].winningStreak = 0;\r\n                } else {\r\n                    uint16 rate = inspectors[_target].rate;\r\n                    inspectors[_target].winningStreak = inspectors[_target].winningStreak + 2;\r\n                    uint16 c = rate - inspectors[_target].winningStreak.mul(RATE_INTERVAL);\r\n                    if(rate > c)\r\n                        inspectors[_target].rate = c;\r\n                    else\r\n                        inspectors[_target].rate = 0;\r\n                    decideKeepRole(_target);\r\n                }\r\n            }\r\n        } else if (_result) {\r\n            if (!inspectors[_target].winningState) {\r\n                inspectors[_target].winningState = true;\r\n                inspectors[_target].winningStreak = 0;\r\n            } else {\r\n                uint16 rate = inspectors[_target].rate;\r\n                inspectors[_target].winningStreak++;\r\n                uint16 c = rate + inspectors[_target].winningStreak.mul(RATE_INTERVAL);\r\n                if (c >= rate)\r\n                    inspectors[_target].rate = c;\r\n                else\r\n                    inspectors[_target].rate = MAX_RATE_INSPECT;\r\n            }\r\n        } else {\r\n            if (inspectors[_target].winningState) {\r\n                inspectors[_target].winningState = false;\r\n                inspectors[_target].winningStreak = 0;\r\n            } else {\r\n                uint16 rate = inspectors[_target].rate;\r\n                inspectors[_target].winningStreak = inspectors[_target].winningStreak + 2;\r\n                uint16 c = rate - inspectors[_target].winningStreak.mul(RATE_INTERVAL);\r\n                if(rate > c)\r\n                    inspectors[_target].rate = c;\r\n                else\r\n                    inspectors[_target].rate = 0;\r\n                decideKeepRole(_target);\r\n            }\r\n        }\r\n    }\r\n\r\n    function decideKeepRole(address _target) internal returns (bool) {\r\n        require(inspectors[_target].abled == true, \"Not registered Inspector\");\r\n        if (inspectors[_target].rate <= MIN_RATE_INSPECT) {\r\n            inspectors[_target].abled = false;\r\n            return false;\r\n        }\r\n        return true;\r\n    }\r\n}",
  "sourcePath": "C:\\Users\\tjdhk\\OneDrive\\detok-alpha\\core\\decentralized\\contracts\\storeContract\\InspectData.sol",
  "compiler": {
    "name": "solc",
    "version": "0.6.10+commit.00c0fcaf.Emscripten.clang"
  },
  "schemaVersion": "3.2.1",
  "updatedAt": "2020-08-18T04:48:52.412Z",
  "networkType": "ethereum",
  "devdoc": {
    "author": "Wanggyu, Suh",
    "methods": {},
    "title": "InspectData"
  },
  "userdoc": {
    "methods": {},
    "notice": "Save data about inspector"
  }
}