{
  "contractName": "Inspect",
  "abi": [
    {
      "inputs": [],
      "stateMutability": "nonpayable",
      "type": "constructor"
    },
    {
      "anonymous": false,
      "inputs": [
        {
          "indexed": false,
          "internalType": "address",
          "name": "inspector",
          "type": "address"
        },
        {
          "indexed": false,
          "internalType": "bool",
          "name": "decision",
          "type": "bool"
        },
        {
          "indexed": false,
          "internalType": "bytes",
          "name": "domain",
          "type": "bytes"
        },
        {
          "indexed": false,
          "internalType": "bytes32",
          "name": "defendeeName",
          "type": "bytes32"
        }
      ],
      "name": "Inspect",
      "type": "event"
    },
    {
      "anonymous": false,
      "inputs": [
        {
          "indexed": false,
          "internalType": "address",
          "name": "inspector",
          "type": "address"
        }
      ],
      "name": "RegisterInspector",
      "type": "event"
    },
    {
      "inputs": [
        {
          "internalType": "address",
          "name": "_target",
          "type": "address"
        }
      ],
      "name": "getRate",
      "outputs": [
        {
          "internalType": "uint16",
          "name": "",
          "type": "uint16"
        }
      ],
      "stateMutability": "view",
      "type": "function",
      "constant": true
    },
    {
      "inputs": [
        {
          "internalType": "contract ReportData",
          "name": "_reportStorage",
          "type": "address"
        },
        {
          "internalType": "contract InspectData",
          "name": "_inspertorStorage",
          "type": "address"
        },
        {
          "internalType": "contract DefendeeData",
          "name": "_defendeeStorage",
          "type": "address"
        }
      ],
      "name": "holdDatabase",
      "outputs": [],
      "stateMutability": "nonpayable",
      "type": "function"
    },
    {
      "inputs": [],
      "name": "registerInspector",
      "outputs": [
        {
          "internalType": "bool",
          "name": "",
          "type": "bool"
        }
      ],
      "stateMutability": "nonpayable",
      "type": "function"
    },
    {
      "inputs": [
        {
          "internalType": "bytes",
          "name": "_domain",
          "type": "bytes"
        },
        {
          "internalType": "bytes32",
          "name": "_defendeeName",
          "type": "bytes32"
        },
        {
          "internalType": "bool",
          "name": "_decision",
          "type": "bool"
        }
      ],
      "name": "inspect",
      "outputs": [],
      "stateMutability": "nonpayable",
      "type": "function"
    }
  ],
  "bytecode": "0x608060405234801561001057600080fd5b50600380546001600160a01b031916331790556111ff806100326000396000f3fe608060405234801561001057600080fd5b506004361061004c5760003560e01c806334d5905e1461005157806337cef7911461006f5780635786f6561461008f578063b49c61a5146100a4575b600080fd5b6100596100b7565b6040516100669190610f60565b60405180910390f35b61008261007d366004610cc6565b61029e565b6040516100669190611161565b6100a261009d366004610e0c565b610325565b005b6100a26100b2366004610d62565b61038e565b6000805460405163afb7085160e01b81526001600160a01b039091169063afb70851906100e8903390600401610eb5565b60206040518083038186803b15801561010057600080fd5b505afa158015610114573d6000803e3d6000fd5b505050506040513d601f19601f820116820180604052508101906101389190610d46565b1561015e5760405162461bcd60e51b815260040161015590611010565b60405180910390fd5b6000546040516337cef79160e01b81526001600160a01b03909116906337cef7919061018e903390600401610eb5565b60206040518083038186803b1580156101a657600080fd5b505afa1580156101ba573d6000803e3d6000fd5b505050506040513d601f19601f820116820180604052508101906101de9190610e4b565b61ffff16156101ff5760405162461bcd60e51b8152600401610155906110c9565b600054604051634e5cbf6160e01b81526001600160a01b0390911690634e5cbf619061022f903390600401610eb5565b600060405180830381600087803b15801561024957600080fd5b505af115801561025d573d6000803e3d6000fd5b505050507f659ce33c8cdf5109c4c8af37be015da61a9449ab80a639f31f44e301ad57858a336040516102909190610eb5565b60405180910390a150600190565b600080546040516337cef79160e01b81526001600160a01b03909116906337cef791906102cf908590600401610eb5565b60206040518083038186803b1580156102e757600080fd5b505afa1580156102fb573d6000803e3d6000fd5b505050506040513d601f19601f8201168201806040525081019061031f9190610e4b565b92915050565b6003546001600160a01b0316331461034f5760405162461bcd60e51b815260040161015590611135565b600180546001600160a01b039485166001600160a01b031991821617909155600080549385169382169390931790925560028054919093169116179055565b60005a905060006103a5848663ffffffff610b6316565b600154604051636b1260a360e11b8152919250600091829182916001600160a01b039091169063d624c146906103e19087903390600401610f74565b60606040518083038186803b1580156103f957600080fd5b505afa15801561040d573d6000803e3d6000fd5b505050506040513d601f19601f820116820180604052508101906104319190610cfe565b919450925090506001600160a01b0383163314156104615760405162461bcd60e51b81526004016101559061103c565b811561047f5760405162461bcd60e51b815260040161015590611071565b8060ff166001146104a25760405162461bcd60e51b815260040161015590611100565b60005460405163afb7085160e01b81526001600160a01b039091169063afb70851906104d2903390600401610eb5565b60206040518083038186803b1580156104ea57600080fd5b505afa1580156104fe573d6000803e3d6000fd5b505050506040513d601f19601f820116820180604052508101906105229190610d46565b15156001146105435760405162461bcd60e51b81526004016101559061109a565b600254604051634d68d89d60e01b8152600091829182916001600160a01b031690634d68d89d90610578908d90600401610f6b565b60206040518083038186803b15801561059057600080fd5b505afa1580156105a4573d6000803e3d6000fd5b505050506040513d601f19601f820116820180604052508101906105c89190610e9a565b600154604051634c092eff60e11b81529192506001600160a01b0316906398125dfe906105fd908a908d903390600401610f9b565b6040805180830381600087803b15801561061657600080fd5b505af115801561062a573d6000803e3d6000fd5b505050506040513d601f19601f8201168201806040525081019061064e9190610e66565b909350915060ff811661066b61ffff85168463ffffffff610bd216565b61ffff161015801561068457508161ffff168361ffff16115b156107dd5760018054604051636fe2d36160e01b81526001600160a01b0390911691636fe2d361916106ba918b91600401610f8b565b600060405180830381600087803b1580156106d457600080fd5b505af11580156106e8573d6000803e3d6000fd5b50506002546040516311aea33760e21b8152600093506001600160a01b0390911691506346ba8cdc9061071f908e90600401610f6b565b60206040518083038186803b15801561073757600080fd5b505afa15801561074b573d6000803e3d6000fd5b505050506040513d601f19601f8201168201806040525081019061076f9190610ce2565b600254604051637a2802e160e11b81529192506001600160a01b03169063f45005c2906107a5908e906001908690600401610f9b565b600060405180830381600087803b1580156107bf57600080fd5b505af11580156107d3573d6000803e3d6000fd5b5050505050610a9e565b60ff81166107f561ffff85168463ffffffff610bd216565b61ffff161015801561080e57508161ffff168361ffff16105b15610a9e57600154604051636fe2d36160e01b81526001600160a01b0390911690636fe2d36190610846908a90600090600401610f8b565b600060405180830381600087803b15801561086057600080fd5b505af1158015610874573d6000803e3d6000fd5b5050600254604051633246bbb360e21b81526001600160a01b03909116925063c91aeecc91506108a8908a90600401610f6b565b600060405180830381600087803b1580156108c257600080fd5b505af11580156108d6573d6000803e3d6000fd5b50506001546040516306c9bf1360e41b8152600093506001600160a01b039091169150636c9bf1309061090d908b90600401610f6b565b60206040518083038186803b15801561092557600080fd5b505afa158015610939573d6000803e3d6000fd5b505050506040513d601f19601f8201168201806040525081019061095d9190610e9a565b905060005b8160ff168160ff161015610a9b57600154604051631e0a7a2760e01b81526000916001600160a01b031690631e0a7a27906109a3908d908690600401610fc8565b60206040518083038186803b1580156109bb57600080fd5b505afa1580156109cf573d6000803e3d6000fd5b505050506040513d601f19601f820116820180604052508101906109f39190610ce2565b6001546040516335375a4160e01b81529192506001600160a01b0316906335375a4190610a26908d908590600401610f74565b60206040518083038186803b158015610a3e57600080fd5b505afa158015610a52573d6000803e3d6000fd5b505050506040513d601f19601f82011682018060405250810190610a769190610d46565b15610a8957610a8481610c05565b610a92565b610a9281610c6f565b50600101610962565b50505b60003a5a600154604051630fbbe5e960e31b8152918c039290920292506001600160a01b0390911690637ddf2f4890610ae6908b9066038d7ea4c68000860190600401610fba565b600060405180830381600087803b158015610b0057600080fd5b505af1158015610b14573d6000803e3d6000fd5b505050507f0bbd7cf4fa737b52f9bb6cdaba725d378e8c55f350676dbb5bfeb25b404761ed338b8e8e604051610b4d9493929190610ec9565b60405180910390a1505050505050505050505050565b80516020820120604080518181526060818101835260009392909190602082018180368337505060408051602080825281830190925292935060609291508082018180368337505050602081810197885290519096209582019586525060408101919091525190922092915050565b600082820161ffff8085169082161015610bfe5760405162461bcd60e51b815260040161015590610fd9565b9392505050565b6000546040516331ee621960e21b81526001600160a01b039091169063c7b9886490610c3a9084906001908190600401610f3d565b600060405180830381600087803b158015610c5457600080fd5b505af1158015610c68573d6000803e3d6000fd5b5050505050565b600080546040516331ee621960e21b81526001600160a01b039091169163c7b9886491610c3a918591600190600401610f3d565b805161ffff8116811461031f57600080fd5b805160ff8116811461031f57600080fd5b600060208284031215610cd7578081fd5b8135610bfe816111a3565b600060208284031215610cf3578081fd5b8151610bfe816111a3565b600080600060608486031215610d12578182fd5b8351610d1d816111a3565b6020850151909350610d2e816111bb565b9150610d3d8560408601610cb5565b90509250925092565b600060208284031215610d57578081fd5b8151610bfe816111bb565b600080600060608486031215610d76578283fd5b833567ffffffffffffffff80821115610d8d578485fd5b81860187601f820112610d9e578586fd5b8035925081831115610dae578586fd5b610dc1601f8401601f1916602001611170565b9150828252876020848301011115610dd7578586fd5b610de8836020840160208401611197565b50935050602084013591506040840135610e01816111bb565b809150509250925092565b600080600060608486031215610e20578283fd5b8335610e2b816111a3565b92506020840135610e3b816111a3565b91506040840135610e01816111a3565b600060208284031215610e5c578081fd5b610bfe8383610ca3565b60008060408385031215610e78578182fd5b610e828484610ca3565b9150610e918460208501610ca3565b90509250929050565b600060208284031215610eab578081fd5b610bfe8383610cb5565b6001600160a01b0391909116815260200190565b600060018060a01b0386168252602085151581840152608060408401528451806080850152825b81811015610f0c5786810183015185820160a001528201610ef0565b81811115610f1d578360a083870101525b5060608401949094525050601f91909101601f19160160a0019392505050565b6001600160a01b0393909316835290151560208301521515604082015260600190565b901515815260200190565b90815260200190565b9182526001600160a01b0316602082015260400190565b9182521515602082015260400190565b92835290151560208301526001600160a01b0316604082015260600190565b918252602082015260400190565b91825260ff16602082015260400190565b6020808252601b908201527f536166654d6174683a206164646974696f6e206f766572666c6f770000000000604082015260600190565b602080825260129082015271105b1c9958591e481c9959da5cdd195c995960721b604082015260600190565b6020808252818101527f446f6e27742054727920746f20696e737065637420796f7572207265706f7274604082015260600190565b6020808252600f908201526e105b1c9958591e481a5b9cdc1958dd608a1b604082015260600190565b602080825260159082015274141b19585cd948149959da5cdd195c88119a5c9cdd605a1b604082015260600190565b60208082526019908201527f596f752061726520626c61636b656420696e73706563746f7200000000000000604082015260600190565b6020808252818101527f416c72656164792066696e69736820696e7370656374696e67207265706f7274604082015260600190565b60208082526012908201527127b7363c903337b9103232bb32b637b832b960711b604082015260600190565b61ffff91909116815260200190565b60405181810167ffffffffffffffff8111828210171561118f57600080fd5b604052919050565b82818337506000910152565b6001600160a01b03811681146111b857600080fd5b50565b80151581146111b857600080fdfea264697066735822122005f16f3081ed37227c2cb32a26c2722c5fcdc2baee42227fe153fa6db7cdacae64736f6c634300060a0033",
  "immutableReferences": {},
  "source": "// SPDX-License-Identifier: MIT\r\npragma solidity >=0.4.21 <0.7.0;\r\npragma experimental ABIEncoderV2;\r\nimport './math/SafeMathuint.sol';\r\nimport './storeContract/ReportData.sol';\r\nimport './storeContract/InspectData.sol';\r\nimport './storeContract/DefendeeData.sol';\r\nimport './rate/RateInspector.sol';\r\nimport './events/InspectEvents.sol';\r\n\r\n/**\r\n *@title Inspect\r\n *@author  Wanggyu, Suh\r\n *@notice Inspect a report or register inspector\r\n *@dev It will be reconstruct because it is prototype.\r\n  It works well, but it take large amount of fee for reducing fee\r\n  For reduce fee, Alpha version will delete exception handling that can be controlled in out of blockchain\r\n */\r\ncontract Inspect is RateInspector, InspectEvents {\r\n    using Report for bytes32;\r\n    using SafeMathuint for uint16;\r\n    ReportData reportStorage;\r\n    DefendeeData defendeeStorage;\r\n    address developer;\r\n\r\n    constructor() public {\r\n        developer = msg.sender;\r\n    }\r\n\r\n    modifier onlyDeveloper() {\r\n        require(msg.sender == developer, \"Only for developer\");\r\n        _;\r\n    }\r\n    //@dev Connect with database contract. It can be called by only developer\r\n    function holdDatabase(ReportData _reportStorage, InspectData _inspertorStorage, DefendeeData _defendeeStorage) public onlyDeveloper {\r\n        reportStorage = _reportStorage;\r\n        inspertorStorage = _inspertorStorage;\r\n        defendeeStorage = _defendeeStorage;\r\n    }\r\n    //@notice The user who call this function be a inspector\r\n    function registerInspector() public returns (bool) {\r\n\r\n        require(!inspertorStorage.getAbled(msg.sender), \"Already registered\");\r\n        require(inspertorStorage.getRate(msg.sender) == 0, \"You are blacked inspector\");\r\n        inspertorStorage.setInspector(msg.sender);\r\n        emit RegisterInspector(msg.sender);\r\n        return true;\r\n    }\r\n    /**\r\n     *@param _domain domain of target report\r\n     *@param _defendeeName copyright's name of target report\r\n     *@param _decision Inspector's decision of target report\r\n     */\r\n    function inspect(\r\n        bytes memory _domain,\r\n        bytes32 _defendeeName,\r\n        bool _decision\r\n    )\r\n        public\r\n    {\r\n        uint256 startGas = gasleft();\r\n        bytes32 meta = _defendeeName.makeMetaDataForLink(_domain);\r\n\r\n        /* Check condition\r\n            1. 자신이 신고한 것에 검증 못하게 막는다.\r\n            2. 검증자로 등록이 되어 있는 지 확인한다.\r\n            3. 해당 신고에 검증한 적이 있는 지 확인한다.\r\n            4. 해당 신고가 검증 단계의 신고가 맞는지 확인한다.\r\n         */\r\n        (address test,bool test2,uint8 test3) = reportStorage.metaDataForOnce(meta, msg.sender);\r\n        require(test != msg.sender, \"Don't Try to inspect your report\");\r\n        require(test2 == false, \"Already inspect\");\r\n        require(test3 == 1,\"Already finish inspecting report\");\r\n        require(inspertorStorage.getAbled(msg.sender) == true, \"Please Register First\");\r\n\r\n        uint16 approveCount;\r\n        uint16 denyCount;\r\n        uint8 inspectCount = defendeeStorage.getInspectCount(_defendeeName);\r\n        (approveCount, denyCount) = reportStorage.setReportInspectCount(meta, _decision, msg.sender);\r\n\r\n        if(approveCount.add(denyCount) >= inspectCount && approveCount > denyCount){\r\n            reportStorage.setInspect(meta, true);\r\n            address owner = defendeeStorage.getDefendeeOwnerAddress(_defendeeName);\r\n            defendeeStorage.setUnjudged(_defendeeName, true, owner);\r\n        } else if (approveCount.add(denyCount) >= inspectCount && approveCount < denyCount) {\r\n            reportStorage.setInspect(meta, false);\r\n            defendeeStorage.compenSationQueueEnqueue(meta);\r\n            uint8 number = reportStorage.getNumberOfInspector(meta);\r\n            for (uint8 i = 0; i < number; i++) {\r\n                address target = reportStorage.getInspectorAddress(meta, i);\r\n                if(reportStorage.getInspectDecision(meta,target)){\r\n                    increaseRateForDenySecond(target);\r\n                } else {\r\n                    decreaseRateForDenySecond(target);\r\n                }\r\n            }\r\n        }\r\n        uint256 usedFee = (startGas - gasleft()) * tx.gasprice;\r\n        /**\r\n         *@dev\r\n            This is prototype.\r\n            Refund amount is not accurately measure\r\n            It will be changed with accurate measurement.\r\n        */\r\n        reportStorage.setReportInspectGas(meta, usedFee + 1000000000000000);\r\n        emit Inspect(msg.sender, _decision, _domain, _defendeeName);\r\n    }\r\n}",
  "sourcePath": "C:\\Users\\tjdhk\\OneDrive\\detok-alpha\\core\\decentralized\\contracts\\Inspect.sol",
  "compiler": {
    "name": "solc",
    "version": "0.6.10+commit.00c0fcaf.Emscripten.clang"
  },
  "schemaVersion": "3.2.1",
  "updatedAt": "2020-08-18T04:48:52.384Z",
  "networkType": "ethereum",
  "devdoc": {
    "author": "Wanggyu, Suh",
    "details": "It will be reconstruct because it is prototype. It works well, but it take large amount of fee for reducing fee For reduce fee, Alpha version will delete exception handling that can be controlled in out of blockchain",
    "methods": {
      "inspect(bytes,bytes32,bool)": {
        "params": {
          "_decision": "Inspector's decision of target report",
          "_defendeeName": "copyright's name of target report",
          "_domain": "domain of target report"
        }
      }
    },
    "title": "Inspect"
  },
  "userdoc": {
    "methods": {},
    "notice": "Inspect a report or register inspector"
  }
}