{
  "contractName": "RateDefendee",
  "abi": [
    {
      "inputs": [
        {
          "internalType": "bytes32",
          "name": "_defendeeName",
          "type": "bytes32"
        }
      ],
      "name": "getRateDefendee",
      "outputs": [
        {
          "internalType": "uint16",
          "name": "",
          "type": "uint16"
        }
      ],
      "stateMutability": "view",
      "type": "function"
    }
  ],
  "bytecode": "0x608060405234801561001057600080fd5b50610110806100206000396000f3fe6080604052348015600f57600080fd5b506004361060285760003560e01c806303b6576a14602d575b600080fd5b604760048036036020811015604157600080fd5b5035605e565b6040805161ffff9092168252519081900360200190f35b6000805460408051631360636960e11b81526004810185905290516001600160a01b03909216916326c0c6d291602480820192602092909190829003018186803b15801560aa57600080fd5b505afa15801560bd573d6000803e3d6000fd5b505050506040513d602081101560d257600080fd5b50519291505056fea2646970667358221220780f25e1b92eea4a9d7370d1258ec9346408c490f9031ce27a61cec7ae06434064736f6c634300060a0033",
  "immutableReferences": {},
  "source": "// SPDX-License-Identifier: MIT\r\npragma solidity >=0.4.21 <0.7.0;\r\nimport '../math/SafeMathuint.sol';\r\nimport '../storeContract/DefendeeData.sol';\r\n/**\r\n *@title RateDefendee\r\n *@author  Wanggyu, Suh\r\n *@notice Connector with rate database contract\r\n */\r\ncontract RateDefendee {\r\n    using SafeMathuint for uint16;\r\n    DefendeeData defendeeStorage;\r\n   \r\n    function getRateDefendee(bytes32 _defendeeName) public view returns (uint16) {\r\n        return defendeeStorage.getDefendeeRate(_defendeeName);\r\n    }\r\n\r\n    function incrementRateDefendee(bytes32 _defendeeName) internal {\r\n        defendeeStorage.setDefendeeRate(_defendeeName, true, msg.sender);\r\n    }\r\n\r\n    function decreaseRateDefendee(bytes32 _defendeeName) internal {\r\n        defendeeStorage.setDefendeeRate(_defendeeName, false, msg.sender);\r\n    }\r\n}",
  "sourcePath": "C:\\Users\\tjdhk\\OneDrive\\detok-alpha\\core\\decentralized\\contracts\\rate\\RateDefendee.sol",
  "compiler": {
    "name": "solc",
    "version": "0.6.10+commit.00c0fcaf.Emscripten.clang"
  },
  "schemaVersion": "3.2.1",
  "updatedAt": "2020-08-18T04:48:40.554Z",
  "devdoc": {
    "author": "Wanggyu, Suh",
    "methods": {},
    "title": "RateDefendee"
  },
  "userdoc": {
    "methods": {},
    "notice": "Connector with rate database contract"
  }
}