{
  "contractName": "RateInspector",
  "abi": [
    {
      "inputs": [
        {
          "internalType": "address",
          "name": "_target",
          "type": "address"
        }
      ],
      "name": "getRate",
      "outputs": [
        {
          "internalType": "uint16",
          "name": "",
          "type": "uint16"
        }
      ],
      "stateMutability": "view",
      "type": "function"
    }
  ],
  "bytecode": "0x608060405234801561001057600080fd5b5061011a806100206000396000f3fe6080604052348015600f57600080fd5b506004361060285760003560e01c806337cef79114602d575b600080fd5b605060048036036020811015604157600080fd5b50356001600160a01b03166067565b6040805161ffff9092168252519081900360200190f35b60008054604080516337cef79160e01b81526001600160a01b038581166004830152915191909216916337cef791916024808301926020929190829003018186803b15801560b457600080fd5b505afa15801560c7573d6000803e3d6000fd5b505050506040513d602081101560dc57600080fd5b50519291505056fea2646970667358221220e5733e1743721f29e56befdd9f42ee606d25d4213aa704b52ae00ec9817912c264736f6c634300060a0033",
  "immutableReferences": {},
  "source": "// SPDX-License-Identifier: MIT\r\n\r\npragma solidity >=0.4.21 <0.7.0;\r\n\r\nimport '../storeContract/InspectData.sol';\r\n/**\r\n *@title RateInspector\r\n *@author  Wanggyu, Suh\r\n *@notice Connector with rating database contract\r\n */\r\ncontract RateInspector {\r\n    InspectData inspertorStorage;\r\n    \r\n    function getRate(address _target) public view returns (uint16) {\r\n        return inspertorStorage.getRate(_target);\r\n    }\r\n\r\n    function increaseRate(address _targetAddress) internal {\r\n        inspertorStorage.setWinning(_targetAddress, true, false);\r\n    }\r\n\r\n    function decreaseRate(address _targetAddress) internal returns (bool) {\r\n        inspertorStorage.setWinning(_targetAddress, false, false);\r\n    }\r\n\r\n    function increaseRateForDenySecond(address _targetAddress) internal {\r\n        inspertorStorage.setWinning(_targetAddress, true, true);\r\n    }\r\n\r\n    function decreaseRateForDenySecond(address _targetAddress) internal {\r\n        inspertorStorage.setWinning(_targetAddress, false, true);\r\n    }\r\n}",
  "sourcePath": "C:\\Users\\tjdhk\\OneDrive\\detok-alpha\\core\\decentralized\\contracts\\rate\\RateInspector.sol",
  "compiler": {
    "name": "solc",
    "version": "0.6.10+commit.00c0fcaf.Emscripten.clang"
  },
  "schemaVersion": "3.2.1",
  "updatedAt": "2020-08-18T04:48:40.556Z",
  "devdoc": {
    "author": "Wanggyu, Suh",
    "methods": {},
    "title": "RateInspector"
  },
  "userdoc": {
    "methods": {},
    "notice": "Connector with rating database contract"
  }
}